:020000040800F2
:100000000000032095050008651E0008671E000813
:10001000691E00086B1E00086D1E0008000000002D
:10002000000000000000000000000000C1630008A4
:100030006F1E00080000000051640008B56400084D
:10004000E5050008E5050008E5050008E5050008E8
:10005000E5050008E5050008E5050008E5050008D8
:10006000E5050008E5050008E5050008E5050008C8
:10007000E5050008E5050008E5050008E5050008B8
:10008000E5050008E5050008E5050008E5050008A8
:10009000E5050008E5050008E5050008E505000898
:1000A000E5050008E5050008E5050008E505000888
:1000B000E5050008E5050008E5050008E505000878
:1000C000E5050008E5050008E5050008E505000868
:1000D000E5050008711E0008E5050008E5050008B3
:1000E000E5050008E5050008E5050008E505000848
:1000F000E5050008E5050008E5050008E505000838
:10010000E5050008E5050008E5050008E505000827
:10011000E5050008E50500087D1E0008E505000866
:10012000E5050008E5050008E5050008E505000807
:10013000E5050008E5050008E5050008E5050008F7
:10014000E5050008E5050008E5050008E5050008E7
:10015000E5050008E5050008E5050008E5050008D7
:10016000E5050008E5050008E5050008E5050008C7
:10017000E5050008E5050008E505000800000000A9
:10018000E5050008E5050008E5050008E5050008A7
:10019000E5050008E5050008E5050008E505000897
:0C01A000891E0008E5050008951E0008F7
:1001B00010B5054C237833B9044B13B10448AFF3A1
:1001C00000800123237010BD6401002000000000A6
:1001D0009CC8010808B5034B1BB103490348AFF3A2
:1001E000008008BD00000000680100209CC80108D4
:1001F00001F0FF01102A2BDB10F0070F08D010F8D8
:10020000013B013A8B422DD010F0070F42B3F6D1DB
:10021000F0B441EA012141EA014122F007047FF0F4
:1002200000070023F0E80256083C85EA010586EA4B
:10023000010685FA47F5A3FA87F586FA47F6A5FA87
:1002400087F68EB9EED1F0BC01F0FF0102F0070293
:1002500032B110F8013B013A83EA010313B1F8D13E
:100260000020704701387047002D06BF354603381F
:10027000073815F0010F07D1013015F4807F02BF58
:10028000013015F4C03F0130F0BC0138704700BFA9
:1002900053B94AB9002908BF00281CBF4FF0FF31ED
:1002A0004FF0FF3000F074B9ADF1080C6DE904CEE9
:1002B00000F006F8DDF804E0DDE9022304B0704741
:1002C0002DE9F047089D04468E46002B4DD18A4209
:1002D000944669D9B2FA82F252B101FA02F3C2F13C
:1002E000200120FA01F10CFA02FC41EA030E9440CD
:1002F0004FEA1C48210CBEFBF8F61FFA8CF708FBEE
:1003000016E341EA034306FB07F199420AD91CEBC5
:10031000030306F1FF3080F01F81994240F21C81F7
:10032000023E63445B1AA4B2B3FBF8F008FB10333F
:1003300044EA034400FB07F7A7420AD91CEB040474
:1003400000F1FF3380F00A81A74240F20781644444
:10035000023840EA0640E41B00261DB1D4400023C9
:10036000C5E900433146BDE8F0878B4209D9002D2D
:1003700000F0EF800026C5E9000130463146BDE8B7
:10038000F087B3FA83F6002E4AD18B4202D3824221
:1003900000F2F980841A61EB030301209E46002DD0
:1003A000E0D0C5E9004EDDE702B9FFDEB2FA82F225
:1003B000002A40F09280A1EB0C014FEA1C471FFA83
:1003C0008CFE0126200CB1FBF7F307FB131140EA6A
:1003D00001410EFB03F0884208D91CEB010103F137
:1003E000FF3802D2884200F2CB804346091AA4B2F9
:1003F000B1FBF7F007FB101144EA01440EFB00FECD
:10040000A64508D91CEB040400F1FF3102D2A64531
:1004100000F2BB800846A4EB0E0440EA03409CE7D0
:10042000C6F12007B34022FA07FC4CEA030C20FA7D
:1004300007F401FA06F31C43F9404FEA1C4900FA9D
:1004400006F3B1FBF9F8200C1FFA8CFE09FB18111A
:1004500040EA014108FB0EF0884202FA06F20BD98D
:100460001CEB010108F1FF3A80F08880884240F2DD
:100470008580A8F102086144091AA4B2B1FBF9F021
:1004800009FB101144EA014100FB0EFE8E4508D91C
:100490001CEB010100F1FF346CD28E456AD90238A1
:1004A000614440EA0840A0FB0294A1EB0E01A14286
:1004B000C846A64656D353D05DB1B3EB080261EBF4
:1004C0000E0101FA07F722FA06F3F1401F43C5E9CE
:1004D000007100263146BDE8F087C2F12003D84004
:1004E0000CFA02FC21FA03F3914001434FEA1C4746
:1004F0001FFA8CFEB3FBF7F007FB10360B0C43EA38
:10050000064300FB0EF69E4204FA02F408D91CEBE7
:10051000030300F1FF382FD29E422DD902386344E5
:100520009B1B89B2B3FBF7F607FB163341EA034185
:1005300006FB0EF38B4208D91CEB010106F1FF38D4
:1005400016D28B4214D9023E6144C91A46EA0046CB
:1005500038E72E46284605E70646E3E61846F8E65D
:100560004B45A9D2B9EB020864EB0C0E0138A3E7A6
:100570004646EAE7204694E74046D1E7D0467BE787
:10058000023B614432E7304609E76444023842E7FF
:10059000704700BFDFF834D0002103E00C4B5B58FC
:1005A000435004310B480C4B42189A42F6D30B4A85
:1005B00002E0002342F8043B094B9A42F9D302F0CF
:1005C000C9FD1BF08FF900F081FE70470000032089
:1005D000F061080800000020640100206401002090
:1005E000C8280120FEE700F005BC00F073BC70478E
:1005F00010B5042104461BF007F8204610BD00008A
:1006000038B50C4B0C4C18800C4B82201980636859
:10061000984740F6110398420AD1094D23682C608F
:10062000822098472B688220DB689847002038BDDD
:100630000120FCE7800100204C0000208201002006
:10064000840100204FF4A071F020FFF7D9BF000013
:10065000F7B52D4D2B6804461B698220984780B260
:100660002080002843D02B680DF106025B6901A9A8
:1006700082209847BDF80620A2F5B47292B20A2AE9
:1006800037D90B23B2FBF3F2204B1B889A4201D9D6
:10069000013B9AB2BDF8043040F6B8318B422AD8FB
:1006A000C3F571630E339BB20F21B3FBF1F318490D
:1006B00009888B4201D94B1E9BB2164E164D3068ED
:1006C0002F68834281B28CBF591AC91AB8B2BA4294
:1006D0008CBF101A801A89B280B201440529C8BFA4
:1006E00033603368C8BF2A6063802B68A38003B07F
:1006F000F0BD0022CEE7C3F56D6308339BB20E2B2D
:10070000D2D80023D9E700BF840100208201002055
:1007100080010020880100208C01002037B5684648
:100720000D461446FFF794FFBDF8000030B1BDF848
:1007300002302B60BDF804302360012003B030BDCF
:10074000704770477047012380F8741080F8753047
:100750007047002070470000034B4164003918BF08
:1007600001211970704700BF232601200020704727
:10077000836B0BB10846184770474FF6FF70704700
:10078000406803689B69184770477047704700F0DE
:1007900041BC08B503680446D3F880309847236805
:1007A00020469B6F984700F0EBF8236820461B6FAC
:1007B0009847292001F020F800F0E2F8236820464D
:1007C0001B6F9847F8E710B5044609F049F923680C
:1007D0002046D3F8AC30BDE81040184700F00CBC00
:1007E00000F010BC00F03CBC00F0E2BB00F03CBCF0
:1007F00000F044BC00F0E6BB08F0BDBA10B57C21A7
:1008000004461AF001FF204610BD90F877301BB166
:10081000406803681B6818471846704710B590F881
:10082000341090F874400C4B8C421A7809D03AB9C5
:100830000A4A0B491488088810800C8001221A701B
:1008400010BD002AFCD0054A05491488088810808C
:100850000C800022F3E700BF1C260120182601208F
:100860001A26012070B50D46194635B9094B0A4ABA
:100870000A4840F2BB211AF0F5FEC0E90F52084BBE
:10088000003A18BF01221A700368BDE87040D3F81F
:100890008C3018470CC9010844C9010892C90108E5
:1008A0002226012008B5094B1B888B4203D8084B30
:1008B0001B88934205D9074B074A08489E211AF026
:1008C000D1FE074B1980074B1A8008BD182601205E
:1008D0001A260120D7C901083ACA010892C901089D
:1008E0001E26012020260120012108B500220846ED
:1008F00005F03AFA0A4B186028B90A4B0A4A29212E
:100900000A481AF0AFFE00220421012005F0F2FA95
:10091000074B186018B9074B034A2D21F0E708BDB3
:100920009401002058CB0108A1CB0108D0CB0108CD
:10093000900100201DCC0108024B4FF0FF311868D8
:1009400005F068BA94010020014B186805F09CBAC4
:1009500094010020024B0021186805F05BBA00BF2B
:1009600094010020FFF7F0BF03480449006800230A
:100970001A4605F005BB00BF9001002004000020CE
:1009800013B5084C00231A4601A9206805F03AFB6C
:1009900020684FF0FF33002201A905F033FB02B0BD
:1009A00010BD00BF9001002003685B6C1847012058
:1009B000704703689B6A184782B0002301930D4B70
:1009C0001A6B42F400021A631A6B02F400020192DD
:1009D000019A1A6942F400021A611A6922F40002AB
:1009E0001A61054B054A1A61054B4FF080629A6007
:1009F00002B0704700380240CC140020450A0008BD
:100A000000E100E040F2EF3070470000054B03606A
:100A1000054B4FF08062C3F88820BFF34F8FBFF3C0
:100A20006F8F7047BCCD010800E100E010B50446AF
:100A30004FF45A61FFF7EAFF20461AF0E5FD204621
:100A400010BD0000024B1B68586803685B691847BB
:100A50002426012070B5044625460A4B0C3000269A
:100A600060602672667245F8203B6022294609F0D4
:100A70005FF904F55A63EE602435AB42FBD12046A2
:100A800070BD00BFBCCD010808B50B290BD8DFE84D
:100A900001F01206100A0A0A0A08080808080120CC
:100AA00008BD0520FCE7054B054A064867211AF0FA
:100AB000D9FD0020F4E70220F2E700BF5FCC010877
:100AC0007ACC0108C4CC010808B50A2909D8DFE8A6
:100AD00001F010060E0808080806060606000120A8
:100AE00008BD054B054A064888211AF0BBFD0020C9
:100AF000F6E70220F4E700BF5FCC01080FCD010844
:100B0000C4CC01082DE9F8434F7F0C463946814695
:100B1000FFF7BAFF94F81E80054641464846FFF7A6
:100B2000B3FF414606464846FFF7CEFFA18A628BD7
:100B3000424B521A1A649A61228B521A1A61E28A43
:100B4000586342EA01425A6420696268D863DA60F5
:100B5000216894F81CC080294FEA0C6226D010D876
:100B6000202945EA020461D040295FD004295DD0E4
:100B7000324B2A4342F400324745DA615AD0304AB8
:100B800040E0B1F5807F07D0B1F5007FF0D142F4AD
:100B9000003242F0090203E042F4003242F00A025D
:100BA000DA61E2681A625E6258612AE0A4682A4348
:100BB00042F40032211DD962DA6122785E62586106
:100BC00042B1012A21D01F4B1F4A20484FF489719E
:100BD0001AF048FDDA69618822F47F42013922F077
:100BE000100242EA0122DA610120144BDA6942F074
:100BF0002002DA61DA699206FCD410229A60002899
:100C0000BDD0134A1A60BDE8F8836288D969541EC2
:100C100021F47F4222F0100242EA0422BCF1FF00DC
:100C200042F0100218BF0120DA61DEE744F400341C
:100C3000DC61B8E740F20122E4E700BF00B0024007
:100C4000010201005ACD010874CD0108C4CC01088D
:100C50000102020070B50C46897FFFF735FFA68AB6
:100C6000E18A628B154B2569586341EA0641921B64
:100C70005964DD631A642668E168082E0DD19A6113
:100C80001A615862207F0E4A42EA0062DA610D4A18
:100C900019625D61DD601A6070BD0022D8611A6161
:100CA00048090A0A02F4784200F4FC600243C1F3E6
:100CB000C4010A439A63044AEDE700BF00B0024052
:100CC0000900010001020200010203000120704737
:100CD0000C2070470C2303FB0100083070470C23E5
:100CE00003FB010008307047012070474FF4357056
:100CF00070474FF4357303FB0100083070474FF421
:100D0000357303FB01000830704701207047102045
:100D1000704700EB01100830704700EB01100830FD
:100D20007047084601F0A0BA10B5034B03600446B3
:100D300007F02CFA204610BD74CE010810B5044609
:100D4000FFF7F2FF204614211AF05EFC204610BD8A
:100D500010B5034B0360044607F018FA204610BD97
:100D600040CE010810B50446FFF7F2FF20464FF4CD
:100D700037711AF049FC204610BD000010B5034B36
:100D80000360044607F002FA204610BD0CCE0108AD
:100D900010B50446FFF7F2FF204618211AF034FC84
:100DA000204610BD10B5084B0360044600F54270A4
:100DB000FFF7BAFF04F12C00FFF7CAFF04F114009B
:100DC000FFF7DCFF204610BDA8CE010808B5024899
:100DD000FFF7E8FF08BD00BF9C01002010B50446E6
:100DE000FFF7E0FF20464FF48F611AF00DFC20461C
:100DF00010BD00002DE9F34101F0C0F8054601F0F7
:100E0000C1F80024014623462846224600940EF0ED
:100E1000B3FA254B254A264D1A60204601F0B4FB53
:100E200024480EF0F5F92B78BFF35B8FDB0735D440
:100E300028461AF0EBFB88B31F4C204B236004F5C7
:100E4000487604F1140004F12C0804F54277606040
:100E5000C4F80880E760266107F09AF9184B6361CF
:100E6000404607F095F9174BE362384607F090F9D2
:100E7000154BC4F8083304F5477001F095FE22467F
:100E800004F54771304601F085FE304601F0ECF97B
:100E90000E481AF005FC28461AF0C4FB0C4802B0B4
:100EA000BDE8F041FFF773BC802601203414002018
:100EB00098010020080000209C010020A8CE010815
:100EC0000CCE010840CE010874CE0108CD0D0008FB
:100ED000B81300200148FFF75CBC00BFB813002026
:100EE00070B5234C234E244B244D23603046FFF72E
:100EF000B1FD284611F0ECFB214B2248DC60224C6E
:100F000003600022F0204FF480712080C3E91212A8
:100F10001E4C1F492080C3E919121E4C1A864FF03F
:100F200080714FF4A07059670121C3E90422C3E91D
:100F30000622C3E90822C3E90A22C3E90E22C3E953
:100F40001022C3E91422C3E916221A6683F86C2022
:100F50001A67C3E9016583F8781020800E4C83F886
:100F6000341020800D4802700D4A1A6070BD00BF19
:100F70001406002018060020FCC8010838140020C0
:100F8000B813002024260120182601201E26012047
:100F9000010000011A260120202601201C26012024
:100FA00088CA01080148FFF731BD00BF18060020BC
:100FB000034B902283F85A2383F85823704700BFCD
:100FC00000E100E0094A0A49D3680A48C3F30A036A
:100FD000013B9BB20B801169C1F30A010139018009
:100FE0001364536B43F0010353637047006801407F
:100FF000B4140020B2140020014BD3F8AC007047A9
:1010000000680140024B0122C3F8AC105A627047DD
:101010000068014070B5044607F003FF23685D6E69
:101020000BF00EFD01462046A8472368054AD3F879
:1010300088502046AC460023BDE87040A2F516312A
:10104000604700BF005802D007F0D2BE90F84B3086
:1010500013B1024B01221A7007F0D6BEB014002063
:1010600007F08FBE07F0E9BF034B4FF080629A6034
:101070004FF080729A60704700E100E0084B4FF03B
:101080008062C3F88820BFF34F8FBFF36F8F4FF09C
:101090008072C3F88820BFF34F8FBFF36F8F704704
:1010A00000E100E010B5144C236823B3134B144A3D
:1010B0001B6C11888B4213D1124B198803F0D4F8A2
:1010C000226892F86630013382F86630FFF74CFCF4
:1010D000206808F0C5FCBDE810400020FFF730BBD9
:1010E00003F0C2F8206803681B6A9847BDE8104007
:1010F0000020FFF726BB10BD242601200068014018
:10110000B4140020B214002007B5064BADF8060059
:101110001B68054801220DF1060103F0B6FD03B07E
:101120005DF804FB100000203C16002008B50120EB
:1011300004F000FEFBE7000030B5094D89B0002443
:101140006023CDE90130224601A928460394059485
:1011500004F0F2F92146284604F07CFA09B030BDCB
:101160009416002010B51848082102F099FA02469A
:1011700098B916484FF4804102F098FA13480122BA
:101180004FF4005102F092FA642002F01DF84FF47F
:10119000FA60BDE81040FFF7CFBF0B48082102F00E
:1011A0007FFA012804460DD1084800224FF400516F
:1011B00002F07CFA054822464FF4804102F076FAAC
:1011C0000020E6E710BD00BF000802400018024002
:1011D00008B5FFF7C7FF012004F0ACFDF9E70000F8
:1011E00007B54FF0FF330190012201A9034804F035
:1011F00007FB019803B05DF804FB00BFD416002084
:10120000024903480A2204F057BB00BFC014002063
:10121000D4160020F0B5A1B0102200210AA81AF0BF
:10122000A7FB1422002103A81AF0A2FB0021302200
:1012300014A81AF09DFB0024224B01941A6C42F072
:1012400080521A641B6C03F080530193019B1E4B68
:1012500002941A6842F440421A601B6803F4404347
:1012600002930122029B4FF48033CDE9082302252B
:101270004FF48003CDE90E5308274FF4A8730426DA
:1012800008A8CDE910731295139603F00BF80F23FD
:10129000CDE903354FF4A0514FF48053CDE9061347
:1012A00003A80521059403F0D5F9C023189314A8C9
:1012B0004FF4003314971A961D9303F0A5FA21B04A
:1012C000F0BD00BF003802400070004080B59AB009
:1012D00001F04EFFFFF79EFF142200210DA800240D
:1012E0001AF046FBC64B00941A6BC648C64D42F036
:1012F00020021A631A6B02F020020092009A0194F5
:101300001A6B42F080021A631A6B02F0800201929B
:10131000019A02941A6B42F004021A631A6B02F0EB
:1013200004020292029A03941A6B42F001021A63B9
:101330001A6B02F001020392039A04941A6B42F0B2
:1013400002021A631A6B02F002020492049A0594D4
:101350001A6B42F040021A631A6B02F040020592C7
:10136000059A06941A6B42F010021A631A6B02F087
:1013700010020692069A07941A6B42F008021A634A
:101380001B6B03F00803079322460421079B02F01E
:101390008DF99E4822464FF4405102F087F92246CB
:1013A0009B484FF4C04102F081F901264FF002083A
:1013B000042794480F940DA9CDE90D76CDF840800F
:1013C00002F086F84FF484738E480F940DA9CDE98E
:1013D0000D3402F07DF84FF440538C480DA9CDE94F
:1013E0000D36CDE90F4802F073F80DA94FF4C04354
:1013F0008748CDE90D36CDE90F4402F069F88548FC
:10140000854B036001F046FF844A854B2C62C5E999
:10141000002328464FF48043C5E90434C5E902445B
:10142000C5E9064402F024FB1021284602F060FDC5
:101430002146284602F07BFD7A487B4984624FF4BE
:101440008273C0E900134FF400751823C0E90653F6
:101450000A23764DC362C0E90244C0E90444C0E9EE
:10146000084403F0D5FB724BCDF834804FF0100CDC
:10147000C5E900364023C5E904C34FF4C073C5E98C
:1014800006344FF40063C5E908344FF400534FF0BD
:10149000030AAB620DA907232846CDE90E37109346
:1014A0004FF00809C5E90247CDE911A8CDF84C80F5
:1014B00003F0D4FA4FF6FF7209A92846CDE90A963F
:1014C000089409960C9403F0E9FA304601F07CFE8A
:1014D0004FF6FF7209A92846CDE90989CDE90B64C9
:1014E00003F0DCFA4FF6FF7209A92846CDE909A9F5
:1014F000CDE90B7403F0D2FA4FF40C730893089BF8
:101500000C934FF6FF7209A92846CDE909790B968D
:1015100003F0C4FA40F26A51284603F0D6FA3422A6
:1015200021460DEB02001AF023FA424D424BAC86E5
:10153000C5E900340923C5E905361D2340F20D1E17
:10154000C5E9073A40F24313C5E909E3284640F2EA
:10155000471340F21719C5E90B93C5E902442C6102
:1015600085F8364002F088FDFF21F022CDE9121403
:101570004FF4806A05214FF4A073CDE90E24CDE924
:1015800014A1CDE916420DA922462846CDE910380E
:101590002A4D18930D94ADF864408DF8664002F022
:1015A00036FE274B2B601B6898472B68254DDB6860
:1015B0009847254BC5E90A48C5E90C442846C5E9C2
:1015C0000034C5E9028401F087FE3146284601F067
:1015D0003BFF21461C220DA81AF0CAF91B4D1C4ADC
:1015E000AC6040F2A313C5E90023284640F2CF7354
:1015F000C5E90334AC6103F035FF28462AE000BF9B
:1016000000380240000802400C150020000C024087
:1016100000180240C414002000300240005C00406A
:10162000A08601003C160020005001400816002052
:10163000400100A06015002000680140BC1400209B
:1016400014000020CC14002000B0024094160020AA
:101650000044014003F020FF224660230DA92846E4
:10166000CDE90D340F94119403F066FF28461A4D0E
:1016700000F0E6FA19494FF416532846C5E900135D
:10168000C5E90244C5E90447C5E9064404F08AF8FF
:10169000FEF7A9FF2046FFF74FFD114932462846C5
:1016A00004F00AF904F0B6FA0E4A0F48214604F095
:1016B000EBFA0E4B0E4A186021460E4804F0E4FA8D
:1016C0000D4B0E4A186021460D4804F0DDFA0D4B13
:1016D000186004F0B9FAFEE7D416002000100140AB
:1016E000C0140020DCCE0108EB050008B81400206F
:1016F00024CF0108D11100081817002000CF0108DD
:101700002D11000814170020704770477FB5094B52
:101710008DF817201B6802930DF117020123009228
:1017200001930A460146044802F04AFA07B05DF800
:1017300004FB00BF0C0000200C1500207FB5002327
:101740008DF81730084B1B6802930A4601230DF1F0
:101750001701009101930146044802F0C1FA9DF877
:10176000170007B05DF804FB0C0000200C150020EA
:101770001FB5084C24680092CDE901340A460123C4
:101780000146054802F0ACFA003818BF012004B049
:1017900010BD00BF0C0000200C15002001F014BD8E
:1017A00008B506480022042101F080FFBDE808408A
:1017B00002480122042101F079BF00BF0008024065
:1017C00038B50B4D044601220A484FF4005101F090
:1017D0006DFF00220421284601F068FF2046FFF734
:1017E00093FC28460122BDE83840042101F05EBF89
:1017F00000080240000C024038B50B4D04460022A0
:101800000A484FF4005101F051FF002204212846FC
:1018100001F04CFF2046FFF777FC28460122BDE887
:101820003840042101F042BF00080240000C024091
:10183000F7B5144E144F05460C46304600220421DD
:1018400001F034FF00224FF40051384601F02EFF22
:101850002846FFF759FC0D4B0D481B68224601A98D
:1018600003F0B1FB384601224FF40051019C01F016
:101870001DFF30460122042101F018FF204603B06D
:10188000F0BD00BF00080240000C02401000002024
:101890003C16002001F098BC0268034B9A4201D12B
:1018A00001F080BC704700BF0010004082B00E4BBA
:1018B00000220092596C41F480415964596C01F442
:1018C0008041009100990192196C41F08051196496
:1018D0001B6C03F080530193019B0F216FF00100FB
:1018E00002B001F097BC00BF003802400268094B0B
:1018F0009A4282B00BD100230193074B1A6B42F43A
:1019000080521A631B6B03F480530193019B02B056
:10191000704700BF003002400038024007B50F4B4F
:1019200002689A4216D10022A3F5F0430192196B86
:1019300041F4000119631B6B03F4000301930521BB
:101940005A20019B01F066FC5A2003B05DF804EBBD
:1019500001F092BC03B05DF804FB00BF00B0024090
:101960002DE9F043044689B01422002103A819F0A0
:10197000FFFF2268244B9A4243D1244C244800257F
:101980000095236B43F004032363236B03F00403EC
:101990000093009B0195236B43F001032363236BAA
:1019A00003F001030193019B4FF012094FF4007300
:1019B0004FF001080327042603A9CDE90339CDE937
:1019C0000587079601F084FD4FF480731148079650
:1019D00003A9CDE90339CDE9058701F079FD029529
:1019E000236C43F400032364236C03F40003029389
:1019F000029B236A43F400032362236A23F4000357
:101A0000236209B0BDE8F083005C0040003802406A
:101A10000008024000000240F0B504468DB01422D8
:101A2000002107A819F0A4FF2268574B9A4240F002
:101A3000A88003F55043002500955A6C534842F0A6
:101A400080625A645A6C02F080620092009A01959A
:101A50001A6B42F020021A631A6B02F02002019204
:101A6000019A02951A6B42F001021A631A6B02F096
:101A700001020292029A03951A6B42F002021A6363
:101A80001A6B02F002020392039A04951A6B42F059
:101A900040021A631A6B02F040020492049A059500
:101AA0001A6B42F004021A631A6B02F004020592E8
:101AB000059A06951A6B42F008021A631B6B03F035
:101AC0000803069302240E26069B0A944FF48063B3
:101AD00007A9CDE907340B9601F0FAFC41F658034B
:101AE0002B480B9607A9CDE907340927CDE90954FE
:101AF00001F0EEFC032327480B9707A9CDE9073433
:101B0000CDE9095401F0E4FC4FF4706321480B96D1
:101B100007A9CDE90734CDE9095401F0D9FC4FF408
:101B20000C631D480B9607A9CDE90734CDE909548C
:101B300001F0CEFCC02319480B9607A9CDE9073464
:101B4000CDE9095401F0C4FC082315480B9607A9F8
:101B5000CDE90734CDE9095401F0BAFC4FF4A053A4
:101B60000D480B9707A9CDE90734CDE9095401F0D9
:101B7000AFFC58202A46052101F04CFB582001F00B
:101B80007BFB0DB0F0BD00BF0068014000140240B7
:101B90000000024000040240001802400008024019
:101BA000000C024010B5044688B01422002103A89E
:101BB00019F0DEFE2268144B9A4223D103F56843E4
:101BC000002101915A6C114842F480125A645A6CF7
:101BD00002F480120192019A02911A6B42F02002E3
:101BE0001A631B6B03F020030293029B4FF4607295
:101BF00002230321CDE903230523CDE9061303A91D
:101C000001F066FC08B010BD005001400014024015
:101C10000268094B9A4282B00BD100230193074B13
:101C20005A6C42F400325A645B6C03F40033019343
:101C3000019B02B0704700BF0044014000380240E1
:101C400010B5044686B01422002101A819F090FEB8
:101C500022680D4B9A4215D1002300930B4B0C4880
:101C60001A6B42F020021A631B6B03F020030093EF
:101C7000009B40220223CDE9012301A90323059300
:101C800001F026FC06B010BD0044014000380240BF
:101C90000014024010B5044688B01422002103A8A5
:101CA00019F066FE2268184B9A422BD103F5943343
:101CB000002401945A6C154842F010025A645A6C80
:101CC00002F010020192019A02941A6B42F0010292
:101CD0001A631B6B03F0010302934FF4C062029B73
:101CE0000223CDE9032303210723CDE9061303A92A
:101CF00001F0EEFB25202246052101F08BFA25207C
:101D000001F0BAFA08B010BD001001400000024016
:101D10002DE9F04186B0002303932B4B1C68002C67
:101D20004FD14FF00108C3F80080284B00949A6B04
:101D3000274842EA08029A639B6B03EA0803009370
:101D4000022703260C25009B01A94FF63F03CDE98E
:101D50000137CDE9046501F0BBFB1E48059501A9DB
:101D6000CDE90187CDE9034601F0B2FB48F2331318
:101D70001948059501A9CDE90137CDE9034601F0E0
:101D8000A7FB4FF683731548059501A9CDE90137E7
:101D9000CDE9034601F09CFB4CF203731048059516
:101DA00001A9CDE90137CDE9034601F091FB60239C
:101DB0000C48059501A9CDE90137CDE9034601F0AD
:101DC00087FB06B0BDE8F0811C17002000380240F8
:101DD00000140240000802400018024000100240B7
:101DE000000C02400004024030B5014689B00022D8
:101DF000362001F00FFA362001F03EFA0025154B8F
:101E000002951A6C144C42F010021A641B6C03F019
:101E10001003029301A903A8029B02F0D7FC02F071
:101E2000B5FC0E4B236040F2E733E36040000C4BFF
:101E3000B0FBF3F00138606020462561A56003F037
:101E400011FB20B9204603F0EFF909B030BD0120A5
:101E5000FBE700BF003802402017002000100040C0
:101E600040420F007047FEE7FEE7FEE7FEE77047DF
:101E7000014803F083BD00BFD4160020014803F0E1
:101E8000E8B900BF20170020014802F063B900BF85
:101E900060150020014801F04DBA00BFCC140020AD
:101EA0000120704708B519F00FFC162303604FF0AE
:101EB000FF3008BD08B519F007FC16230360FEE7E4
:101EC00070B50D4614460E46731B9C4201DC20463D
:101ED00070BDAFF3008006F8010BF5E770B50D4655
:101EE00014460E46731B9C4201DC204670BD16F85A
:101EF000010BFFF775F9F5E74FF0FF3070474FF42E
:101F000000534B600020704701207047002070474D
:101F10000A4A116808B5034609B9094911601068F1
:101F2000694603448B4206D919F0CEFB0C230360AB
:101F30004FF0FF3008BD1360FCE700BF60170020C2
:101F4000C8280120704710B50421044619F05CFB35
:101F5000204610BD012908B506D0022908D059B97C
:101F600000F05EFB006808BD00F05AFB4068FAE72D
:101F700000F056FB8068F6E70020F4E70048704761
:101F80005CCF01080620704713B5002451B10368E7
:101F900001948DF8034001AA9C680DF10303A0474A
:101FA00002B010BD0846FBE7408970478089704742
:101FB0008088704783798088184480B27047C079E0
:101FC00000F07F007047C079C0097047704710B5B6
:101FD0000821044619F018FB204610BD70477047D1
:101FE00000F596730868496803C3704770477047E7
:101FF0004160704770470000064BC0F8483100232D
:10200000C0F84C3100F5A073C0F84401C0F83C3171
:10201000704700BFB9200008012303727047704762
:10202000704710B4C26841685410034601EB620067
:10203000D20748BF0A599B685DF8044B48BFD35884
:10204000184743682BB183682BB9C06800F00100C2
:102050007047184670470120704710B50C210446A0
:1020600019F0D2FA204610BD10B51021044619F01F
:10207000CBFA204610BD10B54FF4AC71044619F0F0
:10208000C3FA204610BD08B50AF0DAFCBDE80840E6
:102090000BF09EB810B50446D0F83C0158B1036867
:1020A000DB68984738B1D4F83C0103689B689847CF
:1020B0000023C4F83C3110BD2DE9F14FD0E9545A4A
:1020C0000746A86803681B6A9847B0F5357F05D2B4
:1020D000454B464AA321464819F0C4FA686803688C
:1020E0001B6A98470F2803D8424B404AA421F2E7C5
:1020F000E86803681B6A98470B2803D83E4B3B4AA5
:10210000A521E8E7DFF8F8900AF09AFC0AF09EFCB7
:10211000D9F8000010B10368DB689847D9F80000CF
:1021200010B103681B689847DFF8D880D8F8000022
:1021300010B103685B699847D7F8380110B103689C
:102140005B689847D8F8000010B103681B6898478F
:10215000D7F8380110B103689B689847E8680368AE
:1021600000215B6A98474FF0000B244B0360044644
:10217000C0F804B080F808B0A868036859465B6AE4
:102180009847064600F03CFD6868036859465B6A5C
:1021900098473146054600F019FDC9F80040C7F8D8
:1021A0003851C8F80060E5B12B1DCAF8003033681B
:1021B000C5F808A03046DB68F56398472B682846C9
:1021C0001B689847214630460CF036F823682046B5
:1021D0001B69984723685B69204601B0BDE8F04F52
:1021E00018472B46E1E700BFE4CF010872D0010891
:1021F0007CD10108C3D1010866D2010878D3010857
:102200006426012060260120F8B5044617460E46D4
:102210000AF036FC104B0025C4E954760F4E1C60C2
:10222000C4E952550E4B306823600E4BC4E950355B
:10223000036801219B68C4E94E559847284600F081
:10224000A3F9336893F876200AB1D86C00B998687E
:1022500012F089F82046F8BD7026012024260120BE
:102260002CD3010814D30108064BC0F848310023D1
:10227000C0F84C3100F5A073C0F84401C0F83C31FF
:10228000704700BFB9200008006A7047406A704775
:1022900070478B8880690A68DB0A50F82300104475
:1022A000704710B5C2B1137BB3B1547BD27A24020C
:1022B00004F4E0641443C26998B202EB8402138808
:1022C0008B4202D192F9020010BD05D8013880B2CC
:1022D00004320028F3D1F7E70020F5E710B52821F4
:1022E000044619F091F9204610BD000030B589B0C0
:1022F0000446BDF850500695BDF84C5005959DF824
:10230000405004959DF83C5003959DF83850029537
:102310009DF8345001959DF8305000950BF0CAFBA4
:10232000064B2360119BA361129BE361159B236203
:10233000169B6362204609B030BD00BF9CD30108E4
:102340007047000030B5154D2C78BFF35B8F14F04B
:1023500001048DB01ED1284619F058F9D0B13F23A1
:1023600007930F4B06930F4B0F4910480894012217
:10237000CDE904430423CDE90132CDE909440A2320
:1023800003940094FFF7B2FF094819F089F9284631
:1023900019F048F905480DB030BD00BF64170020A2
:1023A000280C0208400C0208B80A0208681700202E
:1023B000412300087047000030B5154D2C78BFF35D
:1023C0005B8F14F001048DB01FD1284619F01EF95F
:1023D000D8B13F2307930F4B06930F4B0F4910487B
:1023E0000894CDE9044301220423CDE90132CDE96B
:1023F00009441423182203940094FFF777FF094837
:1024000019F04EF9284619F00DF905480DB030BD08
:10241000901700202C0C0208440C0208C80A02087D
:1024200094170020B52300087047000030B5154D03
:102430002C78BFF35B8F14F001048DB01ED12846B9
:1024400019F0E4F8D0B13F2307930F4B06930F4BDD
:102450000F49104808940122CDE904430423CDE933
:102460000132CDE90944282303940094FFF73EFF8D
:10247000094819F015F9284619F0D4F805480DB0A7
:1024800030BD00BFBC1700203C0C0208480C0208FD
:10249000180C0208C01700202924000800207047EB
:1024A000002070470EB403B503AB002153F8042B92
:1024B00001930BF031F902B05DF804EB03B0704703
:1024C0000CB407B504AB53F8042B01930BF024F9BB
:1024D00003B05DF804EB02B070470000436C10B528
:1024E000044673B3038F2BB9184B194AC0211948FE
:1024F00019F0B8F8C38E00EB43035B8C0BB30CF000
:1025000033FC238F012B03D8134B144AC521EEE76C
:10251000E28E531C9BB2092B194688BFA3F10A0116
:1025200004EB410140F63F10498C814209D10A2B4E
:1025300004EB420228BF002304EB4303508C588471
:1025400051842046BDE810400CF0F2BAECD30108EB
:10255000F5D30108A0D40108EAD40108F8D4010891
:102560000CF09EBA10B586B002AC84E806001A469C
:102570000AAB05930193099B00932146089B09F040
:1025800065FD06B010BD000038B518BB124B1348EE
:102590001B681349B3B11A689C681A4402605A68F0
:1025A0001A440A601C440F4B00221A8000F038F8CD
:1025B000054600F033F80C4B1C600C4B1D600C4BB7
:1025C000188007E00B4B03600B4B0B600B4B1C6838
:1025D000002CE8D138BD00BFE8170020EC17002020
:1025E000F0170020F4170020742601207C2601201B
:1025F000782601205C0C02084C0C0208AC0C020886
:10260000044B1B6853F82100034B1B6803EB40008D
:10261000704700BFF0170020EC170020042070471F
:1026200000487047F817002010B5FFF7C5FE044CAE
:102630002060FFF7FBFE6060FFF784FEA06010BD26
:10264000F81700200020704781807047C1807047D4
:1026500001817047418170477047704770477047EC
:10266000704710B4C4880368121B84885B6D091B13
:1026700012B25DF8044B09B218474FF6FF7383811D
:102680004FF0FF3303621368C361106070477047F7
:10269000704770477047704790F825201AB190F83E
:1026A000242002B118607047704770477047704728
:1026B00070B4C46845686610034605EB6400E4071F
:1026C00048BFAC599B6848BFE35870BC1847436883
:1026D0002BB183682BB9C06800F001007047184621
:1026E00070470120704730B4C268446855100346F3
:1026F00004EB6200D20748BF62599B6830BC48BFF8
:10270000D358184743682BB183682BB9C06800F0D1
:1027100001007047184670470120704710B510211E
:10272000044618F071FF204610BD10B51021044674
:1027300018F06AFF204610BD10B54FF435710446FD
:1027400018F062FF204610BD00F1FC038B4203D15C
:10275000B0F82C01FEF7F0BC704790F8252012B1BC
:1027600003685B691847704708B500F16C0399422C
:102770001AD100220421134800F098FF4FF47A7018
:1027800000F022FD012204210E4800F08FFF0E4BC5
:10279000186804F063FE642000F016FD4FF4FA6040
:1027A000BDE80840FEF7C8BCB430814208D1064BF2
:1027B000186805F063F8642000F006FD0020EFE7DC
:1027C00008BD00BF000802401817002070B503685C
:1027D00004461B6B154698472368294620465B6BC9
:1027E000BDE87040184770B504461D46BDF910603D
:1027F000FFF7ECFF2368294620469B6B9847236828
:1028000031462046DB6BBDE8704018471B4B73B563
:102810001B88018F8B4206462BD9194B1B682BB99D
:10282000184B194A1948AE2118F01CFF13F8112053
:10283000174B1B6853F82250164B1868FFF7E0FE41
:102840002B68019001469B6A284698472B6801999E
:102850001B6C0446284698472B6801995B6A14FB59
:1028600000F428469847E4B2044486F8454002B094
:1028700070BD002380F84530F9E700BF78260120BD
:1028800074260120CAD501080CD601083AD60108E1
:102890007C260120802601204FF4807181840D491F
:1028A00001600D4981624FF6FF7181854FF47F0110
:1028B000002241634FF0FF31C0E90122C0E9032249
:1028C000C0E90522C0E90722C0E9101202630287AD
:1028D000C263704738E80108DCCF01082DE9F04FEA
:1028E00004468DB00BF0FCFA22460025984BE563B8
:1028F00042F8403B974B2566C4E910354FF480738E
:1029000004F16C0BA4F86430FF2384F8663004F102
:10291000B40AC4E91255C4E91455C4E91655A566AC
:102920005846029204F1FC0708F040FB504608F0BC
:102930003DFB04F5FC79384606F078F904F510788B
:102940004846FFF7A9FF04F522764046FFF7A4FFAB
:102950004FF6FF730AA93046ADF8283007F038FA71
:102960007D4B0298C4E9AD347C4BC4E9AF357C4B58
:10297000C4E9B1347B4BC4E9B3354FF4A073009381
:102980002A462946F023FFF72EFF4FF07F43A36628
:10299000584650223921FFF719FF4FF0010309A9CA
:1029A0000AAA5846ADF82830ADF8245008F0E3F8EC
:1029B0004FF00302A4F8A4205846FFF727FF4FF07A
:1029C000FF31C4E92A1104F52D710391C4F8941064
:1029D0005046B1223921FFF7F9FE0AA90A464FF005
:1029E000010309A95046ADF82830ADF8245008F08D
:1029F000C2F80223A4F8EC305046FFF707FF039B10
:102A0000C4F8DC304FF0FF31C4E93C1138464722AE
:102A10000B21FFF7DBFE4FF00302ADF8202004226C
:102A2000ADF8242002230AAAADF8283008A91346DD
:102A3000384609AA06F056F97D23CDE900533846F9
:102A40002B460322072106F007F84FF4FA622946C5
:102A5000384605F0E8FE2946384605F070FE04F5D4
:102A60003173C4F8F431484608222321FFF7AEFE43
:102A70004FF0FF32C4F82822494604A8A4F82C528B
:102A800007F0D6FC04AA07CA04F50D7383E8070013
:102A9000354B0A930AA94FF001034846ADF82C3094
:102AA00008F00CF82F2240463D21FFF78FFE4FF033
:102AB000FF33C4F87032414604A8A4F8745207F0FA
:102AC000B7FC04AB93E8070004F51F7C8CE8070013
:102AD000254B0A930AA94046ADF82C5007F0EEFFAB
:102AE00005230AA93046ADF8283008F020F9D7238D
:102AF0005B2200932946EA233046FFF774FE2946FD
:102B0000304607F02CF97B2384F8B0320299201D5F
:102B1000029005F0C1FB0298594605F0BDFB0298F2
:102B2000514605F0B9FB0298394605F0B5FB02980D
:102B3000494605F0B1FB0298414605F0ADFB02980D
:102B4000314605F0A9FB20460DB0BDE8F08F00BF6F
:102B5000BCD60108F8E801088CD6010869270008EE
:102B6000A4D6010849270008DCCF0108704710B53A
:102B70004FF4AC71044618F047FD204610BD10B567
:102B80000446D0F8540100F012F82046BDE8104089
:102B900009F0D6BD10B50446FFF736FB014B2360A4
:102BA000204610BDF0D60108002202607047704731
:102BB000704704387047704710B51021044618F06C
:102BC00023FD204610BDA0F10400F5E710B500225A
:102BD0008260044AC16002F108042032046042604D
:102BE00010BD00BF34D7010870477047FFF75DBDC7
:102BF00010B54FF43571044618F006FD204610BD9F
:102C000010B50446FFF76AFE014B2360204610BD55
:102C100064D70108F02070474FF4A0707047292056
:102C2000FEF7EABD2820FEF7E7BD08B5FEF7B8FDC0
:102C3000CA20FEF7E1FDC320FEF7C2FD0820FEF723
:102C4000BFFD5020FEF7BCFDCF20FEF7D5FD0020D4
:102C5000FEF7B6FDC120FEF7B3FD3020FEF7B0FD54
:102C6000ED20FEF7C9FD6420FEF7AAFD0320FEF764
:102C7000A7FD1220FEF7A4FD8120FEF7A1FDE820AC
:102C8000FEF7BAFD8520FEF79BFD0020FEF798FDBC
:102C90007820FEF795FDCB20FEF7AEFD3920FEF73C
:102CA0008FFD2C20FEF78CFD0020FEF789FD3420DF
:102CB000FEF786FD0220FEF783FDF720FEF79CFD60
:102CC0002020FEF77DFDEA20FEF796FD0020FEF7AE
:102CD00077FD0020FEF774FDB120FEF78DFD00208A
:102CE000FEF76EFD1B20FEF76BFDB620FEF784FDA0
:102CF0000A20FEF765FDA220FEF762FDC020FEF768
:102D00007BFD1020FEF75CFDC120FEF775FD102055
:102D1000FEF756FDC520FEF76FFD4520FEF750FD7E
:102D20001520FEF74DFDC720FEF766FD9020FEF74B
:102D300047FD3620FEF760FDC820FEF741FDF2207A
:102D4000FEF75AFD0020FEF73BFDB020FEF754FDD4
:102D5000C220FEF735FDB620FEF74EFD0A20FEF735
:102D60002FFDA720FEF72CFD2720FEF729FD0420CC
:102D7000FEF726FD2A20FEF73FFD0020FEF720FD8E
:102D80000020FEF71DFD0020FEF71AFDEF20FEF7E4
:102D900017FD2B20FEF730FD0020FEF711FD00206F
:102DA000FEF70EFD0120FEF70BFD3F20FEF708FDAC
:102DB000F620FEF721FD0120FEF702FD0020FEF7C0
:102DC000FFFC0620FEF7FCFC2C20FEF715FDC820BA
:102DD000FEF760FD2620FEF70FFD0120FEF7F0FC58
:102DE000E020FEF709FD0F20FEF7EAFC2920FEF7A0
:102DF000E7FC2420FEF7E4FC0C20FEF7E1FC0E20AB
:102E0000FEF7DEFC0920FEF7DBFC4E20FEF7D8FCC7
:102E10007820FEF7D5FC3C20FEF7D2FC0920FEF717
:102E2000CFFC1320FEF7CCFC0520FEF7C9FC1720D1
:102E3000FEF7C6FC1120FEF7C3FC0020FEF7C0FC25
:102E4000E120FEF7D9FC0020FEF7BAFC1620FEF7C1
:102E5000B7FC1B20FEF7B4FC0420FEF7B1FC1120E8
:102E6000FEF7AEFC0720FEF7ABFC3120FEF7A8FC16
:102E70003320FEF7A5FC4220FEF7A2FC0520FEF75A
:102E80009FFC0C20FEF79CFC0A20FEF799FC2820F2
:102E9000FEF796FC2F20FEF793FC0F20FEF790FC28
:102EA0001120FEF7A9FCC820FEF7F4FC2920FEF74C
:102EB000A3FCBDE808402C20FEF79EBC08B5FEF739
:102EC0006FFC0321D320FEF7B3FC80B208BD10B520
:102ED000C4B2022203212046FEF718FC0A20FEF7A6
:102EE0005DFC204600220321FEF710FCBDE81040E7
:102EF0000220FEF753BC38B50446E4B2FEF704FCEA
:102F000000212046FEF71AFC012105462046FEF767
:102F100015FC40EA052080B238BD10B5C4B240218E
:102F20002046FEF70BFC030607D54C212046FEF792
:102F300005FC003818BF012010BD01224B2120469E
:102F4000FEF7E4FB204600224B21FEF7DFFB0020CA
:102F5000F2E773B50423C4B20E461546D7210DEB34
:102F600003022046FEF704FC019B1BBA1A0DC3F3B3
:102F70000B23328020462B8001224B21FEF7C6FB1B
:102F800000224B212046FEF7C1FB02B070BD0000BD
:102F900010B50A4B1A78904204460DD059788842F1
:102FA0000AD00AB141B901229C54FEF7ADFB20467C
:102FB000BDE81040FFF78BBF10BD00BF0418002014
:102FC00010B5C4B209212046FEF7B8FB40F001005D
:102FD000C2B209212046BDE81040FEF797BB10B5EC
:102FE000C4B209212046FEF7A9FB092100F0FE0228
:102FF0002046BDE81040FEF789BB38B5C4B20D4687
:1030000020460A21FEF79AFB2843C2B20A21204635
:10301000BDE83840FEF77ABB07B50190FEF775FBB7
:1030200001981F21FFF7E9FF019803B05DF804EB59
:10303000FFF7C6BF38B5C4B20D4620460A21FEF7D9
:103040007DFB20EA0500C2B20A212046BDE83840D7
:10305000FEF75CBB10B50446FFF7C1FF20461F21F9
:10306000BDE81040FFF7E6BF10B5C0B20C460B211B
:10307000FEF764FB204010BD1F21FFF7F5BF0A4695
:10308000C0B20B21FEF742BB1F21FFF7F8BF38B5D6
:10309000C4B20D4620461721FEF750FB20EA05007A
:1030A000C2B217212046BDE83840FEF72FBB70B5ED
:1030B000C4B2064604212046FEF740FB042100F07E
:1030C000FB0205462046FEF721FB3046F021FFF7C4
:1030D000DEFF05F0F80220460421FEF717FB492227
:1030E00020212046FEF712FB0220FEF757FB204668
:1030F00001222121FEF70AFB20469A224121FEF7F8
:1031000005FB204601224A21FEF700FB2046012252
:103110004B21FEF7FBFA204600224B21FEF7F6FA80
:10312000204601225621FEF7F1FA204601225821BD
:10313000FEF7ECFA204601224021FEF7E7FA20468E
:10314000FF220B21FEF7E2FABDE870400220FEF7F5
:1031500025BB0000054BD3F8882042F47002C3F869
:1031600088204FF000629A60704700BF00ED00E0D9
:1031700008B50B4B1A6842F400721A601A6842F4E0
:1031800080621A601A6842F480721A60032000F0AC
:103190002FF80020FEF728FEFEF788FB002008BD70
:1031A000003C0240034A044B11681B780B44136037
:1031B000704700BF0818002078000020014B1868F5
:1031C000704700BF0818002038B50446FFF7F6FF27
:1031D000631C1CBF054B1B78054618BFE418FFF79E
:1031E000EDFF431BA342FAD338BD00BF7800002097
:1031F0000749CA6822F4E0620302120403F4E063A0
:10320000120C134343F0BF6343F40033CB607047A9
:1032100000ED00E0164B30B5DC68C4F30224C4F1C5
:103220000705231D042D28BF0425062B4FF0FF336F
:103230008CBF033C002403FA05F521EA0501A340F5
:1032400022EA0302A140002841EA0203ACBF00F1D8
:103250006040084A4FEA0313B8BF00F00F00DBB22A
:10326000AABF00F56140135480F8003330BD00BFA1
:1032700000ED00E014ED00E0002808DB4209012326
:1032800000F01F0003FA00F0014B43F822007047E2
:1032900000E100E010B5044650B1437903F0FF02AD
:1032A00013B90271FEF722FB01236371002010BDE8
:1032B0000120FCE790F83530022B03D080234365D2
:1032C000012070470268052380F83530136823F029
:1032D000010313600020704710B5044630B390F826
:1032E000393003F0FF021BB980F83820FEF716FBD7
:1032F00022686168022384F83930136823F440336C
:103300000B431360536BA16823F007030B43536314
:10331000136CE16823F47F5323F03F030B431364E2
:1033200000200123E06384F8393010BD0120FCE760
:1033300070477047036870B55E681D68F207044601
:1033400014D5E90512D51A6822F480721A60C26B8E
:1033500042F00102C26301229A60042380F83930EE
:10336000002380F83830436903B19847B20616D578
:10337000AB0414D523681A6822F400521A60202284
:103380009A60E36B43F00203E363042384F839306B
:10339000002384F8383063690BB120469847300722
:1033A00016D5290514D523681A6822F400621A601C
:1033B00008229A60E36B43F00403E363042384F878
:1033C0003930002384F8383063690BB120469847C0
:1033D00072070BD56B0509D523681A6822F4806241
:1033E0001A6004229A602046FFF7A2FFB00714D5A6
:1033F000A90512D523681A6822F400721A60022205
:103400009A60E36BE363012384F83930002384F886
:10341000383023690BB120469847F20613D5EB04E8
:1034200011D523681A6822F480521A6010229A601B
:10343000E36BE363012384F83930002384F83830E8
:103440002046FFF776FF70BDF0B590F83830012BBD
:103450004FF002032BD0012280F8393080F8382059
:1034600000EB0113D3E907425D6A184F44EA0242B8
:10347000093C012C9CBF05F07F431A434FEA01161B
:10348000036888BF42EA056299B9596A39400A431C
:103490005A62012C82699A6103D8426A22F07F4203
:1034A0009A62012380F83930002380F838301846BA
:1034B000F0BDD96939400A43DA618219012C926959
:1034C0001A619CBF25F07F451D62EAE7F0FFFC0012
:1034D0002DE9F74FDFF8C0816D4ADFF8C091002376
:1034E0000D6801249C4004EA0506AC4340F0B78017
:1034F0004C6824F0100C4FEA430E03250CF1FF3703
:1035000005FA0EF5012F6FEA050511D8876807EA5D
:10351000050ACF6807FA0EF747EA0A078760476887
:1035200027EA060AC4F300179F4047EA0A074760E4
:10353000C76807EA050A8F6807FA0EF747EA0A071D
:10354000BCF1020FC76016D14FEAD30A00EB8A0A1A
:1035500003F0070BDAF820704FEA8B0B4FF00F0CDB
:103560000CFA0BFC27EA0C0C0F6907FA0BF747EA79
:103570000C07CAF8207007683D4004F0030707FAFB
:103580000EF73D430560E50069D54FF0000BCDF81F
:1035900004B0D8F844703F4D47F48047C8F84470F1
:1035A000D8F8447007F480470197019F23F0030780
:1035B00007F1804707F59C3703F0030ED7F808A002
:1035C0004FEA8E0E4FF00F0C0CFA0EFCA8422AEABE
:1035D0000C0C4BD005F58065A84249D005F58065F7
:1035E000A84247D005F58065A84245D005F580651D
:1035F000A84243D0484543D005F50065A84241D0D4
:1036000005F58065A8423FD005F58065A8423DD00C
:1036100005F58065A8420CBF09250A2505FA0EF5B7
:1036200045EA0C05BD601568F74314F4803F0CBFF4
:103630003D4035431560556814F4003F0CBF3D40D4
:1036400035435560956814F4801F0CBF3D403543E9
:103650009560D568A40254BF3D403543D560013321
:10366000102B7FF43DAF03B0BDE8F08F5D46D5E78A
:103670000125D3E70225D1E70325CFE70425CDE7D0
:103680000525CBE70625C9E70725C7E70825C5E7D0
:10369000003C01400000024000380240001402409B
:1036A0000369194214BF0120002070470AB18161EB
:1036B00070470904FBE701684B6913F480634FF01E
:1036C000000210D06FF480634B612023026380F806
:1036D0003D3080F83E20036C80F83C2043F004032A
:1036E000036401207047184670472DE9F8460646E6
:1036F0000F4691461D464FEA114A3368BAF1010F51
:103700000CBF5C699C6927EA0404A4B2B4FA84F48F
:103710006409A14501D0002017E06A1CEED0FFF734
:103720004DFD089BC01AA84201D8002DE5D1002309
:103730002022336386F83D2086F83E30326C86F8CE
:103740003C3042F0200232640120BDE8F8862DE9C9
:10375000F04104460F46164698462568686927EAF0
:10376000000080B2B8B16B695A0516D52B6843F4D6
:1037700000732B606FF480636B612022002323634E
:1037800084F83D2084F83E30226C42F0040222642A
:1037900084F83C300120BDE8F081731CDED0FFF7D7
:1037A0000DFDA0EB0800B04201D8002ED5D10023BA
:1037B0002022236384F83D2084F83E30226C42F0BE
:1037C0002002E4E770B504460D46164621684B69B1
:1037D00013F0400301D0002010E04A69D2060ED554
:1037E0006FF010024A612022236384F83D2084F8A0
:1037F0003E30226C226484F83C30012070BDFFF71B
:10380000DDFC801BA84201D8002DDFD1002320223F
:10381000236384F83D2084F83E30226C42F020027D
:10382000E8E770B504460D46164623685B695B07FA
:1038300001D5002070BD2046FFF73DFFA8B96A1CE6
:10384000F3D0FFF7BBFC801BA84201D8002DECD1C0
:1038500000232022236384F83D2084F83E30226C2C
:1038600084F83C3042F0200222640120E2E770B587
:1038700004460D46164623685B691B0601D50020E9
:1038800070BD2046FFF717FFA8B96A1CF3D0FFF7F9
:1038900095FC801BA84201D8002DECD100232022EA
:1038A000236384F83D2084F83E30226C84F83C3059
:1038B00042F0200222640120E2E700002DE9F043FB
:1038C0001546026885B0DDE90C789946136843F423
:1038D000807313600E463B46CDF8008000224FF007
:1038E00001110446FFF701FF236838B11B68DB05AF
:1038F00002D54FF40073236403200AE006F0FE06AD
:103900001E61194943463A462046FFF720FF18B189
:10391000012005B0BDE8F083236803905A69039243
:103920009B690393424639462046039BFFF79FFF5E
:1039300040B1236C042B01BF2268136843F4007369
:103940001360E5E7B9F1010F236802D1EDB21D6103
:10395000DFE72A0A1A61394642462046FFF787FF09
:103960000028E6D12368F1E7020001002DE9FF47B6
:103970009A46036815461A6842F480621A601A680B
:10398000DDE90C7842F480721A600E463B46CDF8B1
:10399000008000224FF001110446FFF7A6FE2368C5
:1039A00048B11B68DB0502D54FF400732364032084
:1039B00004B0BDE8F0875FFA86F906F0FE061E61E6
:1039C0002A4943463A462046FFF7C1FE08B1012086
:1039D000EEE7236803905A6903929B69039342467A
:1039E00039462046039BFFF742FF40B1236C042B6E
:1039F00001BF2268136843F400731360E7E7BAF16C
:103A0000010F23681AD1EDB21D61424639462046A6
:103A1000FFF72DFF0028E9D12268136843F4807373
:103A200013604FF001110246CDF800803B4620465E
:103A3000FFF75BFE226860B11368B3E72A0A1A61D8
:103A4000394642462046FFF712FF0028CED12368B0
:103A5000D9E749F001031361044943463A46204639
:103A6000FFF775FE003818BF0120A1E70200010032
:103A700070B5044608B9012070BD90F83D3003F0E0
:103A8000FF021BB980F83C20FDF76AFF242384F86D
:103A90003D3023681A6822F001021A601A6842F465
:103AA00000421A601A6822F400421A6000F06EFEAA
:103AB0003F4B65689D4294BF3E4B3F4B98428CBF45
:103AC00000230123002BD6D12268394E53683B498D
:103AD000B0FBF1F123F03F030B43B542536088BFC5
:103AE0004FF49676136A88BF714323F03F0384BF77
:103AF0004FF47A76B1FBF6F1013119431162D169C5
:103B0000431E2B4821F44F41854221F0FF0132D85A
:103B10006D0040F6FC70B3FBF5F30133034242D075
:103B2000C3F30B030B43D361D4E90730116803439C
:103B300021F0C0010B4313609168D4E9030321F421
:103B40000341034321F0FF010B439360D4E90530A7
:103B5000D168034321F0FF010B43D360136843F0A6
:103B60000103136000202023206484F83D3020638B
:103B700084F83E0080E7A06850B905EB4505B3FB2B
:103B8000F5F30133C3F30B037BB143F40043C9E7FF
:103B900019204543B3FBF5F30133C3F30B0323B102
:103BA00043F44043BEE70423BCE70123BAE700BF68
:103BB000A08601007F841E00FF083D0040420F00E8
:103BC0002DE9F743044699460C9E0F469046FFF7B1
:103BD000F5FA94F83D30202B054603D0022003B0BF
:103BE000BDE8F08300903C49192301222046FFF7ED
:103BF0007CFD0028F2D194F83C30012BEED02068F7
:103C0000012384F83C300368D9075EBF036843F0A2
:103C100001030360036823F400630360212384F835
:103C20003D30402384F83E30002323640A9B6362C6
:103C3000BDF82C306385638D2385284BE362CDE985
:103C400000654B46424639462046FFF737FE0028BE
:103C50002AD00120C3E7FFF70AFE40B1236C042BF2
:103C600001BF2268136843F400731360F1E7636ACD
:103C700027681A4612F8011B39616262628D218D34
:103C8000013A92B262857A69481E80B25207208555
:103C90000AD548B15A783A6102336362638D013BB9
:103CA00002399BB221856385238D2A463146204601
:103CB000002BD0D1FFF7B5FD0028CFD122681368C3
:103CC00043F400731360202384F83D3084F83C00F3
:103CD00084F83E0083E700BF020010000000FFFFF1
:103CE0002DE9F043044687B09946109F0D46904653
:103CF000FFF764FA94F83D30202B064604D00225E5
:103D0000284607B0BDE8F0830090764919230122C8
:103D10002046FFF7EAFC0028F1D194F83C30012B53
:103D2000EDD02068012384F83C300368DB075EBFD8
:103D3000036843F001030360036823F40063036036
:103D4000222384F83D30402384F83E30002323644E
:103D50000E9B6362BDF83C306385638D2385624BA7
:103D6000E3622946CDE900764B4642462046FFF7FE
:103D7000FDFD054608B10125C2E7228D2368B2B9D1
:103D800002905A6902929A690292029A1A6842F45F
:103D900000721A60DFF85481238D002B2CD1202271
:103DA00084F83D2084F83C3084F83E30A8E7012AAE
:103DB0000AD11A6822F480621A6003905A69039249
:103DC0009A690392039AE1E7022A0ED11A6822F453
:103DD00080621A601A6842F400621A6004905A699C
:103DE00004929B690493049BD4E705905A69059259
:103DF0009B690593059BCDE7032B56D8012B15D165
:103E0000324639462046FFF7DDFC0028B3D123684F
:103E10001A69636A1A70636A01336362238D013B16
:103E20002385638D013B9BB26385B5E7022B00962A
:103E30003B464FF000024146204619D1FFF755FCA2
:103E4000002898D123681A6842F400721A601A692F
:103E5000636A1A70626A531C6362238D013B238577
:103E6000638D013B9BB2638523681B695370D2E766
:103E7000FFF73BFC00287FF47EAF23681A6822F42A
:103E800080621A601A69636A1A70636A0096013365
:103E90006362238D013B2385638D013B9BB2638568
:103EA00002463B4641462046C8E732463946204650
:103EB000FFF788FC00287FF45EAF23681A69636A05
:103EC0001A70626A531C6362238D013B2385638DE4
:103ED000013B9BB263852368596949077FF55CAF55
:103EE000C3E700BF020010000000FFFF0400010054
:103EF00010B590F83D30202BDCB216D1242380F889
:103F00003D3003681A6822F001021A605A6A22F0F2
:103F100010025A625A6A114359621A6842F0010249
:103F20001A6080F83D40002010BD0220FCE730B54B
:103F300090F83D30202BDCB216D10268242380F8A3
:103F40003D30136823F001031360556A4FF6F07398
:103F50002B400B439BB25362136843F00103136081
:103F600080F83D40002030BD0220FCE70068D1F819
:103F700000C0D201843283182DE9F043C6685D6821
:103F80004C68D1F8189005F470455D60C5680CF177
:103F90000107C5F30B45C6F30B463D44264445EAED
:103FA00006455D60C568CE68C5F30A052E449D6868
:103FB00005F470459D60C7688D68C7F30A07013531
:103FC0003D4445EA06459D601D690E6925F00705DB
:103FD0001D614FF0000E1E619D6991F8327091F8DD
:103FE0003180C3F818E091F8305045EA096545EA98
:103FF000082545EA07459D615D6925F0FF055D617E
:104000004D695D61DD6925F4E06525F00705DD6139
:10401000D1E907573D43DD619D6A4D6AC3F828E049
:104020009D621EB3012E23D0B51E022D22D9072E6C
:104030000CBF02250125DE6A06F0E026DE62A4EB55
:104040000C048E6AC96A6C436E43033444EA064426
:10405000DC621C6B24F4FF6424F007041C63196306
:10406000835843F001038350BDE8F0830425E2E761
:104070000325E0E70225DEE738B50446002863D0D3
:1040800090F8A13003F0FF021BB980F8A020FDF7E3
:10409000C3FC022384F8A13023689A6922F070429D
:1040A0009A61D4E901200243E068996902432069DA
:1040B00002430A439A619A68244960690A409A60F7
:1040C0009A6842EA0042A06902439A60DA68E069AD
:1040D0000A40DA60DA6842EA0042206A0243DA60A3
:1040E0001A69606A0A401A611A6942EA0042A06AC3
:1040F00002431A615A69114059615A69E16A42EAF8
:104100000142216B0A435A61D96A94F8360094F847
:10411000355001F07F41D962D96A94F834200A43BE
:1041200042EA052242EA0042DA625A6B42F0060293
:104130005A639A6942F001029A6100200123C4F88F
:10414000A40084F8A13038BD0120FCE700F800F09D
:1041500070477047036870B59E6B5D6B72070446CD
:1041600014D5690712D55A6B22F004025A6304224F
:10417000DA63D0F8A43043F00103C0F8A430002380
:1041800080F8A12080F8A030FFF7E2FFB20716D533
:10419000AB0714D523685A6B22F002025A6302223D
:1041A000DA63D4F8A4301343C4F8A430042384F8A9
:1041B000A130002384F8A0302046FFF7C9FFF007A4
:1041C00010D5E9070ED523685A6B22F001025A6315
:1041D0000122DA63002384F8A12084F8A03020466D
:1041E000FCF760FF320711D52B070FD523685A6BF8
:1041F00022F008025A630822DA63012384F8A1300E
:10420000002384F8A0302046FFF7A3FF70BD2DE9FE
:10421000F04190F8A030012B06460F4694464FF02F
:1042200002001FD04FF0010886F8A08086F8A10098
:1042300034240D4604FB02640FCD38340FC40FCD77
:104240000FC40FCD0FC42B68236030466246394639
:10425000FFF78CFE33680020C3F8248086F8A18025
:1042600086F8A000BDE8F08190F8A030012B4FF057
:10427000020312D080F8A13003685A6B22F00102C9
:104280005A63074A11645A6B42F001025A630123D0
:1042900080F8A130002380F8A0301846704700BF96
:1042A000006801402DE9F341044640B30368DD078F
:1042B00010D4236898075ED423681A0700F1A08001
:1042C00023685B0700F1C080A069002840F02881C6
:1042D00000202BE08F4B9A6802F00C02042A07D0D2
:1042E0009A6802F00C02082A0BD15A68510208D5CC
:1042F000884B1B689A03DCD56368002BD9D1012059
:1043000014E06268B2F5803F13D11A6842F480323B
:104310001A60FEF753FF7F4E054633689B03C8D4EF
:10432000FEF74CFF401B6428F7D9032002B0BDE81C
:10433000F081784DB2F5A02F2B6807D143F480238C
:104340002B602B6843F480332B60E2E723F4803347
:104350002B602B6823F480232B60002AD9D1FEF731
:104360002DFF06462B689F03A3D5FEF727FF801B72
:104370006428F7D9D9E7674B9A6812F00C0F07D079
:104380009A6802F00C02082A11D15B685E020ED412
:10439000604A13689D0702D5E368012BAFD113680B
:1043A000216923F0F80343EAC103136084E7E2685C
:1043B000594BB2B101221A60FEF700FF554D064677
:1043C0002B68980707D52B68226923F0F80343EA86
:1043D000C2032B6070E7FEF7F1FE801B0228EFD9C5
:1043E000A3E71A60FEF7EAFE4A4E054633689907CE
:1043F0007FF562AFFEF7E2FE401B0228F6D994E794
:104400006269454B82B10122C3F8802EFEF7D6FEC9
:10441000404E0546736F9F073FF552AFFEF7CEFE45
:10442000401B0228F6D980E7C3F8802EFEF7C6FEAF
:10443000384E0546736F98077FF542AFFEF7BEFE14
:10444000401B0228F6D970E7324B1A6C12F08052EA
:1044500028D101921A6C42F080521A641B6C03F04E
:1044600080530193019B01272C4D2B68D9051BD547
:10447000A368284D012B27D12B6F43F001032B6735
:10448000FEF79CFE234E054641F28838336F9B07AA
:1044900039D5002F3FF418AF1E4A136C23F0805318
:1044A000136411E70027DFE72B6843F480732B6068
:1044B000FEF784FE06462B68DA05D9D4FEF77EFEA9
:1044C000801B0228F7D930E7052B04D12B6F43F06E
:1044D00004032B67D0E72A6F22F001022A672A6FB4
:1044E00022F004022A67002BCAD1FEF767FE41F2D0
:1044F000883806462B6F9807CBD5FEF75FFE801BEA
:104500004045F7D911E7FEF759FE401B4045BDD99C
:104510000BE700BF00380240000047420070004037
:10452000334DAB6803F00C03082B3DD0314B002218
:1045300002281A662BD1FEF741FE06462B68990128
:104540001FD4D4E907321343626A43EA8213E26A52
:1045500043EA0263A26A5208013A43EA02436B60EB
:10456000244B234D01221A66FEF728FE04462B68D1
:104570009A013FF5ADAEFEF721FE001B0228F6D9E9
:10458000D3E6FEF71BFE801B0228D7D9CDE6FEF747
:1045900015FE04462B689B017FF59AAEFEF70EFED2
:1045A000001B0228F6D9C0E601283FF4BFAE6B68B5
:1045B000E26903F4800191427FF4A1AE216A03F025
:1045C0003F028A427FF49BAE616A47F6C0721A408E
:1045D0008A427FF494AEA16A03F440328A427FF4A7
:1045E0008EAEE26A03F0706393423FF471AE86E6EA
:1045F0000038024000004742134908B58B6803F0B9
:104600000C03042B1CD0082B1CD14A684B6849684A
:1046100013F4800314BF0D480D48C1F3881118BF6F
:10462000002302F03F02A1FB0001FBF731FE064B25
:104630005B68C3F3014301335B00B0FBF3F008BDDB
:104640000248FCE70248FAE70038024000127A000C
:104650000024F4002DE9F0410D46044610B9012074
:10466000BDE8F081444B1A6802F00F028A4228D359
:10467000226897072DD4D00741D43F4B1A6802F027
:104680000F02AA4266D8226851076CD4130707D5D7
:104690003A4A2169936823F4604343EAC103936073
:1046A000FFF7AAFF354B364A9B68C3F30313D35C6D
:1046B000D840344B1860344B1868FDF795FB002048
:1046C000CEE7CAB21A701B6803F00F038B42C6D143
:1046D000CEE72A4B12F0040F1EBF996841F4E05157
:1046E0009960160742BF996841F460419960234977
:1046F000A0688B6823F0F00303438B60BBE762681C
:104700001E4B012A1CD11B6813F4003FA7D01B4E7F
:10471000B36823F003031343B360FEF74FFD41F288
:1047200088380746B368626803F00C03B3EB820F66
:10473000A3D0FEF743FDC01B4045F3D903208FE70C
:10474000911E01291B6802D813F0007FDEE713F0E9
:10475000020FDBE7EAB21A701B6803F00F03AB42EB
:104760007FF47DAF8FE70549E0688B6823F4E05361
:1047700003438B608AE700BF003C024000380240E0
:1047800090D70108740000207C000020044B054AEB
:104790009B68C3F38223D35C034A1068D8407047F8
:1047A00000380240A0D7010874000020044B054ADD
:1047B0009B68C3F34233D35C034A1068D840704708
:1047C00000380240A0D70108740000200F230360C6
:1047D0000B4B9A6802F0030242609A6802F0F00202
:1047E00082609A6802F4E052C2609B68DB0803F4BE
:1047F000E0530361034B1B6803F00F030B6070472A
:1048000000380240003C0240036813F0430FF7B544
:10481000044640F08C80236813F00C0F45D08B4B7E
:104820008B4D00221A67FEF7C9FC06462B689F00D5
:1048300000F1CF8021684E0715D5D4E90403D5F8DF
:1048400088201B0602F0E04243EA80131343C5F8B8
:104850008830D5F88C30226A23F4F853013A43EAC1
:104860000223C5F88C300D0714D5794AA369D2F814
:10487000881020691B0701F0706143EA80130B4325
:10488000C2F88830D2F88C30616A23F440330B438D
:10489000C2F88C306D4B6E4E01221A67FEF78EFC0B
:1048A00005463368980040F19B8023689B0633D50A
:1048B00000230193664B674D1A6C42F080521A64D4
:1048C0001B6C03F080530193019B2B6843F48073AE
:1048D0002B60FEF773FC06462B68D90540F18780F4
:1048E0005B4D2B6F13F4407340F08880A36A03F490
:1048F0004072B2F5407F564A40F0A480916823F0A0
:10490000704021F4F81120F4407001439160116F60
:10491000C3F30B030B431367206810F010001FBF95
:104920004D4B94F82C20C3F8E02100204FE0474B7A
:10493000474E00229A66FEF741FC054633681F0188
:104940003FD42168CD0741BFD4E901231B0743EAC7
:104950008213C6F88430880715D53D4AE368D2F83B
:10496000840065681B0600F0E04043EA85130343BA
:10497000C2F88430D2F88C00E36920F01F00013BBC
:104980000343C2F88C3049060AD5E36862681B0607
:1049900043EA8213A26843EA02732D4AC2F88430C4
:1049A0002A4B2B4E01229A66FEF708FC0546336817
:1049B0001A013FF530AFFEF701FC401B0228F6D983
:1049C00004E0FEF7FBFB401B0228B7D9032003B02D
:1049D000F0BDFEF7F3FB801B02287FF627AFF5E75B
:1049E000FEF7ECFB401B02287FF65BAFEEE7FEF71D
:1049F000E5FB801B02287FF66FAFE7E7A26A02F4AF
:104A0000407293423FF472AF2B6F104A0121C2F8FB
:104A1000401E23F440730021C2F8401E2B672B6F09
:104A2000DA077FF563AFFEF7C9FB41F28837064628
:104A30002B6F9B073FF55AAFFEF7C0FB801BB842B8
:104A4000F6D9C3E7916821F4F8115FE70000474207
:104A500000380240007000400010474238B50D4653
:104A60000446C8B190F82C3003F0FF021BB980F85F
:104A70002D20FDF74DF9022384F82C30211D2068EC
:104A800001F028F862682068294601F059F80123EE
:104A900084F82C30002038BD0120FCE738B590F8B0
:104AA0002C30022B04460D46D8B20DD0022384F8D8
:104AB0002C30206801F080F82B68022B0CBF0523F6
:104AC000012384F82C30002038BD10B590F82C302C
:104AD000022B0446D8B209D0022384F82C30206877
:104AE00001F091F8012384F82C30002010BDF8B5B6
:104AF00004460E4615461F462268936836EA0303AD
:104B000001D000202DE06B1CF7D0FEF757FBC01B37
:104B10008542F1D823685A6822F0E0025A60626840
:104B2000B2F5827F0AD1A268B2F5004F02D0B2F589
:104B3000806F03D11A6822F040021A60A26AB2F5AF
:104B4000005F07D11A6822F400521A601A6842F412
:104B500000521A60012384F85130002384F8503049
:104B60000320F8BD38B513464268B2F5827F04468B
:104B70001FD18268B2F5004F02D0B2F5806F07D125
:104B800025682868B2F5806F20F04000286007D0C3
:104B90000A4680212046FFF7AAFF20B9002038BD31
:104BA0000A460121F6E7636D43F0200363650320A5
:104BB000F5E70A460121EEE737B51346124A1568B4
:104BC000124AB5FBF2F54FF47A72554342680195EB
:104BD000B2F5827F04460BD10A468021FFF787FF9A
:104BE00078B1636D43F020036365032003B030BDEB
:104BF000019B33B1019B013B019323689B681B061A
:104C0000F6D40020F2E700BF7400002000366E01E9
:104C100010B50446002836D00023836290F8513046
:104C200003F0FF021BB980F85020FCF7BBFF21689E
:104C3000A269022384F851300B6823F040030B6013
:104C4000D4E901300343E06803432069034360690A
:104C50000343E0690343206A0343A06A034302F469
:104C6000007003430B60120C636A02F004021A43E3
:104C70004A60CB6923F40063CB61002001236065A7
:104C800084F8513010BD0120FCE72DE9F3411E46A8
:104C900090F85030012B04460D46174600F09D80D9
:104CA000012380F85030FEF789FA94F85130012B37
:104CB0008046D8B240F08F80002D5AD0002F58D0B7
:104CC000032384F85130A268256300236365C4E997
:104CD0001033E786A363E387A3872368A786B2F52B
:104CE000004F08BF1A68E16804BF42F480421A60AE
:104CF0001A6852065EBF1A6842F040021A60B1F5A7
:104D0000006F626841D10AB1012F07D135F8022B3B
:104D1000DA602563E38E013B9BB2E386E38E9BB2B0
:104D2000A3B9424631462046FFF746FF00284FD13F
:104D3000A36833B901932368DA6801929B680193F1
:104D4000019B606D003818BF012012E02268936853
:104D5000980705D5236B33F8021BD1602363D9E78D
:104D6000FEF72CFAA0EB0800B0420BD3711CD5D093
:104D70000320012384F85130002384F8503002B01E
:104D8000BDE8F081002EC9D1F2E70AB1012F08D1A8
:104D90002A781A73236B01332363E38E013B9BB2A2
:104DA000E386E38E9BB2002BBBD023689A68920700
:104DB00002D5226B1278ECE7FEF700FAA0EB0800B0
:104DC000B04202D3731CECD0D2E7002EE9D1CFE77A
:104DD00020236365ACE70220CBE70220CFE72DE973
:104DE000F7431E4690F850300A9F012B04460D46AB
:104DF000914600F0E680012380F85030FEF7DEF99E
:104E000094F851306268012B8046D9B20AD0B2F5CD
:104E1000827F40F0D480A368002B40F0D08004292A
:104E200040F0CD80002D40D0B9F1000F3DD0002ED4
:104E30003BD094F85130C4F83890042B1CBF0523A4
:104E400084F8513000236365C4E910332368E68792
:104E5000E6861968A687490658BF1968256358BFB2
:104E600041F04001A68658BF1960E168B1F5006FB6
:104E700052D10AB1012E07D135F8022BDA60E38E48
:104E80002563013B9BB2E3860125E38E9BB273B998
:104E9000E38F9BB25BB9424639462046FFF78CFE52
:104EA000002800F081802023636501202BE0216829
:104EB0008B689E070DD5E38E9BB253B14DB1236B2A
:104EC00033F8022BCA602363E38E013B9BB2E38677
:104ED00000258A6812F001020CD0E38F9BB24BB11F
:104EE000A36BC96823F8021BA363E38F013B9BB24A
:104EF000E3871546FEF762F9A0EB0800B842C4D379
:104F0000781CC2D00320012384F85130002384F898
:104F1000503003B0BDE8F0830AB1012E08D12A78E1
:104F20001A73236B01332363E38E013B9BB2E38649
:104F300001252DE02268936899070ED5E38E9BB278
:104F40005BB155B1236B1B781373236B0133236360
:104F5000E38E013B9BB2E38600252268916811F045
:104F600001010DD0E38F9BB253B1A36BD2681A70CD
:104F7000A36B0133A363E38F013B9BB2E3870D4631
:104F8000FEF71CF9A0EB0800B8420AD37B1CB9D18C
:104F9000E38E9BB2002BCDD1E38F9BB2002BC9D106
:104FA00079E7002FF4D1ADE7A368002BABD12368DC
:104FB0000190DA6801929B680193019BA3E70220AC
:104FC000A1E70220A5E72DE9F7431D464368B3F5A5
:104FD000827F0446894617460CD1836853B904235F
:104FE00080F85130134600950A46FFF7F8FE03B0EB
:104FF000BDE8F08394F85030012B00F08480012349
:1050000084F85030FEF7DAF894F85130012B8046DE
:10501000D8B276D1B9F1000F5AD0002F58D0A2687B
:10502000C4F83890042384F851300026236866655C
:10503000B2F5004FE787E68608BF1A68266308BF07
:1050400022F48042C4E91066A686A78708BF1A60CA
:105050001A6856065EBF1A6842F040021A60E3689A
:10506000F3B1E38F9BB2FBB123689A68D20739D5BD
:10507000DA68A36B23F8022BA363E38F013B9BB297
:10508000E387EEE723689A68D00718D5A26B1B7BED
:105090001370A36B0133A363E38F013B9BB2E387E0
:1050A000E38F9BB2002BEDD1424629462046FFF705
:1050B00059FD18BB606D003818BF012008E0FEF7ED
:1050C0007DF8A0EB0800A84209D3691CE8D00320B2
:1050D000012384F85130002384F8503087E7002DF5
:1050E000DED1F4E7FEF76AF8A0EB0800A84202D38D
:1050F0006B1CB6D0EBE7002DB3D1E8E72023636546
:10510000D8E70220E4E7022071E70000036A23F0F9
:1051100001030362036A70B5446882690D6822F076
:1051200073022A438D6823F002032B430E4DA842DD
:1051300002D00E4EB04210D1CE6823F008033343A4
:10514000A84223F0040302D0084DA84205D1D1E9BA
:10515000055624F4407435432C43446082614A6808
:105160004263036270BD00BF0000014000040140C3
:10517000036A23F480730362036A70B54468C269EA
:105180000D6822F073022A438D6823F4007343EA0A
:105190000523114DA84203D005F58065A84214D11E
:1051A000CD6823F4006343EA05230B4DA84223F4A2
:1051B000806303D005F58065A84206D1D1E9055684
:1051C00024F44054354344EA05144460C2614A68FB
:1051D000C263036270BD00BF00000140036A23F494
:1051E00080530362036A30B54468C2690D6822F4D3
:1051F000E64242EA05228D6823F4005343EA053370
:10520000084DA84203D005F58065A84204D14D6938
:1052100024F4804444EA85144460C2614A6802640C
:10522000036230BD000001400368DA6842F0010209
:10523000DA609A6802F00702062A1EBF1A6842F076
:1052400001021A600020704770477047704770472E
:10525000704703681A69910710B504460ED5DA68DD
:1052600092070BD56FF002021A61012202779B6947
:105270009B0777D0FFF7EAFF0023237723681A699B
:10528000500710D5DA6851070DD56FF004021A6186
:10529000022222779B6913F4407F204668D0FFF7F3
:1052A000D5FF0023237723681A6912070FD5DA6820
:1052B00010070CD56FF008021A6104222277DB690F
:1052C000990720465AD0FFF7C1FF002323772368B0
:1052D0001A69D20610D5DA68D0060DD56FF0100223
:1052E0001A6108222277DB6913F4407F20464BD0F5
:1052F000FFF7ACFF0023237723681A69D10708D58D
:10530000DA68D20705D56FF001021A612046FCF772
:10531000C3FA23681A69100608D5DA68110605D59C
:105320006FF080021A61204600F097F923681A692D
:10533000520608D5DA68500605D56FF040021A61AA
:105340002046FFF785FF23681A69910622D5DA689F
:1053500092061FD56FF0200220461A61BDE810406A
:1053600000F07AB9FFF771FF2046FFF770FF83E77F
:10537000FFF76BFF2046FFF76AFF92E7FFF765FF35
:105380002046FFF764FFA0E7FFF75FFF2046FFF727
:105390005EFFAFE710BD0000304A0368904212D0B4
:1053A000B0F1804F0FD0A2F57C4290420BD002F5B5
:1053B0008062904207D002F58062904203D002F5ED
:1053C0007842904219D14A6823F070031343234A6C
:1053D000904229D0B0F1804F26D0A2F57C42904275
:1053E00022D002F5806290421ED002F58062904287
:1053F0001AD002F57842904216D0194A904213D042
:1054000002F5806290420FD002F5806290420BD08C
:10541000A2F59832904207D002F58062904203D004
:1054200002F58062904203D1CA6823F440731343AB
:105430004A6923F08003134303608B68C3620B68DF
:105440008362064B984203D003F58063984201D1F2
:105450000B69036301234361704700BF00000140F3
:105460000040014010B50446A0B190F83D3003F073
:10547000FF021BB980F83C20FCF7CAFB022320681E
:1054800084F83D30211DFFF787FF012384F83D306C
:10549000002010BD0120FCE710B50446A0B190F833
:1054A0003D3003F0FF021BB980F83C20FFF7CCFE33
:1054B0000223206884F83D30211DFFF76DFF012392
:1054C00084F83D30002010BD0120FCE7036A23F082
:1054D00010030362036A70B5446882690D6822F4A0
:1054E000E64242EA05228D6823F0200343EA0513D1
:1054F000104DA84203D005F58065A84214D1CD68AF
:1055000023F0800343EA05130A4DA84223F0400329
:1055100003D005F58065A84206D1D1E9055624F4EB
:105520004064354344EA8504446082614A6882638A
:10553000036270BD0000014038B590F83C30012B8B
:1055400004464FF0020010D00123082A84F83C30B2
:1055500084F83D003FD009D8DAB1042A2AD00123CB
:10556000002084F83D3084F83C0038BD0C2AF6D188
:105570002068FFF733FE23680969DA6942F40062A4
:10558000DA61DA6922F48062DA61DA6942EA0122D8
:1055900030E02068FFF7BAFD236809699A6942F094
:1055A00008029A619A6922F004029A619A690A4390
:1055B0009A61D4E72068FFF789FF236809699A692F
:1055C00042F400629A619A6922F480629A619A694F
:1055D00042EA0122ECE72068FFF7CAFD2368096967
:1055E000DA6942F00802DA61DA6922F00402DA616B
:1055F000DA690A43DA61B2E7036A01F01F0110B504
:1056000001248C4023EA04030362036A8A401A439C
:10561000026210BD10B5044601220068FFF7ECFFDE
:1056200023680B4A934203D002F58062934203D170
:105630005A6C42F400425A649A6802F00702062A41
:105640001EBF1A6842F001021A60002010BD00BFA0
:1056500000000140FFF7DEBF704770470368DA685B
:1056600022F49072DA605A6922F001025A61202312
:1056700080F83A307047000038B50368C1681A698D
:10568000044622F440520A431A612569A268D96887
:10569000C0692A43656921F416412A4321F00C01AF
:1056A00002430A43DA605A69A16922F440720A434C
:1056B000B0F5004F5A61254A28D1934203D002F534
:1056C000806293421FD1FFF771F862681921921826
:1056D0004FF000035B41A0FB0101FAF7D9FD642103
:1056E000B0FBF1F501FB1503DB003233B3FBF1F343
:1056F00003F007025B00216802EB051203F4F87364
:1057000013448B6038BDFFF741F8DEE7934202D0C7
:105710000F4A934217D1FFF749F8636819219A009D
:10572000A0FB01019B0FFAF7B3FD6422B0FBF2F17D
:1057300002FB110324681B013233B3FBF2F303EBCA
:105740000113A360DEE7FFF721F8E6E70010014050
:1057500000140140F8B504460E4617461D4622685F
:10576000136836EA030301D1002014E06B1CF7D064
:1057700095B92368DA6822F4D072DA605A6922F0A7
:1057800001025A61202384F8393084F83A3000232A
:1057900084F838300320F8BDFDF710FDC01B8542AA
:1057A000DDD2E6E710B5044640B390F8393003F097
:1057B000FF021BB980F83820FCF76CFA226824231A
:1057C00084F83930D36823F40053D3602046FFF7C0
:1057D00053FF23681A6922F490421A615A6922F031
:1057E0002A025A61DA6842F40052DA60002020236B
:1057F000E06384F8393084F83A3010BD0120FCE7CA
:10580000F7B5164690F839200093202A04460D4635
:1058100050D100294CD0002E4AD090F83820012ACF
:1058200048D0012280F8382000272122C76380F861
:105830003920FDF7C3FC009BA6840246E68484F869
:105840003870E18C89B241B940212046FFF782FFD0
:10585000A8B9202384F8393012E0E18C013989B2EB
:10586000E184A168B1F5805FCDE900234FF08001AC
:10587000204612D1FFF76EFFDDE9002310B10320AF
:1058800003B0F0BD29882068C1F308014160216997
:1058900009B90235D5E70135D3E7FFF75BFF0028EB
:1058A000EDD1216815F8010B4860DDE90023C8E758
:1058B0000120E5E70220E3E790F83A30202B20D1E1
:1058C000E9B1E2B190F83830012B1AD0C285828557
:1058D00000232222C36380F83A20026880F838301F
:1058E0008162D16841F48071D160516941F0010158
:1058F0005161D16841F02001D16018467047012004
:10590000704702207047704790F83A30222B10B54C
:1059100024D1816804690268836AB1F5805F22D16D
:105920005268E4B9C2F3080223F8022B8362C38DE4
:10593000013B9BB2C3858BB90368DA6822F0200271
:10594000DA60DA6822F48072DA605A6922F00102C1
:105950005A61202380F83A30FBF752FC10BDD2B2D6
:1059600023F8012BE2E7591C526881620CB91A70C6
:10597000DDE702F07F02FAE77047000003681A686B
:10598000D96870B516075D69044607D196065CD5DF
:105990008D065AD5BDE87040FFF7B6BF05F001008F
:1059A00001F49075054350D0D60705D5CD0542BF0B
:1059B000E36B43F00103E363530704D518B1E36BD2
:1059C00043F00203E363960704D518B1E36B43F099
:1059D0000403E363150707D501F0200303431EBF4B
:1059E000E36B43F00803E363E36B4BB3900604D52A
:1059F000890602D52046FFF787FF23685B69E56BC0
:105A000003F0400305F008051D43204619D0FFF7B9
:105A100025FE23685A6952060FD55A69606B22F039
:105A200040025A6148B1264B0365FDF743FC38B18B
:105A3000606BBDE87040036D18472046FFF79CFF80
:105A400070BDFFF799FFE563FAE7160628D50D0646
:105A500026D594F83920212AF2D1A168226AB1F51D
:105A6000805F18D11188C1F308015960216981B99B
:105A700002322262E28C013A92B2E284002ADFD141
:105A8000DA6822F08002DA60DA6842F04002DA6016
:105A9000D6E70132EDE7511C216212785A60E9E73E
:105AA0005006CDD54A06CBD5DA6822F04002DA603E
:105AB000202384F839302046FFF725FFC0E700BFD8
:105AC000C55A000808B5806B0023C385C384FFF75F
:105AD00053FF08BD2DE9F0414A6AD1E90743D1E9F6
