:020000040800F2
:1000000000000320C9880008312D0008332D0008A6
:10001000352D0008372D0008392D0008000000009C
:10002000000000000000000000000000D180000877
:100030003B2D00080000000061810008C581000818
:100040001989000819890008198900081989000808
:1000500019890008198900081989000819890008F8
:1000600019890008198900081989000819890008E8
:1000700019890008198900081989000819890008D8
:1000800019890008198900081989000819890008C8
:1000900019890008198900081989000819890008B8
:1000A00019890008198900081989000819890008A8
:1000B0001989000819890008198900081989000898
:1000C0001989000819890008198900081989000888
:1000D000198900083D2D00081989000819890008B0
:1000E0001989000819890008198900081989000868
:1000F0001989000819890008198900081989000858
:100100001989000819890008198900081989000847
:100110001989000819890008492D00081989000863
:100120001989000819890008198900081989000827
:100130001989000819890008198900081989000817
:100140001989000819890008198900081989000807
:1001500019890008198900081989000819890008F7
:1001600019890008198900081989000819890008E7
:100170001989000819890008198900080000000081
:1001800019890008198900081989000819890008C7
:1001900019890008198900081989000819890008B7
:0C01A000552D000819890008612D000889
:1001B00010B5054C237833B9044B13B10448AFF3A1
:1001C00000800123237010BD6001002000000000AA
:1001D00004C4010808B5034B1BB103490348AFF33E
:1001E000008008BD000000006401002004C4010874
:1001F00053B94AB9002908BF00281CBF4FF0FF318E
:100200004FF0FF3000F072B9ADF1080C6DE904CE8B
:1002100000F006F8DDF804E0DDE9022304B07047E1
:100220002DE9F047089E04468846002B4BD18A42B0
:10023000154667D9B2FA82F24AB1C2F1200701FA33
:1002400002F320FA07F7954047EA030894404FEA83
:10025000154E230CB8FBFEF71FFA85FC0EFB178822
:1002600043EA084307FB0CF1994209D9EB1807F15F
:10027000FF3080F01B81994240F21881023F2B44ED
:100280005B1AA4B2B3FBFEF00EFB103344EA034446
:1002900000FB0CFCA44509D92C1900F1FF3380F0B8
:1002A0000781A44540F2048102382C4440EA07400B
:1002B000A4EB0C0400271EB1D4400023C6E9004380
:1002C0003946BDE8F0878B4209D9002E00F0EB805B
:1002D0000027C6E9000138463946BDE8F087B3FA81
:1002E00083F7002F47D18B4202D3824200F2FA807B
:1002F000841A61EB030301209846002EE0D0C6E982
:100300000048DDE702B9FFDEB2FA82F2002A40F0CF
:100310008F80491B4FEA154E1FFA85F80127B1FB64
:10032000FEFC230C0EFB1C1143EA014308FB0CF1FD
:10033000994207D9EB180CF1FF3002D2994200F232
:10034000CD808446591AA3B2B1FBFEF00EFB101407
:1003500043EA044408FB00F8A04507D92C1900F132
:10036000FF3302D2A04500F2B6801846A4EB080481
:1003700040EA0C409FE7C7F1200CBB4022FA0CFE7C
:100380004EEA030E01FA07F420FA0CF521FA0CF3F9
:100390004FEA1E482543B3FBF8F92C0C08FB193330
:1003A0001FFA8EFA44EA034309FB0AF49C4202FA5C
:1003B00007F200FA07F10BD91EEB030309F1FF3036
:1003C00080F087809C4240F28480A9F10209734446
:1003D0001B1BADB2B3FBF8F008FB103345EA034436
:1003E00000FB0AFAA24508D91EEB040400F1FF3312
:1003F0006BD2A24569D90238744440EA0940A0FB97
:100400000289A4EB0A044C45C2464B4654D351D052
:10041000002E69D0B1EB0A0564EB030404FA0CFC6E
:10042000FD40FC404CEA0505C6E90054002747E7BB
:10043000C2F1200320FA03F7954001FA02F021FAF5
:1004400003F34FEA154E3843010CB3FBFEF71FFAD6
:1004500085F80EFB173341EA034107FB08F38B4293
:1004600004FA02F407D9691807F1FF3C2FD28B4236
:100470002DD9023F2944CB1A81B2B3FBFEF00EFB0B
:10048000103341EA034100FB08F38B4207D9691896
:1004900000F1FF3C17D28B4215D902382944C91A02
:1004A00040EA07473BE73746304609E70746E7E6B5
:1004B0001846FBE64145ABD2B8EB020A69EB0E02E7
:1004C00001381346A4E76046E9E7184695E7674612
:1004D000D1E781467CE702382C4447E7ACF1020CB7
:1004E0002B442FE7384608E73746E9E6704700BF58
:1004F000034613F8012B002AFBD1181A0138704764
:1005000001F0FF01102A2BDB10F0070F08D010F8C4
:10051000013B013A8B422DD010F0070F42B3F6D1C8
:10052000F0B441EA012141EA014122F007047FF0E1
:1005300000070023F0E80256083C85EA010586EA38
:10054000010685FA47F5A3FA87F586FA47F6A5FA74
:1005500087F68EB9EED1F0BC01F0FF0102F0070280
:1005600032B110F8013B013A83EA010313B1F8D12B
:100570000020704701387047002D06BF354603380C
:10058000073815F0010F07D1013015F4807F02BF45
:10059000013015F4C03F0130F0BC0138704700BF96
:1005A0007047704770477047704700F009B910B541
:1005B0004FF4447104461AF01BFF204610BD0000A2
:1005C00010B5044600F02AFA014B2360204610BD06
:1005D00064C401087047704704387047704710B50D
:1005E000102104461AF004FF204610BDA0F10400BB
:1005F000F5E7000010B500228260044AC16002F1F4
:10060000080420320460426010BD00BF90C401089D
:10061000002202607047000010B5054C2368012BD2
:1006200005D1006803689B6898470023236010BDCC
:1006300090150020704700F596730868496803C359
:100640007047704700F0F8BB10B54FF4AC7104462A
:100650001AF0CEFE204610BD10B50446D0F8540165
:10066000FFF7DAFF2046BDE810400CF02FBB10B5B5
:100670000446D0F83C0158B10368DB68984738B1AC
:10068000D4F83C0103689B6898470023C4F83C31C8
:1006900010BD000010B5044600F096FB014B23602E
:1006A000204610BDC4C40108704704387047704725
:1006B000C0680368DB6A1847A0F10400FFF7F8BFC1
:1006C00010B5102104461AF093FE204610BDA0F18B
:1006D0000400F5E710B500228260044AC16002F10F
:1006E000080424320460426010BD00BF08C5010840
:1006F0007047704700F067BD38B50B4C0546204683
:10070000FFF7F6FE214682B205F5907098350EF09F
:100710009FFF28460AF0E8FA28460DF0C0FB0023A8
:1007200023606360238138BDA82C012010B54FF4ED
:10073000A27104461AF05CFE204610BD10B50446B6
:1007400000F0D6FD014B2360204610BD40C50108D6
:1007500090F8252012B103685B69184770470020A4
:10076000704781807047C180704701817047418127
:10077000704770477047704770477047C38810B420
:10078000D21A83885DF8044BC91A036812B25B6DF4
:1007900009B218474FF6FF7383814FF0FF330362AE
:1007A0001368C361106070477047704790F8252048
:1007B0001AB190F8242002B1186070477047704752
:1007C00070477047704770B4C66845687410034638
:1007D000F60705EB04009B6844BF2C59E35870BC36
:1007E000184743682BB183682BB9C06800F001003B
:1007F0007047184670470120704730B4C568446898
:100800006A100346ED0704EB02009B6848BFA2583C
:1008100030BC48BFD358184743682BB183682BB905
:10082000C06800F00100704718467047012070470B
:1008300010B5082104461AF0DBFD204610BD10B5A6
:10084000102104461AF0D4FD204610BD10B5102129
:1008500004461AF0CDFD204610BD10B54FF444718A
:1008600004461AF0C5FD204610BD00F1FC038B4282
:1008700003D1B0F82C0101F0ABBE704708B500F110
:100880006C0399421AD100220421184804F0BEFBDF
:100890004FF47A7005F0C8F901220421134804F0DE
:1008A000B5FB134B186806F069FA642005F0BCF933
:1008B0004FF4FA60BDE8084001F08ABE00F1B403CD
:1008C000994208D10A4B186806F05EFC642005F0D6
:1008D000ABF90020EEE700F52D70814205D10CF058
:1008E00047FBBDE8084000F0B7BA08BD0008024069
:1008F000542D012070B5036804461B6B15469847BC
:100900002368294620465B6BBDE87040184770B5E8
:1009100004461E46BDF91050FFF7ECFF2368314630
:1009200020469A6B9047236829462046DB6BBDE83A
:1009300070401847F8B51A4B018F1B888B4206464A
:100940002AD9184B1B682BB9174B184A18486C2129
:100950001AF05AFD13F81120164B1B6853F8225059
:10096000154B186800F0D8FF2B68074601469B6AB4
:10097000284698472B6804461B6C394628469847FA
:100980002B6814FB00F45B6A394628469847E4B2AA
:10099000204486F84500F8BD002380F84530FAE78A
:1009A000642B0120602B0120B0C5010868C6010836
:1009B000F2C50108682B01206C2B012010B5012124
:1009C00080F82510134901601349816200224FF617
:1009D000FF714FF47F048280C28002814281828154
:1009E000C28102824282C0E90522C261028442843D
:1009F00080F8242081850263446380F8382080F8E1
:100A000039208287C287A0F84010A0F842104264C3
:100A100010BD00BF14D8010878C501082DE9F04FBA
:100A2000044693B00DF0FEFC22460025BD4BE56365
:100A300042F8403B4FF0010384F86530BA4B236421
:100A4000FF2384F8663004F16C03A4F84450A4F842
:100A50004650A4F84850A4F84A50A4F84C50A4F8C2
:100A60004E50A4F85050A4F85250C4E91555E5650D
:100A7000A4F86050A4F8625084F86450A566184643
:100A8000069202930AF03AFD04F1B40304F1FC0863
:100A90001846039304F5FC7B0AF030FD404608F04D
:100AA00045FC04F5107A584612AEFFF787FF504612
:100AB000FFF784FF4FF6FF7326F8083D04F522790F
:100AC0003146484609F0DAFB04F52D7318460493C5
:100AD0000AF0C6FB954BC4F8F032954BC4F8F832D7
:100AE000944BC4F80033944BC4F808334FF4A0730C
:100AF000C4F8FC52C4F80C5300932A4629460698C1
:100B0000C4F8F442C4F80443F023FFF700FF4FF0A9
:100B10007F43A366029850223921FFF7EBFE4FF086
:100B2000010732460FA94FF002030298ADF83C705E
:100B3000ADF840300AF055F90423A4F8A430029827
:100B4000FFF7F8FE4FF0FF32C4E92A2204F53C72A9
:100B50000592C4F894200398B1223921FFF7CAFE08
:100B60004FF002030FA932460398ADF84030ADF8BC
:100B70003C700AF036F94FF00302A4F8EC20039819
:100B8000FFF7D8FE059BC4F8DC304FF0FF31C4E915
:100B90003C11404647220B21FFF7ACFE0623ADF87F
:100BA00038300FA905230727ADF840300A463346F1
:100BB0000EA94046ADF83C7008F014FC7D23CDE949
:100BC000005339462B464046032208F0D2FA4FF430
:100BD000FA622946404608F0F6F92946404608F0F0
:100BE00074F904F54073C4F8F431082258462321FF
:100BF000FFF780FE08AF4FF0FF31C4F82812A4F8C9
:100C00002C525946384609F00DFE97E8070004F5C6
:100C10000D7383E80700494B1093079331464FF05B
:100C200002035846ADF844300AF07EF82F225046B1
:100C30003D21FFF75FFE4FF0FF31C4F87012A4F8BA
:100C400074525146384609F0EDFD97E8070004F567
:100C50001F7C8CE80700079B10934FF0010731467B
:100C60005046ADF844700AF05FF808233146484614
:100C7000ADF840300AF01BFBD72300935B22EA2338
:100C800029464846FFF743FE2946484609F0BDFA83
:100C90007B2384F8B0320498F6223921FFF72AFE2C
:100CA0004FF003024FF00203ADF83830ADF83C20AE
:100CB000ADF840200FAB0EAA0DA904980096ADF830
:100CC00034700AF038FA4623A4F8EC321023251DBC
:100CD000A4F8EE32059BC4F8DC320699284607F0EA
:100CE00055FE0299284607F051FE0399284607F061
:100CF0004DFE4146284607F049FE5946284607F072
:100D000045FE5146284607F041FE4946284607F071
:100D10003DFE2846049907F039FE204613B0BDE891
:100D2000F08F00BF3CC60108A4D8010888C501089F
:100D30007D080008A0C501086B08000878C50108F7
:100D400070477047704741607047704701230372D6
:100D500070477047704710B4C4684168621003461A
:100D6000E40701EB02009B6848BF8A585DF8044B1A
:100D700048BFD358184743682BB183682BB9C06864
:100D800000F001007047184670470120704710B509
:100D90000C2104461AF02CFB204610BD10B54FF470
:100DA000AC7104461AF024FB204610BD10B510218A
:100DB00004461AF01DFB204610BD08B50CF0D8F80B
:100DC000BDE808400CF078BCF8B5044617460E465E
:100DD0000CF0EEF8144BC4F854611C60134E144B25
:100DE000236000253068134BC4F83851C4F83C51D7
:100DF000C4F84031C4F84451C4F84851C4F84C51C7
:100E0000C4F85071036801219B689847284600F098
:100E100049FD336893F876200AB1D86C00B9986818
:100E200013F0A7FB2046F8BD5C2B0120102B0120FE
:100E3000C4C60108ACC60108064BC0F848310023FF
:100E4000C0F84C3100F5A073C0F84401C0F83C3143
:100E5000704700BFB90F0008064BC0F848310023A7
:100E6000C0F84C3100F5A073C0F84401C0F83C3123
:100E7000704700BF211100082DE9F0470746906830
:100E8000DDF820A0994603681B6A884615469847F6
:100E9000B0F5447F05D2424B424AA32142481AF0A2
:100EA000B3FA686803681B6A98470F2803D83F4B5A
:100EB0003C4AA421F2E7E86803681B6A98470B28BC
:100EC00003D83B4B374AA521E8E70CF051F80CF06A
:100ED00055F8D9F8000010B10368DB689847D9F8D5
:100EE000000010B103681B689847386810B10368A8
:100EF0005B699847D8F8000010B103685B689847B1
:100F0000386810B103681B689847D8F8000010B122
:100F100003689B689847E868036800215B6A984704
:100F2000044620B1002343600372224B0360A8688B
:100F3000036800215B6A9847064608B1FFF740FB4B
:100F40006868036800215B6A9847054610B131461E
:100F5000FFF750FBC9F80040C8F800503E60E5B10B
:100F60002B1DCAF80030C5F808A03368F563304679
:100F7000DB6898472B6828461B689847214630460F
:100F80000DF0FCFB236820461B6998472368204628
:100F90005B6998472846BDE8F0872B46E1E700BF2C
:100FA0002CC7010841C90108BAC70108FBC70108DD
:100FB0009EC8010810C7010807B5D0F85431009346
:100FC000D0F85021044B00F59C710448FFF754FF02
:100FD00003B05DF804FB00BF502B01204C2B012017
:100FE0002DE9F04707469068DDF820A09946036890
:100FF0001B6A884615469847B0F5A27F05D2424B3A
:10100000424AA32142481AF0FFF9686803681B6A44
:1010100098470F2803D83F4B3C4AA421F2E7E868E1
:1010200003681B6A98470B2803D83B4B374AA52116
:10103000E8E70BF09DFF0BF0A1FFD9F8000010B11D
:101040000368DB689847D9F8000010B103681B6893
:101050009847386810B103685B699847D8F8000072
:1010600010B103685B689847386810B103681B6863
:101070009847D8F8000010B103689B689847E86863
:10108000036800215B6A9847044620B1002343604F
:101090000372224B0360A868036800215B6A9847CB
:1010A000064608B1FFF74AFB6868036800215B6ADF
:1010B0009847054610B13146FFF70CFBC9F80040D0
:1010C000C8F800503E60E5B12B1DCAF80030C5F8E5
:1010D00008A03368F5633046DB6898472B682846DC
:1010E0001B689847214630460DF048FB2368204690
:1010F0001B699847236820465B6998472846BDE8E6
:10110000F0872B46E1E700BF2CC701084BCA010856
:10111000BAC70108FBC701089EC8010810C701082B
:1011200007B5D0F854310093D0F85021044B00F5A6
:101130009C710448FFF754FF03B05DF804FB00BF47
:10114000502B01204C2B012030B585B00368018164
:101150006D4601460446D3F884302846984795E802
:1011600007003C3484E8070005B030BD30B585B0D9
:10117000036841816D4601460446D3F88430284611
:10118000984795E807003C3484E8070005B030BD77
:101190000022028042808280C280704780F8361030
:1011A000704770B5036804461B6B15469847236863
:1011B000294620465B6EBDE8704018470020704706
:1011C000806C7047704770477047704730B4C5688F
:1011D00044686A100346ED0704EB02009B6848BFB1
:1011E000A25830BC48BFD358184743682BB1836816
:1011F0002BB9C06800F00100704718467047012005
:10120000704710B54C2104461AF0F2F8204610BD84
:1012100010B5102104461AF0EBF8204610BD10B5A9
:101220004FF4A27104461AF0E3F8204610BD000006
:1012300070B503685E6B124B1B6804468DB22BB908
:10124000104B114A6C2111481AF0DEF81049828DBA
:101250000988914203D80F4B0B4A6D21F3E713F82D
:1012600012200D4B1B6853F822000368DB6A984775
:10127000291A3346204609B2BDE87040184700BF1E
:10128000602B0120B0C5010878CC0108F2C5010827
:10129000642B012004CC0108682B0120E430884233
:1012A00008B505D10BF064FEBDE80840FFF7C4BDEA
:1012B00008BD00224FF0FF31C0E900218260704775
:1012C0000A4A026000228280C280028142818281B9
:1012D000C28102824282C0E90522C2610284428444
:1012E00080F82420012280F825207047B0DA010818
:1012F0002DE9F04F04468FB0264600250DF092F8F8
:10130000724BE56346F8403B4FF0260B5A462946A0
:1013100030461AF0F4F83046FFF7D2FF04F16C08BB
:101320006B4B2364FF274FF6FF7A5A46294684F811
:101330006670A56640460DF13809ADF830A01AF088
:10134000DEF84046FFF7BCFF624BE36639F8083D24
:10135000A4F8923084F89470494604F19807404606
:1013600009F0A5FF29465A4638461AF0C8F838460B
:10137000FFF7A6FF4FF47F02574BA4F8C4A0C4F8B0
:10138000CC20A4F8D8A0A4F8DAA0544AC4F8C030FD
:1013900004F1E40AC4F8C85084F8D05084F8D1505D
:1013A000A4F8D450A4F8D650C4F8DC50C4F898205F
:1013B000C4F8E0505046039309F052FF484AC4F87D
:1013C0003421484AC4F83C21C4F840512A462946F1
:1013D0003046C4F83841FFF78DFA3046F021FFF768
:1013E000C4F94FF07F4B30464FF4A071FFF7BFF9BF
:1013F0002A46C4F868B029464046FFF77BFA4946BA
:101400004046ADF8305009F052FF2A46294638468A
:10141000FFF770FAD4F89820C4F8C8B0A4F8CC50FC
:101420000DF1100B39465846D2F8842090479BE8BE
:10143000070004F1D40C8CE8070004F59072C4F89E
:10144000E020A4F82051384609F04EFC039B0C9391
:1014500049463846ADF8345009F066FC5046FA2249
:101460002321FFF747FA0123ADF824300223ADF81A
:10147000283004230AAAADF82C30ADF8303009A981
:101480000BAB5046CDF8009009F055FE3E23A4F872
:101490001C310823251DA4F81E3104F59A73C4F8E5
:1014A0000C313146284607F071FA4146284607F0CC
:1014B0006DFA3946284607F069FA2846514607F082
:1014C00065FA20460FB0BDE8F08F00BF4CCC010894
:1014D000A4D8010884D9010878C5010864CB0108A3
:1014E000F4CB01089D12000813B5002249B102ABEC
:1014F000019203F8052D0268946801AAA04702B082
:1015000010BD0846FBE74089704780897047808896
:10151000704783798088184480B27047C07900F0A2
:101520007F007047C079C0097047006A7047406A01
:10153000704770478B8880690A68DB0A50F823007F
:101540001044704710B5C2B1137BB3B1547BD27A4B
:10155000240204F4E0641443C26998B202EB8402EA
:1015600013888B4202D192F9020010BD05D80138D0
:1015700080B204320028F3D1F7E70020F5E710B578
:101580002821044619F034FF204610BD30B589B03B
:101590000446BDF850500695BDF84C5005959DF891
:1015A000405004959DF83C5003959DF838500295A5
:1015B0009DF8345001959DF8305000950CF01CFDBD
:1015C000064B2360119BA361129BE361159B236271
:1015D000169B6362204609B030BD00BFBCCC010839
:1015E00030B5164D2C78BFF35B8F14F001048DB02D
:1015F00020D1284619F0D3FEE0B13F230793104BCA
:101600000693104B104908940122CDE904430423AA
:10161000CDE90132CDE909440A23039400940B4833
:10162000FFF7B4FF284619F0C6FE094A09490748E2
:1016300019F0D9FE05480DB030BD00BF7C01002077
:10164000A00002089C0002082CFB01088001002079
:10165000000000203315000830B5164D2C78BFF37C
:101660005B8F14F001048DB020D1284619F097FE4D
:10167000E0B13F230793104B0693104B1049089499
:101680000122CDE904430423CDE90132CDE9094427
:101690002823039400940B48FFF778FF284619F09D
:1016A0008AFE094A0949074819F09DFE05480DB010
:1016B00030BD00BFA80100209800020848020208BF
:1016C00054FB0108AC010020000000203315000885
:1016D00030B5164D2C78BFF35B8F14F001048DB03C
:1016E00021D1284619F05BFEE8B13F230793104B48
:1016F0000693104B05930123CDE903330293042392
:101700005F220D490894CDE90033CDE90944142343
:101710000A48FFF73BFF284619F04DFE084A0949E1
:10172000064819F060FE05480DB030BDD401002018
:10173000A40002084C02020864FB0108D801002042
:101740000000002033150008704710B5042104463E
:1017500019F04EFE204610BD08B503290FD8DFE86A
:1017600001F00A02060A00F015F8406808BD00F012
:1017700011F88068FAE700F00DF80068F6E700203D
:10178000F4E700000048704720CD010809207047A9
:1017900005207047004870470002002010B5FFF791
:1017A00097FF044C2060FFF757FF6060FFF718FFBA
:1017B000A06010BD0002002000207047002070478C
:1017C0000EB403B503AB002153F8042B01930CF0C6
:1017D00045FA02B05DF804EB03B070470CB407B5EE
:1017E00004AB53F8042B01930CF038FA03B05DF806
:1017F00004EB02B07047000010B5436C044673B3AD
:10180000038F2BB9184B194AC021194819F0FCFD58
:10181000C38E00EB43035B8C0BB30DF0DEFC238F18
:10182000012B03D8134B144AC521EEE7E28E531C5B
:101830009BB2092B194688BFA3F10A0104EB4101B1
:1018400040F63F10498C814209D10A2B04EB420239
:1018500028BF002304EB4303508C58845184204656
:10186000BDE810400DF0BCBBD4CD010801CF01088C
:10187000DDCD010821CE01082FCE01080DF077BB88
:1018800010B586B002AC84E806001A460AAB059390
:101890000193099B00932146089B0AF082FE06B043
:1018A00010BD000038B5D8B9114B12481B68124959
:1018B000BBB11A689C681A4402605A681A440A60EC
:1018C0001C446CB10D4B00221A80FFF763FF0546E4
:1018D000FFF75EFF0A4B1C600A4B1D600A4B188025
:1018E00038BD0A4B03600A4B0B600A4B1C68E8E7E3
:1018F0000C02002010020020140200201802002018
:10190000602B0120682B0120642B0120C8DC0A0811
:10191000A4DC0A08C4DC0A08044B1B6853F8210045
:10192000034B1B6803EB4000704700BF140200200C
:1019300010020020012380F8741080F87530704781
:10194000002070474164034B003118BF012119701A
:10195000704700BF0D2B012000207047836B0BB137
:101960000846184770474FF6FF7070474068036895
:101970009B69184770477047034B902283F85A239E
:1019800083F85823704700BF00E100E0094A0A4984
:10199000D3680A48C3F30A03013B9BB20B80116969
:1019A000C1F30A01013901801364536B43F0010351
:1019B00053637047006801401E0200201C02002093
:1019C000014B986A704700BF84680140024B0122B6
:1019D000996243F8602C70478468014070B50446F2
:1019E00007F07BFD23685D6E0BF0C2FA01462046CE
:1019F000A8472368054AD3F888502046AC46002300
:101A0000A2F51631BDE87040604700BF005802D013
:101A100010B531B90A4B0B4A0B4840F2D22119F0EC
:101A2000F3FCC0E90F120032084918BF01220A7006
:101A300002681946D2F88C20BDE81040104700BF5C
:101A40000FD00108C9D0010847D001080C2B012094
:101A500008B5094B1B888B4203D8084B1B8893425F
:101A600005D9074B074A08489E2119F0CDFC074BC2
:101A70001980074B1A8008BD022B0120042B01207E
:101A8000ACCF010886D0010847D00108082B0120FF
:101A90000A2B012007F008BD90F84B3013B1024B20
:101AA00001221A7007F00CBD1A02002007F0C5BC15
:101AB00007F01FBE10B5044608F052FA236820460E
:101AC000D3F8AC30BDE81040184790F877301BB120
:101AD000406803681B6818471846704710B590F8AF
:101AE000744090F834100C4B8C421A7809D03AB9F3
:101AF0000A4A0B491488088810800C8001221A7049
:101B000010BD002AFCD0054A0549148808881080B9
:101B10000C800022F3E700BF062B0120022B0120DE
:101B2000042B0120034B4FF080629A604FF08072CB
:101B30009A60704700E100E0084B4FF08062C3F804
:101B40008820BFF34F8FBFF36F8F4FF08072C3F8C1
:101B50008820BFF34F8FBFF36F8F704700E100E025
:101B600010B5144C236823B3134B144A1B6C118813
:101B70008B4213D1124B198804F00AF8226892F8AC
:101B80006630013382F8663000F004FA206808F00D
:101B9000E7F90020BDE8104000F006BC03F0F8FFB4
:101BA000206803681B6A98470020BDE8104000F0D9
:101BB000FCBB10BD102B0120006801401E0200205C
:101BC0001C02002003685B6C184701207047036803
:101BD0009B6A184782B0002301930D4B1A6B42F4A5
:101BE00000021A631A6B02F400020192019A1A6948
:101BF00042F400021A611A6922F400021A61054BCC
:101C0000054A1A61054B4FF080629A6002B0704736
:101C100000380240442E0120291C000800E100E0A9
:101C200040F2EF3070470000024B1B6858680368B1
:101C30005B691847102B012008B50B280BD8DFE88B
:101C400000F01206100A0A0A0A080808080801200B
:101C500008BD0520FCE7054B054A0648672119F039
:101C6000D3FB0020F4E70220F2E700BF31D10108E6
:101C700002D201084CD1010808B50A2809D8DFE8CA
:101C800000F010060E0808080806060606000120E7
:101C900008BD054B054A0648882119F0B5FB002010
:101CA000F6E70220F4E700BF31D101084CD2010869
:101CB0004CD10108F8B50C46487FFFF7BDFFA77F60
:101CC00005463846FFF7B8FF06463846FFF7D4FF0B
:101CD000A38A628BD21A494B1A64A18A628B521A68
:101CE0009A61A18A228B521A1A615863A18AE28AE8
:101CF00042EA01425A642269DA636268DA60226861
:101D0000402A70D010D8042A3BD0202A6BD0237FE1
:101D100045EA0365394B45F40035DD61617FA27FFB
:101D2000914267D0364A4BE0B2F5807F1BD0B2F5C6
:101D3000007F23D0802AEAD1A068021DDA62227FC8
:101D400045EA026545F40035DD615E6222695A614B
:101D50000278EAB1012A35D02A4B2B4A2B484FF49E
:101D6000897119F051FB217F294A42EA0162DA6147
:101D7000E2681A625E6222695A6120E0217F254A88
:101D8000F3E7227F45EA026545F40035DD61F1E7BE
:101D9000D9694288501E21F47F4222F0100242EAA3
:101DA0000022DA610121154BDA6942F02002DA6182
:101DB000DA699206FCD410229A600029B2D0164A41
:101DC0001A60F8BDDA694088217F22F47F4222F050
:101DD0001002013842F01002FF3942EA002218BF17
:101DE0000121DA61DFE7237F45EA036545F4003529
:101DF000024BCBE740F20122E2E700BF00B0024015
:101E00000102010017D10108C4D101084CD1010819
:101E10000A000200090002000102020010B5887FDA
:101E20000C46FFF729FF1C4B5863A18AE28A42EA5D
:101E300001425A642269DA63628BA18A521A1A64D7
:101E40002268082A16D1A18A628B521A9A61A18A45
:101E5000628B521A1A615862217F104A42EA01626B
:101E6000DA61E2681A6222695A612269DA600C4A10
:101E70001A6010BD0022D8611A61E1680A0A480997
:101E800002F4784200F4FC600243C1F3C4010A4347
:101E90009A63044AECE700BF00B002400900010069
:101EA0000102020001020300054B0360054B4FF0E5
:101EB0008062C3F88820BFF34F8FBFF36F8F7047E6
:101EC0007CD1010800E100E010B50446FFF7ECFF0B
:101ED00020464FF45A6119F08BFA204610BD0000DD
:101EE00070B505462C460A4B0C30002668602E72F1
:101EF0006E7244F8203B6022214608F06FF905F528
:101F00005A63E6602434A342FBD1284670BD00BF6B
:101F10007CD10108012108B50022084605F0EAFD40
:101F20000A4B186028B90A4B0A4A29210A4819F0B5
:101F30006BFA00220421012005F0A6FE074B186071
:101F400018B9074B034A2D21F0E708BD24020020F1
:101F500097D201084BD30108E0D2010820020020EB
:101F600009D30108024B4FF0FF31186805F018BE85
:101F700024020020014B186805F04EBE2402002008
:101F8000024B0021186805F00BBE00BF24020020A0
:101F9000FFF7F0BF03480449006800231A4605F024
:101FA000B9BE00BF200200200400002013B5084C79
:101FB00000231A4601A9206805F0EEFE4FF0FF331A
:101FC000002201A9206805F0E7FE02B010BD00BFA5
:101FD00020020020704770477047012070470C2096
:101FE00070470C2303FB0100083070470C2303FBF0
:101FF000010008307047012070474FF4447070476B
:102000004FF4447303FB0100083070474FF44473EE
:1020100003FB010008307047012070471020704713
:1020200000EB01100830704700EB011008307047DA
:102030000846FEF701BF000010B5034B03600446DD
:1020400006F08EFC204610BDECD3010810B5044606
:10205000FFF7F2FF2046142119F0CAF9204610BDFF
:1020600010B5034B0360044606F07AFC204610BD11
:10207000B8D3010810B50446FFF7F2FF20464FF42D
:10208000467119F0B5F9204610BD000010B5034B9C
:102090000360044606F064FC204610BD84D30108AA
:1020A00010B50446FFF7F2FF2046182119F0A0F9F9
:1020B000204610BD10B5084B0360044600F5517072
:1020C000FFF7BAFF04F12C00FFF7CAFF04F1140078
:1020D000FFF7DCFF204610BD20D4010810B50446F0
:1020E000FFF7E8FF204640F2B44119F081F920469D
:1020F00010BD00002DE9F341FFF744FB0546FFF753
:1021000045FB0024014623462846224600940DF054
:1021100049FB274B274A284D1A602046FFF7C2FB90
:1021200026480DF0A7FA2B78BFF35B8FDB0738D476
:10213000284619F034F9002833D0214C214B236074
:1021400004F5577604F1140004F12C0804F55177D6
:102150006060C4F80880E760266106F003FC1A4B53
:102160006361404606F0FEFB184BE362384606F01A
:10217000F9FB174BC4F8443304F55670FEF748FAE0
:10218000224604F556713046FEF784FA3046FEF7D3
:1021900053FE284619F00FF90E4A0F49204619F050
:1021A00022F90E4802B0BDE8F04100F0D1B800BFFE
:1021B0006C2B0120001500202802002008000020C0
:1021C0002C02002020D4010884D30108B8D30108D0
:1021D000ECD3010800000020B52000088414002082
:1021E000014800F0B7B800BF8414002010B50421E6
:1021F000044619F0FDF8204610BD10B578210446BC
:1022000019F0F6F8204610BD10B57C21044619F0EF
:10221000EFF8204610BD0000F8B5394C394D3A4F63
:102220003A4B3B492B602246284619F0DCF8394EE0
:102230003846FFF755FE22463749384619F0D3F89D
:10224000304610F0AFFB22463449304619F0CBF847
:1022500022463349334819F0C6F8334833494166BA
:102260003349C56000230122324D0385C0E9017660
:10227000C0E90433C0E90633C0E9083380F82A30E6
:10228000C3620386C0E90E33C0E9103380F84830DA
:1022900080F8492080F84A3080F84B30C0E9133389
:1022A000C0E91533C0E9173380F8683080F8693029
:1022B00080F86A3080F86B3080F86C300860F0216C
:1022C00029801D4D036729801C4D80F874304FF420
:1022D000A07129801A4D80F875302980194980F83D
:1022E00076300B70184B80F8772080F8782080F8D3
:1022F0003420036022461549BDE8F84019F073B850
:1023000000000020E0060020E40600200CD50108B3
:10231000D51F000804150020A91E0008D71F0008BB
:102320004917000808000020841400200100000163
:10233000102B0120022B0120082B0120042B01204F
:102340000A2B0120062B012034D40108D91F0008D4
:10235000FFF744BB08B503680446D3F880309847BC
:10236000236820469B6F9847FFF720FE236820468E
:102370001B6F9847292000F081FCFFF717FE2368A8
:1023800020461B6F9847F8E7FFF71ABBFFF71EBB05
:10239000FFF78CBBFFF7F0BAFFF7C4BBFFF7CCBB6E
:1023A000FFF7F4BA07F043B8704770477047000072
:1023B00038B50C4B0C4C18800C4B8220198063688C
:1023C000984740F6110398420AD1094D23682C60C2
:1023D000822098472B688220DB689847002038BD10
:1023E0000120FCE77C150020240000207E15002041
:1023F000801500204FF4A071F020FFF7D9BF000036
:10240000F7B52C4D2B6804461B698220984780B293
:10241000208000284BD02B680DF106025B6901A9D2
:1024200082209847BDF80630A3F5B4739BB20B2207
:10243000B3FBF2F333B1204A12889A423CBF02F157
:10244000FF339BB2BDF8042040F6B8318A4295BFF5
:10245000C2F57162C2F56D620E320832ADF8042029
:10246000BDF804100F22B1FBF2F131B1134A12880A
:102470008A423CBF02F1FF3189B2114E114D3068E2
:102480002F6882B2814288BF8A1AB8B298BF521AA6
:10249000BB428CBF181AC01A92B280B20244052AFD
:1024A000C4BF31602B60336863802B68A38003B0A6
:1024B000F0BD00BF801500207E1500207C15002097
:1024C000841500208815002037B568460D4614464F
:1024D000FFF796FFBDF8000030B1BDF802302B6069
:1024E000BDF804302360012003B030BD054BD3F8A4
:1024F000882042F47002C3F888204FF000629A608E
:10250000704700BF00ED00E030B5014689B0002201
:10251000362002F05FF9362002F090F90025154BC5
:1025200002951A6C144C42F010021A641B6C03F0F2
:102530001003029301A903A8029B01F0E7F901F03F
:10254000C5F90E4B236040F2E733E36040000C4BCB
:10255000B0FBF3F00138606020462561A56001F012
:10256000A3FB20B9204601F07DFA09B030BD01205F
:10257000FBE700BF00380240142C0120001000408F
:1025800040420F0007B5064B02A91B6821F8020D57
:102590000122044802F016FE03B05DF804FB00BF00
:1025A00014000020B42C012008B5012005F088FAA1
:1025B000FBE70000034B0449044801221A6005228E
:1025C00002F01FBB90150020A82C0120002E012036
:1025D00030B5094D89B000246023CDE90130224691
:1025E00001A928460394059401F0C8FB214628461A
:1025F00001F05CFC09B030BD0C2D012010B50821A4
:10260000174802F0FDFC024698B94FF48041154886
:1026100002F0FCFC01224FF40051124802F0F6FCDB
:10262000642003F001FB4FF4FA60BDE81040FFF7AF
:10263000CFBF08210A4802F0E3FC012804460DD16F
:1026400000224FF40051074802F0E0FC0548224602
:102650004FF4804102F0DAFC0020E6E710BD00BF35
:10266000000802400018024008B5FFF7C7FF01202C
:1026700005F026FAF9E7000007B502A94FF0FF338D
:1026800041F8040D0122034802F05FFA019803B0FB
:102690005DF804FB002E0120F0B53024A1B02246E5
:1026A000002108A818F02BFF1422002103A818F01D
:1026B00026FF2246002114A818F021FF0024224BF7
:1026C00001941A6C42F080521A641B6C03F0805320
:1026D0000193019B1D4B02941A6842F440421A6018
:1026E0001B6803F4404302930122029B4FF48033A2
:1026F000CDE9082302254FF48003CDE90E530827C6
:102700004FF4A873042608A8CDE910731295139608
:1027100000F06AFE0F23CDE903354FF4A0514FF4CA
:102720008053CDE9061303A80521059401F030F884
:10273000C023189314A84FF4003314971A961D93CE
:1027400003F086FA21B0F0BD00380240007000406E
:1027500080B59AB003F03CFAFFF79EFF14220021E7
:102760000DA8002418F0CBFEC74B00941A6BC74885
:10277000C74D42F020021A631A6B02F02002009249
:10278000009A01941A6B42F080021A631A6B02F0ED
:1027900080020192019A02941A6B42F004021A63B9
:1027A0001A6B02F004020292029A03941A6B42F02E
:1027B00001021A631A6B02F001020392039A049455
:1027C0001A6B42F002021A631A6B02F002020492C0
:1027D000049A05941A6B42F040021A631A6B02F0D5
:1027E00040020592059A06941A6B42F010021A6391
:1027F0001A6B02F010020692069A07941A6B42F0C6
:1028000008021A631B6B03F0080307932246042196
:10281000079B02F0FBFB22464FF440519D4802F01B
:10282000F5FB22464FF4C0419B4802F0EFFB012626
:102830004FF0020804270DA994480F94CDE90D76B6
:10284000CDF8408002F0F6FA4FF484730DA98F485A
:102850000F94CDE90D3402F0EDFA4FF440530DA979
:102860008C48CDE90D36CDE90F4802F0E3FA0DA909
:102870004FF4C0438848CDE90D36CDE90F4402F04E
:10288000D9FA8648864B036003F010FB854A864BD5
:102890002C62C5E9002328464FF48043C5E904347F
:1028A000C5E90244C5E9064401F0D8FC10212846D8
:1028B00001F038FF2146284601F056FF7B487C494D
:1028C00084624FF48273C0E900134FF4007518233B
:1028D000C0E906530A23774DC362C0E90244C0E948
:1028E0000444C0E9084402F02DFC734BCDF8348059
:1028F0004FF0100CC5E900364023C5E904C34FF47E
:10290000C073C5E906344FF40063C5E908344FF4D9
:1029100000534FF0030AAB620DA907232846CDE907
:102920000E3710934FF00809C5E90247CDE911A809
:10293000CDF84C8000F00EFD4FF6FF7209A9284635
:10294000CDE90A96089409960C9400F023FD3046D0
:1029500003F06AF94FF6FF7209A92846CDE9098903
:10296000CDE90B6400F016FD4FF6FF7209A9284669
:10297000CDE909A9CDE90B7400F00CFD4FF40C73FF
:102980000893089B0C934FF6FF7209A92846CDE9DE
:1029900009790B9600F0FEFC40F26A51284600F0DF
:1029A00010FD342221460DEB020018F0A8FD434D26
:1029B000434B2C61C5E900340923C5E905361D23C5
:1029C00040F20D1EC5E9073A40F24313C5E909E399
:1029D00040F2171940F24713C5E90B93C5E90244C9
:1029E000AC8685F83640284602F0CCFFFF21F02265
:1029F000CDE912144FF005094FF480614FF4A07334
:102A0000CDE90E24CDE91419CDE916420DA92246CF
:102A10002846CDE910382B4D18930D94ADF864403D
:102A20008DF8664003F08BF8274B2B601B68DFF8AE
:102A3000A8A098472B68254DDB689847244BC5E92B
:102A40000A48C5E90C442846C5E90034C5E90284B2
:102A500002F0EAFD3146284602F0A6FE1D4D1C227A
:102A600021460DA818F04BFD40F2A313C5E900A3C1
:102A7000284640F2CF73C5E90334AC60AC6101F085
:102A800013F928462AE000BF00380240000802403F
:102A9000542C0120000C0240001802404C2D012053
:102AA00000300240005C0040A0860100B42C0120F0
:102AB00000500140842E0120400100A0582D01202B
:102AC000006801408C1500204C000020442E01209D
:102AD00000B002400C2D01200044014001F0FEF83E
:102AE0000DA9602322462846CDE90D340F94119498
:102AF00001F044F928461A4D00F01CFB194A4FF426
:102B000016532846C5E90023C5E90244C5E9044730
:102B1000C5E9064401F0E9FF03F0D8F92046FFF7C4
:102B200057FD4A461049284602F06BF804F038FF7A
:102B30000E4A0F48214604F06DFF0E4B0E4A1860F6
:102B400021460E4804F066FF0D4B0E4A18602146E0
:102B50000D4804F05FFF0D4B186004F03BFFFEE7EB
:102B6000002E012000100140A82C012034D50108BE
:102B7000D15E0008402E01207CD50108692600089E
:102B8000542D012058D50108A9250008B82E012090
:102B90007047704710B586B006AC074B04F8012D9E
:102BA0001B68029301230A46CDE90043014603480E
:102BB00001F004FC06B010BD10000020542C0120D0
:102BC0007FB506AA002302F8013D084B1B6802935B
:102BD0000123CDE900230A460146054801F082FCA5
:102BE0009DF8170007B05DF804FB00BF100000203F
:102BF000542C01201FB5084C24680092CDE9013403
:102C00000A4601230146054801F06CFC003018BF5C
:102C1000012004B010BD00BF10000020542C012082
:102C200003F002B810B5064C00222046042102F041
:102C3000EDF9204601220421BDE8104002F0E6B97A
:102C40000008024038B50B4C054601224FF40051F4
:102C5000094802F0DBF900220421204602F0D6F9EF
:102C60002846FFF78FFC204601220421BDE83840AA
:102C700002F0CCB900080240000C024038B50B4C01
:102C8000054600224FF40051094802F0BFF9002226
:102C90000421204602F0BAF92846FFF773FC2046CB
:102CA00001220421BDE8384002F0B0B9000802401A
:102CB000000C0240F7B5144C144D07460E46204652
:102CC0000022042102F0A2F900224FF4005128460C
:102CD00002F09CF93846FFF755FC0D4B0D481B6878
:102CE000324601A902F006FC284601224FF40051A9
:102CF000019E02F08BF920460122042102F086F9A0
:102D0000304603B0F0BD00BF00080240000C024096
:102D100014000020B42C012002F086BF0268034B8F
:102D20009A4201D102F06EBF704700BF0010004010
:102D30007047FEE7FEE7FEE7FEE77047014801F057
:102D4000CBBF00BF002E0120014800F0A1BE00BF94
:102D5000142C0120014802F091BE00BF582D012023
:102D6000014802F091BC00BF442E012008B50A4B77
:102D70001968024609B90949196018686946024488
:102D80008A4206D918F06CFB0C2303604FF0FF3029
:102D900008BD1A60FCE700BF94150020082F012031
:102DA00082B00E4B00220092596C41F4804159646C
:102DB000596C01F48041009100990192196C41F025
:102DC000805119641B6C03F080530193019B0F2108
:102DD0006FF0010002B001F0FDBC00BF00380240FE
:102DE0000268094B9A4282B00BD100230193074B32
:102DF0001A6B42F480521A631B6B03F480530193E5
:102E0000019B02B0704700BF003002400038024012
:102E100007B50F4B02689A4216D10022A3F5F04382
:102E20000192196B41F4000119631B6B03F4000359
:102E3000019305215A20019B01F0CCFC5A2003B0DC
:102E40005DF804EB01F0FABC03B05DF804FB00BFD1
:102E500000B002402DE9F043044689B0142200215D
:102E600003A818F04CFB2268244B9A4243D1244C0F
:102E7000244800250095236B43F004032363236B50
:102E800003F004030093009B0195236B43F00103BF
:102E90002363236B03F001030193019B4FF012099D
:102EA0004FF400734FF001080327042603A9CDE96E
:102EB0000339CDE90587079601F0BCFF4FF4807315
:102EC00003A911480796CDE90339CDE9058701F03B
:102ED000B1FF0295236C43F400032364236C03F4D5
:102EE00000030293029B236A43F400032362236AD4
:102EF00023F40003236209B0BDE8F083005C0040C6
:102F0000003802400008024000000240F0B50446CC
:102F10008DB01422002107A818F0F1FA2268574B4F
:102F20009A4240F0A88003F55043002500955A6C62
:102F3000534842F080625A645A6C02F080620092F8
:102F4000009A01951A6B42F020021A631A6B02F084
:102F500020020192019A02951A6B42F001021A6353
:102F60001A6B02F001020292029A03951A6B42F068
:102F700002021A631A6B02F002020392039A04958A
:102F80001A6B42F040021A631A6B02F0400204927C
:102F9000049A05951A6B42F004021A631A6B02F048
:102FA00004020592059A06951A6B42F008021A630C
:102FB0001B6B03F00803069302240E26069B0A945B
:102FC0004FF4806307A9CDE907340B9601F032FF77
:102FD00041F6580307A92B480B96CDE9073409277A
:102FE000CDE9095401F026FF032307A926480B97D2
:102FF000CDE90734CDE9095401F01CFF4FF47063AB
:1030000007A921480B96CDE90734CDE9095401F011
:1030100011FF4FF40C6307A91C480B96CDE9073448
:10302000CDE9095401F006FFC02307A918480B9603
:10303000CDE90734CDE9095401F0FCFE082307A9C6
:1030400014480B96CDE90734CDE9095401F0F2FE9E
:103050004FF4A05307A90D480B97CDE90734CDE9EC
:10306000095401F0E7FE58202A46052101F0B2FB81
:10307000582001F0E3FB0DB0F0BD00BF0068014037
:103080000014024000000240000402400018024008
:1030900000080240000C024010B5044688B014221B
:1030A000002103A818F02BFA2268144B9A4223D16E
:1030B00003F56843002101915A6C114842F48012D3
:1030C0005A645A6C02F480120192019A02911A6BAE
:1030D00042F020021A631B6B03F020030293029B51
:1030E0004FF4607202230321CDE903230523CDE9C8
:1030F000061303A901F09EFE08B010BD0050014068
:10310000001402400268094B9A4282B00BD100239E
:103110000193074B5A6C42F400325A645B6C03F41F
:1031200000330193019B02B0704700BF004401408F
:103130000038024010B5044686B01422002101A8D0
:1031400018F0DDF922680D4B9A4215D10023009347
:103150000B4B0C481A6B42F020021A631B6B03F0F6
:1031600020030093009B40220223CDE9012301A903
:103170000323059301F05EFE06B010BD004401403C
:10318000003802400014024010B5044688B01422F2
:10319000002103A818F0B3F92268184B9A422BD1EA
:1031A00003F59433002401945A6C154842F0100240
:1031B0005A645A6C02F010020192019A02941A6B3E
:1031C00042F001021A631B6B03F0010302934FF4F8
:1031D000C062029B0223CDE9032303210723CDE92B
:1031E000061303A901F026FE25202246052101F041
:1031F000F1FA252001F022FB08B010BD00100140BB
:10320000000002402DE9F04186B01422002101A8FF
:1032100018F075F92B4B1C68002C4FD14FF00108AA
:10322000C3F80080284B00949A6B284842EA0802B1
:103230009A639B6B03EA08030093022703260C257D
:10324000009B01A94FF63F03CDE90137CDE90465A5
:1032500001F0F0FD01A91E480595CDE90187CDE9F2
:10326000034601F0E7FD48F2331301A9194805951B
:10327000CDE90137CDE9034601F0DCFD4FF683735C
:1032800001A915480595CDE90137CDE9034601F0BF
:10329000D1FD4CF2037301A910480595CDE9013722
:1032A000CDE9034601F0C6FD602301A90C48059550
:1032B000CDE90137CDE9034601F0BCFD06B0BDE81C
:1032C000F08100BF98150020003802400014024031
:1032D000000802400018024000100240000C0240AA
:1032E000000402400120704708B518F0B9F8162311
:1032F00003604FF0FF3008BD08B518F0B1F8162391
:103300000360FEE770B50E4615460C46A31B9D42B2
:1033100001DC284670BDAFF3008004F8010BF5E72F
:1033200070B50E4615460C46A31B9D4201DC28468F
:1033300070BD14F8010BFFF79FF9F5E74FF0FF3070
:1033400070474FF400534B600020704701207047D6
:103350000020704738B50D460446C8B190F82C30AF
:1033600003F0FF021BB980F82D20FFF74BFF02236B
:1033700084F82C30211D206801F06EFA6268206804
:10338000294601F09FFA012384F82C30002038BD33
:103390000120FCE738B5044690F82C00C0B20228A2
:1033A0000D460DD0022384F82C30206801F0C7FAB6
:1033B0002B68022B0CBF0523012384F82C3000203E
:1033C00038BD10B5044690F82C00C0B2022809D0D0
:1033D000022384F82C30206801F0D6FA012384F807
:1033E0002C30002010BD00002DE9F341044608B93F
:1033F000012041E00368DD0710D4236898075AD400
:1034000023681A0700F19C8023685B0700F1BA80EB
:10341000A069002840F01C8100202DE0A44B9A6890
:1034200002F00C02042A07D09A6802F00C02082A63
:103430000AD15B68590207D59D4B1B689A03DCD5FE
:103440006368002BD9D1D3E76268994BB2F5803F0E
:1034500015D11A6842F480321A606368F3B102F041
:10346000DDFB934D06462B689B03C6D402F0D6FBCA
:10347000801B6428F7D9032002B0BDE8F081B2F5C3
:10348000A02F1A6803D142F480221A60E1E722F4E7
:1034900080321A601A6822F48022DDE702F0BEFB57
:1034A000834D06462B689F03A7D502F0B7FB801B10
:1034B0006428F7D9DFE77E4B9A6812F00C0F07D02B
:1034C0009A6802F00C02082A11D15B685E020ED4E1
:1034D000774B1A68950702D5E268012A88D11A68E5
:1034E000216922F0F80242EAC1021A6088E7E26824
:1034F000704BB2B101221A6002F090FB6C4D06468F
:103500002B68980707D52B68226923F0F80343EA54
:10351000C2032B6074E702F081FB801B0228EFD905
:10352000A9E71A6002F07AFB614D06462B689907FD
:103530007FF566AF02F072FB801B0228F6D99AE78E
:1035400062695D4B7AB101221A6002F067FB584D47
:1035500006466B6F9F073FF557AF02F05FFB801B7E
:103560000228F6D987E71A6002F058FB504D06464C
:103570006B6F98077FF548AF02F050FB801B022865
:10358000F6D978E74A4B1A6C12F080522BD101928F
:103590001A6C42F080521A641B6C03F08053019342
:1035A000019B0126454D2B68D9051ED5A268404BCD
:1035B000012A2AD11A6F42F001021A67A368002B70
:1035C00037D002F02BFB3A4D074641F288382B6F7B
:1035D0009B0728D5002E3FF41BAF354A136C23F010
:1035E0008053136414E70026DCE72B6843F48073F0
:1035F0002B6002F013FB07462B68DA05D6D402F0E5
:103600000DFBC01B0228F7D935E7052A1A6F03D135
:1036100042F004021A67CDE722F001021A671A6F1E
:1036200022F00402C9E702F0F9FAC01B4045CED9E6
:1036300021E702F0F3FA1E4D074641F288382B6F5E
:103640009807C7D502F0EAFAC01B4045F7D912E740
:10365000174DAB6803F00C03082B46D0184E00231F
:103660000228336034D102F0D9FA07462B68990159
:1036700028D4D4E907321343626A43EA8213E26A28
:1036800043EA0263A26A0A4C5208013A43EA02433F
:103690006B600123336002F0C1FA054623689A018A
:1036A0003FF5BAAE02F0BAFA401B0228F6D9E2E6BC
:1036B0000038024000004742800E47420070004040
:1036C0006000474202F0AAFAC01B0228CED9D2E617
:1036D00002F0A4FA04462B689B017FF59DAE02F030
:1036E0009DFA001B0228F6D9C5E601283FF4C4AEB6
:1036F0006868E36900F480029A427FF479AE226A36
:1037000000F03F0393427FF473AE626A47F6C073E2
:10371000034093427FF46CAEA26A00F440339342BC
:103720007FF466AEE36A00F07060C01A18BF012033
:10373000A2E600BF08B513498B6803F00C03042B05
:1037400003D0082B03D0104800E0104808BD4A6899
:103750004B68496813F4800314BF0C480A48C1F34E
:10376000881118BF002302F03F02A1FB0001FCF703
:103770003FFD044B5B68C3F3014301335B00B0FBC7
:10378000F3F0E3E7003802400024F40000127A006E
:103790002DE9F0410D46044610B90120BDE8F08145
:1037A000454B1A6802F00F028A422AD323689E070B
:1037B0002FD42368D90743D43F4B1A6802F00F0275
:1037C000AA4268D823685A076ED423681B0707D516
:1037D0003A4A2169936823F4604343EAC103936042
:1037E000FFF7A8FF354B364A9B68C3F30313D35C3E
:1037F000D840344B1860344B1868FEF785FE002023
:10380000CCE7CAB21A701B6803F00F038B42C4D115
:10381000CCE7580741BF294A936843F4E0539360CB
:103820002368264A13F0080F1EBF936843F46043D1
:1038300093609368A16823F0F0030B439360B8E7AB
:1038400062681E4B012A1CD11B6813F4003FA4D0F0
:103850001A4EB36823F003031343B36002F0DEF99A
:1038600041F288380746B368626803F00C03B3EB93
:10387000820FA1D002F0D2F9C01B4045F3D903203A
:103880008CE7911E01291B6802D813F0007FDEE748
:1038900013F0020FDBE7EAB21A701B6803F00F03A4
:1038A000AB427FF47AAF8DE7044AE168936823F472
:1038B000E0530B43936088E7003C0240003802402D
:1038C0001CD501080C0000201C000020044B054AF8
:1038D0009B68C3F38223D35C034A1068D8407047C7
:1038E000003802402CD501080C000020044B054A8A
:1038F0009B68C3F34233D35C034A1068D8407047D7
:10390000003802402CD501080C0000200F23036072
:103910000B4B9A6802F0030242609A6802F0F002D0
:1039200082609A6802F4E052C2609B68DB0803F48C
:10393000E0530361034B1B6803F00F030B607047F8
:1039400000380240003C0240036A23F00103036296
:10395000036A70B5446882690D6822F073022A43D5
:103960008D6823F002032B430E4DA84202D00E4E69
:10397000B04210D1CE6823F008033343A84223F0AD
:10398000040302D0084DA84205D1D1E9055624F41C
:10399000407435432C43446082614A684263036249
:1039A00070BD00BF0000014000040140036A23F421
:1039B00080730362036A70B54468C2690D6822F0BF
:1039C00073022A438D6823F4007343EA0523114DE3
:1039D000A84203D005F58065A84214D1CD6823F430
:1039E000006343EA05230B4DA84223F4806303D010
:1039F00005F58065A84206D1D1E9055624F4405466
:103A0000354344EA05144460C2614A68C2630362F4
:103A100070BD00BF00000140036A23F480530362BD
:103A2000036A30B54468C2690D6822F4E64242EA8E
:103A300005228D6823F4005343EA0533084DA8425C
:103A400003D005F58065A84204D14D6924F4804473
:103A500044EA85144460C2614A680264036230BD6E
:103A6000000001400268D36843F00103D36003689B
:103A70009A6802F00702062A1EBF1A6842F0010285
:103A80001A60002070477047704770477047704752
:103A900010B503681A69910704460FD5DA689207D2
:103AA0000CD56FF002021A610123037703689B694A
:103AB0009B077AD0FFF7E9FF0023237723681A6971
:103AC000500711D5DA6851070ED56FF004021A615C
:103AD0000223237723689B6913F4407F20466AD032
:103AE000FFF7D3FF0023237723681A69120710D545
:103AF000DA6810070DD56FF008021A6104232377E6
:103B00002368DB69990720465BD0FFF7BEFF0023DF
:103B1000237723681A69D20611D5DA68D0060ED544
:103B20006FF010021A61082323772368DB6913F40E
:103B3000407F20464BD0FFF7A8FF00232377236860
:103B40001A69D10708D5DA68D20705D56FF00102E6
:103B50001A612046FFF7E2F823681A69100608D5B3
:103B6000DA68110605D56FF080021A61204600F070
:103B70001DFE23681A69520608D5DA68500605D575
:103B80006FF040021A612046FFF781FF23681A692F
:103B9000910622D5DA6892061FD56FF020021A61CD
:103BA0002046BDE8104000F000BEFFF76DFF204644
:103BB000FFF76CFF80E7FFF767FF2046FFF766FF20
:103BC00090E7FFF761FF2046FFF760FF9FE7FFF7F1
:103BD0005BFF2046FFF75AFFAFE710BD304A03688E
:103BE000904212D0B0F1804F0FD0A2F57C429042AB
:103BF0000BD002F58062904207D002F580629042BD
:103C000003D002F57842904219D14A6823F070033C
:103C10001343234A904229D0B0F1804F26D0A2F519
:103C20007C42904222D002F5806290421ED002F582
:103C3000806290421AD002F57842904216D0194A1A
:103C4000904213D002F5806290420FD002F580625C
:103C500090420BD0A2F59832904207D002F58062D4
:103C6000904203D002F58062904203D1CA6823F4E7
:103C7000407313434A6923F08003134303608B6846
:103C8000C3620B688362064B984203D003F58063DE
:103C9000984201D10B69036301234361704700BF60
:103CA000000001400040014010B50446A0B190F86A
:103CB0003D3003F0FF021BB980F83C20FFF722FAE9
:103CC000022384F83D302068211DFFF787FF012380
:103CD00084F83D30002010BD0120FCE710B50446FB
:103CE000A0B190F83D3003F0FF021BB980F83C20F2
:103CF000FFF7C9FE022384F83D302068211DFFF73D
:103D00006DFF012384F83D30002010BD0120FCE749
:103D1000036A23F010030362036A70B54468826982
:103D20000D6822F4E64242EA05228D6823F0200362
:103D300043EA0513104DA84203D005F58065A8425B
:103D400014D1CD6823F0800343EA05130A4DA8423D
:103D500023F0400303D005F58065A84206D1D1E9E0
:103D6000055624F44064354344EA85044460826186
:103D70004A688263036270BD0000014038B590F864
:103D80003C30012B04464FF0020027D0012384F879
:103D90003C3084F83D000C2A1AD8DFE802F00719FD
:103DA0001919201919193319191946002068FFF734
:103DB000CBFD2268936943F00803936122689369FD
:103DC00023F0040393612268096993690B439361AB
:103DD0000123002084F83D3084F83C0038BD206881
:103DE000FFF796FF2268936943F4006393612268AA
:103DF000936923F48063936122680969936943EAB4
:103E00000123E4E72068FFF7D1FD2268D36943F07E
:103E10000803D3612268D36923F00403D3612268C5
:103E20000969D3690B43D361D2E72068FFF7F4FD3A
:103E30002268D36943F40063D3612268D36923F411
:103E40008063D36122680969D36943EA0123EAE701
:103E5000036A01F01F0110B501248C4023EA04031A
:103E60000362036A8A401A43026210BD10B5044619
:103E700001220068FFF7ECFF23680B4A934203D04E
:103E800002F58062934203D15A6C42F400425A64B4
:103E900023689A6802F00702062A1EBF1A6842F0D9
:103EA00001021A60002010BD00000140FFF7DEBFD4
:103EB00001684B6913F480634FF0000210D06FF477
:103EC00080634B612023026380F83D3080F83E2000
:103ED000036C80F83C2043F0040303640120704726
:103EE000184670472DE9F0410446164698468FB2B1
:103EF0002568686937EA000018D06B695A0517D53C
:103F00002B6843F400732B6023686FF480625A615E
:103F100000232022236384F83D2084F83E30226C65
:103F200042F00402226484F83C300120BDE8F081B4
:103F3000731CDED001F072FEA0EB0800B04201D885
:103F4000002ED5D100232022236384F83D2084F85D
:103F50003E30226C42F02002E4E770B504460D4684
:103F6000164623685B695B0701D5002070BD2046BB
:103F7000FFF79EFFA8B96A1CF3D001F04FFE801B2B
:103F8000A84201D8002DECD100232022236384F81D
:103F90003D2084F83E30226C84F83C3042F0200210
:103FA00022640120E2E770B504460D4616462068FB
:103FB000436913F0400301D0002010E04269D206AB
:103FC0000ED56FF0100242612022236384F83D2059
:103FD00084F83E30226C226484F83C30012070BDAD
:103FE00001F01CFE801BA84201D8002DDFD1002368
:103FF0002022236384F83D2084F83E30226C42F076
:104000002002E8E72DE9F843089E044690461F4643
:104010004FEA11498DB22168B9F1010F0CBF4B690C
:104020008B6935EA03030CBF01230023984501D0B7
:10403000002016E07B1CEFD001F0F0FD801BB842A1
:1040400001D8002FE7D100232022236384F83D20EC
:1040500084F83E30226C84F83C3042F02002226426
:104060000120BDE8F88370B504460D461646236866
:104070005B691B0601D5002070BD2046FFF718FFC5
:10408000A8B96A1CF3D001F0C9FD801BA84201D871
:10409000002DECD100232022236384F83D2084F8F6
:1040A0003E30226C84F83C3042F020022264012031
:1040B000E2E700002DE9FF41154602680B9E984695
:1040C000136843F4807313600F460A9B0096002226
:1040D0004FF001110446FFF795FF236838B11B68C4
:1040E000DB0502D54FF40073236403200AE007F0D8
:1040F000FE071F610A9A194933462046FFF7F2FE70
:1041000018B1012004B0BDE8F081236803905A691A
:1041100003929B69039332460A99039B2046FFF75B
:10412000A2FF40B1236C042B01BF2268136843F443
:1041300000731360E5E7B8F1010F236802D1EDB217
:104140001D61DFE72A0A1A610A9932462046FFF705
:104150008AFF0028E6D12368F1E700BF02000100D2
:104160002DE9FF41164602680B9D9846136843F4FB
:10417000806313600268136843F4807313600F4612
:104180000A9B009500224FF001110446FFF73AFF09
:10419000236848B11B68DB0502D54FF40073236424
:1041A000032004B0BDE8F081FFB207F0FE021A61FF
:1041B00029490A9A2B462046FFF794FE08B10120B0
:1041C000EFE7236803905A6903929B6903932A4699
:1041D0000A99039B2046FFF746FF40B1236C042B4E
:1041E00001BF2268136843F400731360E7E7B8F176
:1041F000010F236825D1F6B21E612A460A9920468E
:10420000FFF731FF02460028E8D121680B6843F42C
:1042100080730B6020460A9B00954FF00111FFF759
:10422000F1FE23680028B5D147F001071F610A9A03
:1042300009492B462046FFF755FE003018BF0120E4
:10424000AFE7320A1A610A992A462046FFF70BFFA8
:104250000028C3D12368CEE70200010070B50446F0
:1042600008B9012070BD90F83D3003F0FF021BB982
:1042700080F83C20FEF7EEFD2268242384F83D30D0
:10428000136823F0010313602268136843F40043AA
:1042900013602268136823F400431360FFF716FBD2
:1042A000424B62689A4294BF414B424B98428CBF4A
:1042B00000230123002BD4D122683F495368B0FB6F
:1042C000F1F123F03F030B4353606668374B2568D9
:1042D0009E4288BF4FF496732A6A8ABF4B434B1C99
:1042E0004FF47A7122F03F0284BFB3FBF1F3013344
:1042F00013432B6221686368CA692C4D22F44F4234
:10430000AB4222F0FF0200F1FF3035D85B00B0FB7A
:10431000F3F0431CC3F30B03042B38BF04231343F4
:10432000CB612168D4E907300A68034322F0C00258
:1043300013430B602168D4E903038A6822F4034223
:10434000034322F0FF0213438B602168D4E9053058
:10435000CA68034322F0FF021343CB60226813684C
:1043600043F00103136000202023206484F83D30D3
:10437000206384F83E0075E7A56855B903EB430355
:10438000B0FBF3F0431CC3F30B036BB143F40043E6
:10439000C5E719256B43B0FBF3F0431CC3F30B03D4
:1043A00013B143F44043BAE70123B8E7A086010004
:1043B0007F841E00FF083D0040420F002DE9F743B7
:1043C000044699460F4690460C9E01F027FC94F84F
:1043D0003D30202B054603D0022003B0BDE8F0831A
:1043E0000090192301223D492046FFF70BFE0028CB
:1043F000F2D194F83C30012BEED0012384F83C300C
:1044000023681A68D2075EBF1A6842F001021A6078
:104410002268136823F400631360212384F83D307D
:10442000402384F83E30002323640A9B6362BDF876
:104430002C306385638D2385294BE362CDE90065CC
:104440004B46424639462046FFF734FE00282DD021
:104450000120C2E7FFF707FE40B1236C042B01BF28
:104460002268136843F400731360F1E7626A2368FB
:1044700012781A61616A628D4B1C6362238D013A66
:1044800092B2013B62859BB2226823855069400746
:104490000CD55BB14B781361636A01336362238D82
:1044A000013B2385638D013B9BB26385238D2A46A7
:1044B00031462046002BCDD1FFF74FFD0028CCD14F
:1044C0002268136843F400731360202384F83D309E
:1044D00084F83C0084F83E007FE700BF0200100033
:1044E0000000FFFF2DE9F043044687B099460D46D2
:1044F0009046109F01F092FB94F83D30202B064629
:1045000004D00225284607B0BDE8F08300901923A7
:10451000012278492046FFF775FD0028F1D194F873
:104520003C30012BEDD0012384F83C3023681A681D
:10453000D0075EBF1A6842F001021A602268136851
:1045400023F400631360222384F83D30402384F871
:104550003E30002323640E9B6362BDF83C306385CC
:10456000638D2385644BE3622946CDE900764B4693
:1045700042462046FFF7F4FD054608B10125C1E794
:10458000228D2368B2B902905A6902929A69029206
:10459000029A1A6842F400721A60DFF86081238D73
:1045A000002B2FD1202284F83D2084F83C3084F861
:1045B0003E30A7E7012A0BD11A6822F480621A6004
:1045C000236803905A6903929A690392039AE0E779
:1045D000022A10D11A6822F480621A6022681368D5
:1045E00043F400631360236804905A6904929B6942
:1045F0000493049BD1E705905A6905929B69059342
:10460000059BCAE7032B58D8012B15D132463946F2
:104610002046FFF7C8FC0028B0D123681A69636AF6
:104620001A70636A01336362238D013B2385638DB6
:10463000013B9BB26385B2E7022B00963B464FF0ED
:104640000002414620461AD1FFF7DCFC002895D134
:104650002268136843F40073136023681A69636A5D
:104660001A70626A531C6362238D013B2385638D3C
:10467000013B9BB2638523681B695370D1E7FFF749
:10468000C1FC024600287FF479AF21680B6823F44F
:1046900080630B6023681969636A1970636A009606
:1046A00001336362238D013B2385638D013B9BB204
:1046B000638541463B462046C6E73246394620469A
:1046C000FFF771FC00287FF459AF23681A69636A09
:1046D0001A70626A531C6362238D013B2385638DCC
:1046E000013B9BB263852368596949077FF557AF42
:1046F000C2E700BF020010000000FFFF040001003D
:1047000090F83530022B03D0802343650120704799
:104710000268052380F83530136823F00103136025
:104720000020704710B590F83D30DBB2202B19D136
:104730000468242280F83D20226822F001022260D1
:104740000468626A22F0100262620468626A1143BD
:10475000616201680A6842F001020A6080F83D3037
:10476000002010BD0220FCE730B590F83D20D2B209
:10477000202A18D10568242380F83D302C6824F0C5
:1047800001042C600468656A4FF6F0732B400B43FC
:104790009BB2636201680B6843F001030B6080F811
:1047A0003D20002030BD0220FCE77047704700002C
:1047B000074AD36823F4E0631B041B0C43F0BF6378
:1047C000000243F4003300F4E0600343D360704719
:1047D00000ED00E070B5174BDC68C4F30224C4F1AF
:1047E0000705042D04F1040328BF04254FF0FF360C
:1047F000062B06FA05F38CBF033C002421EA0303D1
:10480000A34006FA04F422EA0404002843EA04035D
:10481000A8BF00F160404FEA0313BCBF00F00F00D7
:10482000054ADBB2AABF00F56140135480F800339B
:1048300070BD00BF00ED00E014ED00E0002808DBD3
:104840004209012300F01F0003FA00F0014B43F876
:104850002200704700E100E02DE9F041D1E9074373
:104860004A6AD1E90158D1E903ECD1E90576096832
:10487000012943EA0403124904680FD01A432A436A
:1048800042EA080343EA0E0343EA0C033B43214098
:1048900033430B4303600020BDE8F08113434268BB
:1048A000114045EA080242EA0E0242EA0C023A438B
:1048B00024F4F844324323430A4303604260EAE7A6
:1048C0000080FFFFF0B5CB680C688E680D695F1E35
:1048D0004B6904F1FF3C4C688969013B1B05013CB5
:1048E000013E013D0139012A4FEA04144FEA062630
:1048F0004FEA05454FEA016143EA07330CD043EA2A
:104900000C032343826833432B4302F070420B4372
:10491000134383600020F0BD876827F4700727F4F5
:10492000704744EA06023B4342EA0C02C7688360D0
:104930002A4307F070470A433A43C260EAE773B577
:10494000002301931546D1E900321343CA6843EAB4
:1049500042238A68013A43EA42130193019B0361AF
:10496000044601F05BF90646A06910F0200003D070
:104970006B1CF9D015B9032002B070BD01F04EF9DF
:10498000801BA842F0D9F6E7436943EA410141613F
:10499000002070470268D36823F49073D3600268E4
:1049A000536923F001035361202380F83A307047A4
:1049B00070B50268C168136923F440530B43136157
:1049C0000446016883680069CA6803436069034359
:1049D000E06922F4164222F00C0203431343CB6039
:1049E0002268A169536923F440730B435361E3695F
:1049F000274AB3F5004F236829D1934203D002F52B
:104A00008062934220D1FEF771FF626800269218FF
:104A10004FF0190146EB0603A0FB0101FBF7E8FB91
:104A20006421B0FBF1F501FB1503DB003233B3FB6E
:104A3000F1F303F007025B00216802EB051203F4B7
:104A4000F87313448B6070BDFEF740FFDDE79342BF
:104A500002D0104A934217D1FEF748FF636819212C
:104A60009A00A0FB01019B0FFBF7C2FB6422B0FB85
:104A7000F2F102FB110324681B013233B3FBF2F3A2
:104A800003EB0113A360DEE7FEF720FFE6E700BFBC
:104A90000010014000140140F8B504460E461746C8
:104AA0001D4621680B6836EA030301D1002015E09A
:104AB0006B1CF7D09DB92268D36823F4D073D36000
:104AC0002268536923F001035361202384F83930AD
:104AD00084F83A30002384F838300320F8BD01F020
:104AE0009DF8C01B8542DCD2E5E710B5044650B303
:104AF00090F8393003F0FF021BB980F83820FEF738
:104B000043FB2268242384F83930D36823F400530C
:104B1000D3602046FFF74CFF2268136923F49043CB
:104B200013612268536923F02A0353612268D36812
:104B300043F40053D36000202023E06384F839302D
:104B400084F83A3010BD0120FCE72DE9F8431F46F8
:104B500090F83930202B04460D4690464FD100295D
:104B60004BD0002A49D090F83830012B47D0012390
:104B700080F838304FF000092123C0F83C9080F8CD
:104B8000393001F04BF8A4F824800646A4F82680BA
:104B900084F83890E38C9BB253B93B4632464021AF
:104BA0002046FFF779FF98B9202384F8393010E0C8
:104BB000E38C013B9BB2E384A368B3F5805F32468C
:104BC0003B464FF0800120460ED1FFF765FF10B144
:104BD0000320BDE8F8832B882268C3F308035360E1
:104BE000236943B90235D5E7FFF756FF0028EFD117
:104BF00023682A785A600135CCE70120E9E70220D2
:104C0000E7E790F83A30202B22D1F9B1F2B190F8D1
:104C10003830012B1CD0C285816282850168002357
:104C20002222C36380F8383080F83A20CA6842F400
:104C30008072CA6001684A6942F001024A610168F3
:104C4000CA6842F02002CA601846704701207047C7
:104C500002207047704710B590F83A30222B37D1B8
:104C600081680469836A0268B1F5805F27D1526860
:104C700004BBC2F308021A80836A02338362C48DC4
:104C8000013CA4B2C4859CB90268D36823F0200318
:104C9000D3600268D36823F48073D36002685369D9
:104CA00023F001035361202380F83A30FDF782FCA2
:104CB00000200EE0D2B21A80836A0133DEE7591C6D
:104CC000526881620CB91A70D9E702F07F02FAE7E4
:104CD000022010BD7047000070B502681368D168EB
:104CE00055691E07044607D19E065BD58D0659D52A
:104CF000BDE87040FFF7AFBF15F0010502D111F418
:104D0000907F4FD0D80705D5CA0542BFE26B42F06D
:104D10000102E2635E0704D51DB1E26B42F00202BC
:104D2000E263980704D51DB1E26B42F00402E2632E
:104D30001A0706D58E0600D41DB1E26B42F00802B8
:104D4000E263E26B4AB39D0604D5880602D520468D
:104D5000FFF781FF23685D69E26B1107204602D4EB
:104D600015F040051AD0FFF715FE23685A69520660
:104D700010D55A6922F040025A61636B53B1284A38
:104D80001A65606BFFF7BCFC38B1606BBDE8704022
:104D9000036D18472046FFF79DFF70BDFFF79AFF90
:104DA000E563FAE71E062BD50D0629D594F83930B0
:104DB000212BF2D1A168236AB1F5805F1BD11B883A
:104DC000C3F3080353602269236A92B90233236252
:104DD000E38C013B9BB2E384002BDED12268D368D5
:104DE00023F08003D3602268D36843F04003D3608C
:104DF000D3E70133EBE7591C21621B785360E7E7E7
:104E00005806CAD54B06C8D5D36823F04003D360F3
:104E1000202384F839302046FFF71CFFBDE700BF90
:104E2000254E000808B5806B0023C385C384FFF7B7
:104E300051FF08BD2DE9F74FDFF8B8C16B4CDFF823
:104E4000B891DFF8B881002301250A689D402A4007
:104E5000954240F0B2804E6826F010065F004FF099
:104E6000030E013E0EFA07FE012E6FEA0E0E0FD85A
:104E70008568CE6805EA0E05BE402E4386604E6802
:104E80004568C6F3001625EA02059E402E4346609B
:104E9000C5688E6805EA0E05BE402E43C6604D68A3
:104EA00025F01005022D14D14FEAD30A00EB8A0A2F
:104EB00003F0070BDAF820604FEA8B0B0F2505FA99
:104EC0000BF526EA05050E6906FA0BF62E43CAF81D
:104ED0002060056805EA0E0E4D6805F00305BD402B
:104EE00045EA0E0505604D68EE0066D54FF0000BF3
:104EF000CDF804B0DCF844603D4D46F48046CCF873
:104F00004460DCF8446006F480460196019E23F07C
:104F1000030606F1804606F59C3603F0030ED6F82C
:104F200008A04FEA8E0E0F2707FA0EF7A8422AEACA
:104F3000070749D005F58065A84247D005F580658B
:104F4000A84245D005F58065A84243D0484543D0E6
:104F5000404543D005F54065A84241D005F5806540
:104F6000A8423FD005F58065A8423DD005F5806593
:104F7000A84214BF0A25092505FA0EF53D43B56080
:104F80004D682768D643ED0354BF37401743276069
:104F90004D686768AD0354BF3740174367604D687D
:104FA000A768ED0254BF37401743A7604D68E76814
:104FB000AD0254BF37401743E7600133102B7FF435
:104FC00043AF03B0BDE8F08F5D46D5E70125D3E7D9
:104FD0000225D1E70325CFE70425CDE70525CBE75B
:104FE0000625C9E70725C7E70825C5E7003C0140B6
:104FF000000002400038024000100240001402404D
:105000000369194214BF0120002070470AB1816171
:1050100070470904FBE7F8B504460E4615461F46DF
:1050200021688A6836EA020301D0002030E06B1C58
:10503000F7D000F0F3FDC01B8542F1D82268536819
:1050400023F0E00353606368B3F5827F0BD1A3685C
:10505000B3F5004F02D0B3F5806F04D12268136816
:1050600023F040031360A36AB3F5005F09D12268FF
:10507000136823F4005313602268136843F4005349
:105080001360012384F85130002384F8503003204A
:10509000F8BD10B513464268B2F5827F04460BD1C5
:1050A0008268B2F5004F02D0B2F5806F04D120685B
:1050B000026822F0400202606268B2F5827F0BD182
:1050C000A268B2F5806F0A4607D080212046FFF71C
:1050D000A2FF20B9002010BD0A460121F6E7636D4A
:1050E00043F0200363650320F5E7000073B5134622
:1050F000124A134E15684268B5FBF6F64FF47A75FE
:105100007543B2F5827F044601950BD10A46802192
:10511000FFF781FF78B1636D43F0200363650320DF
:1051200002B070BD019B33B1019B013B0193236829
:105130009B681B06F6D40020F2E700BF0C0000209D
:1051400000366E0110B50446002839D00023836272
:1051500090F8513003F0FF021BB980F85020FDF7A2
:105160009BFF2268022384F85130136823F0400328
:105170001360D4E90023A1680B43E1680B43216964
:105180000B4361690B43E1690B43216A0B43A16A3D
:105190000B43A16901F400710B431360638B616AD7
:1051A000226803F004030B4353602268D36923F49D
:1051B0000063D36100200123606584F8513010BD85
:1051C0000120FCE72DE9F3411D4690F85030012BFA
:1051D00004468846174600F09480012380F850303A
:1051E00000F01CFD064694F85100C0B2012840F0C2
:1051F0008680B8F1000F58D0002F56D0032384F8D2
:105200005130A368C4F830800020B3F5004FC4E9E2
:10521000100008BF22686065A786E786A063A087A4
:10522000E08702BF136843F48043136023681A6861
:1052300052065EBF1A6842F040021A60E268636874
:10524000B2F5006F3AD10BB1012F0AD12368226B5E
:105250001288DA60236B02332363E38E013B9BB237
:10526000E386E38E9BB2A3B9324629462046FFF778
:105270003DFF002840D1A36833B901932368DA6861
:1052800001929B680193019B606D003018BF012063
:105290000BE023689A689007D9D400F0BFFC801B0C
:1052A000A842DED3691CDCD00320012384F85130EE
:1052B000002384F8503002B0BDE8F0810BB1012F1B
:1052C0000AD12368226B12781A73236B013323638C
:1052D000E38E013B9BB2E386E38E9BB2002BC3D0EF
:1052E00023689A689207EDD400F098FC801BA842CE
:1052F000F2D36B1CF0D0D7E720236365BBE7022015
:10530000D3E70220D7E72DE9F7431D4690F8503048
:105310000A9E012B04468846914600F0E98001234D
:1053200080F8503000F07AFC94F85130DBB2012B59
:1053300007460BD06268B2F5827F40F0D780A26842
:10534000002A40F0D380042B40F0D080B8F1000F49
:1053500000F0CA80B9F1000F00F0C680002D00F007
:10536000C38094F85130C4F83890042B1CBF052337
:1053700084F851300023C4E9103363652368E5875E
:10538000A587C4F83080E586A5861A6852065EBFF8
:105390001A6842F040021A60E2686368B2F5006F72
:1053A0005DD10BB1012D0AD1226B23681288DA601E
:1053B000236B02332363E38E013B9BB2E38601251B
:1053C000E38E9BB2ABB9E38F9BB293B93A463146B9
:1053D0002046FFF78BFE002840F08480A368002B56
:1053E00034D123680190DA6801929B680193019B94
:1053F0002CE02268936898070ED5E38E9BB25BB1D0
:1054000055B1236B1B88D360236B02332363E38E78
:10541000013B9BB2E386002522689368D9070DD52E
:10542000E38F9BB253B1A36BD2681A80A36B023394
:10543000A363E38F013B9BB2E387012500F0EEFB02
:10544000C01B8642BCD8731CBAD00320012384F849
:105450005130002384F8503003B0BDE8F0830BB125
:10546000012D0AD1226B236812781A73236B013342
:105470002363E38E013B9BB2E3860125E38E9BB25F
:105480001BB9E38F9BB2002BA0D0226893689807CA
:105490000ED5E38E9BB25BB155B1236B1B781373B2
:1054A000236B01332363E38E013B9BB2E38600252C
:1054B00022689368D9070DD5E38F9BB253B1A36BD4
:1054C000D2681A70A36B0133A363E38F013B9BB2D5
:1054D000E387012500F0A2FBC01B8642CED8731CD7
:1054E000CCD0B2E7202363650120AFE70220ADE70F
:1054F0000220B1E72DE9F3411D464368B3F5827FF1
:105500000446884617460CD1836853B9042380F8B3
:105510005130134600950A46FFF7F5FE02B0BDE88C
:10552000F08194F85030012B7CD0012384F8503066
:1055300000F074FB064694F85100C0B201286FD108
:10554000B8F1000F5AD0002F58D0042384F85130FE
:10555000002363652363E787A386E386C4E91033EA
:10556000A368A787B3F5004F08BF2268C4F8388046
:1055700002BF136823F48043136023681A68570638
:105580005EBF1A6842F040021A60E368FBB1E38F25
:105590009BB203B323689A68D20736D5DA68A36B47
:1055A0001A80A36B0233A363E38F013B9BB2E387B3
:1055B000EDE723689A68D00718D5A26B1B7B1370A0
:1055C000A36B0133A363E38F013B9BB2E387E38FBC
:1055D0009BB2002BEDD1324629462046FFF759FDFC
:1055E000D8B9606D003018BF012007E000F016FB4D
:1055F000801BA842EBD3691CE9D00320012384F867
:105600005130002384F8503088E700F007FB801BFE
:10561000A842BCD36B1CBAD0EFE720236365E0E758
:105620000220EBE7022079E710B5044640B390F87A
:10563000393003F0FF021BB980F83820FDF7E8FB92
:1056400022686168022384F83930136823F44033F8
:105650000B4313602268A168536B23F007030B43CD
:1056600053632268E168136C23F47F5323F03F03F4
:105670000B43136400200123E06384F8393010BD2C
:105680000120FCE77047704770B503685E681D68CD
:10569000F207044615D5E90513D51A6822F480727D
:1056A0001A60C36B43F00103C363036801229A606D
:1056B000042380F83930002380F83830436903B17F
:1056C0009847B20617D5AB0415D52268136823F4A2
:1056D00000531360236820229A60E36B43F00203B7
:1056E000E363042384F83930002384F83830636995
:1056F0000BB120469847300717D5290515D52268E4
:10570000136823F400631360236808229A60E36B34
:1057100043F00403E363042384F83930002384F85E
:10572000383063690BB12046984772070CD56B057A
:105730000AD52268136823F4806313602368042267
:105740009A602046FFF79EFFB00715D5A90513D52F
:105750002268136823F400731360236802229A609E
:10576000E36BE363012384F83930002384F8383095
:1057700023690BB120469847F20614D5EB0412D5E5
:105780002268136823F480531360236810229A6000
:10579000E36BE363012384F83930002384F8383065
:1057A0002046FFF770FF70BD70B590F83830012BC0
:1057B0004FF002032CD0012280F838200A0180F833
:1057C00039308418D4E9075345EA0343093D012DD4
:1057D000656A194E9ABF05F07F452B4343EA05637E
:1057E0000568B9B9696A31400B436B620368826925
:1057F0009A61C369093B012B04D8436A026823F00C
:105800007F439362012380F83930002380F83830D9
:10581000184670BDE96931400B43EB61831801689C
:105820009A690A61DB69093B012B9FBF636A0268C1
:1058300023F07F431362E5E7F0FFFC00F0B5056855
:105840004C68EB68D20184321544C3F30B431C440B
:105850006B6803F470436B6005680E68EB68013693
:10586000C3F30B431544334443EA04436B600568B8
:10587000CC68EB68C3F30A031C44AB189D6805F4BD
:1058800070459D6005688B68EE680133C6F30A06B3
:105890001544334443EA0443AB60036813440025D2
:1058A0001C6924F007041C6103680C6913441C6123
:1058B000046891F8326091F83170D1F818C014443E
:1058C000A369A561046891F8303043EA0C6314447D
:1058D00043EA072343EA0643A361036813445C6970
:1058E00024F0FF045C6103684C6913445C61046844
:1058F0001444E36923F4E06323F00703E3610368DE
:10590000D1E9074613443443DC61036813449C6ABD
:105910009D6203684C6A13449C620B6963B3012B5C
:105920002CD09C1E022C2BD9072B14BF012402243F
:1059300003681344DD6A05F0E025DD6203689D1805
:10594000D1E900639B1B8E6A63430333744343EACC
:105950000443EB6204681444236B23F4FF6323F0D5
:10596000070323630368C96A1344196301688B58EA
:1059700043F001038B50F0BD0424D9E70324D7E79B
:105980000224D5E738B50446002870D090F8A1303D
:1059900003F0FF021BB980F8A020FDF7B7FA2268D8
:1059A000022384F8A130936923F070439361D4E912
:1059B00001300343E068226803432069916903438F
:1059C0000B43936121682B4A8B6813408B602168DD
:1059D00060698B6843EA0043A06903438B602168D8
:1059E000CB681340CB602168E069CB6843EA004391
:1059F000206A0343CB6021680B6913400B61216867
:105A00000B69606A43EA0043A06A03430B612168A3
:105A10004B691A404A612268E16A536943EA0143CB
:105A2000216B0B435361216894F83600CA6A94F8DD
:105A3000355002F07F42CA62226894F83430D16A4D
:105A40000B4343EA052343EA0043D3622268536BC6
:105A500043F0060353632268936943F001039361A3
:105A600000200123C4F8A40084F8A13038BD01202F
:105A7000FCE700BF00F800F07047704770B503689E
:105A80009E6B5D6B7207044615D5690713D55A6B7B
:105A900022F004025A6303680422DA63D0F8A430C7
:105AA00043F00103C0F8A430002380F8A12080F85F
:105AB000A030FFF7E1FFB20717D5AB0715D5226875
:105AC000536B23F00203536323680222DA63D4F892
:105AD000A4301343C4F8A430042384F8A130002375
