:020000040800F2
:1000000000000320497C00081D2600081F26000868
:1000100021260008232600082526000800000000ED
:100020000000000000000000000000005174000803
:100030002726000800000000E1740008457500084C
:10004000997C0008997C0008997C0008997C00083C
:10005000997C0008997C0008997C0008997C00082C
:10006000997C0008997C0008997C0008997C00081C
:10007000997C0008997C0008997C0008997C00080C
:10008000997C0008997C0008997C0008997C0008FC
:10009000997C0008997C0008997C0008997C0008EC
:1000A000997C0008997C0008997C0008997C0008DC
:1000B000997C0008997C0008997C0008997C0008CC
:1000C000997C0008997C0008997C0008997C0008BC
:1000D000997C0008997C0008997C0008997C0008AC
:1000E000997C0008997C0008997C0008997C00089C
:1000F000997C0008997C0008997C0008997C00088C
:10010000997C0008997C0008997C0008997C00087B
:10011000997C0008997C000829260008997C000831
:10012000997C0008997C0008997C0008997C00085B
:10013000997C0008997C0008997C0008997C00084B
:10014000997C0008997C0008997C0008997C00083B
:10015000997C0008997C0008997C0008997C00082B
:10016000997C0008997C0008997C0008997C00081B
:10017000997C0008997C0008997C00080000000028
:10018000997C0008997C0008997C0008997C0008FB
:10019000997C0008997C0008997C0008997C0008EB
:0C01A00035260008997C00084126000864
:1001B00010B5054C237833B9044B13B10448AFF3A1
:1001C00000800123237010BD6001002000000000AA
:1001D00064C2010808B5034B1BB103490348AFF3E0
:1001E000008008BD000000006401002064C2010816
:1001F00053B94AB9002908BF00281CBF4FF0FF318E
:100200004FF0FF3000F072B9ADF1080C6DE904CE8B
:1002100000F006F8DDF804E0DDE9022304B07047E1
:100220002DE9F047089E04468846002B4BD18A42B0
:10023000154667D9B2FA82F24AB1C2F1200701FA33
:1002400002F320FA07F7954047EA030894404FEA83
:10025000154E230CB8FBFEF71FFA85FC0EFB178822
:1002600043EA084307FB0CF1994209D9EB1807F15F
:10027000FF3080F01B81994240F21881023F2B44ED
:100280005B1AA4B2B3FBFEF00EFB103344EA034446
:1002900000FB0CFCA44509D92C1900F1FF3380F0B8
:1002A0000781A44540F2048102382C4440EA07400B
:1002B000A4EB0C0400271EB1D4400023C6E9004380
:1002C0003946BDE8F0878B4209D9002E00F0EB805B
:1002D0000027C6E9000138463946BDE8F087B3FA81
:1002E00083F7002F47D18B4202D3824200F2FA807B
:1002F000841A61EB030301209846002EE0D0C6E982
:100300000048DDE702B9FFDEB2FA82F2002A40F0CF
:100310008F80491B4FEA154E1FFA85F80127B1FB64
:10032000FEFC230C0EFB1C1143EA014308FB0CF1FD
:10033000994207D9EB180CF1FF3002D2994200F232
:10034000CD808446591AA3B2B1FBFEF00EFB101407
:1003500043EA044408FB00F8A04507D92C1900F132
:10036000FF3302D2A04500F2B6801846A4EB080481
:1003700040EA0C409FE7C7F1200CBB4022FA0CFE7C
:100380004EEA030E01FA07F420FA0CF521FA0CF3F9
:100390004FEA1E482543B3FBF8F92C0C08FB193330
:1003A0001FFA8EFA44EA034309FB0AF49C4202FA5C
:1003B00007F200FA07F10BD91EEB030309F1FF3036
:1003C00080F087809C4240F28480A9F10209734446
:1003D0001B1BADB2B3FBF8F008FB103345EA034436
:1003E00000FB0AFAA24508D91EEB040400F1FF3312
:1003F0006BD2A24569D90238744440EA0940A0FB97
:100400000289A4EB0A044C45C2464B4654D351D052
:10041000002E69D0B1EB0A0564EB030404FA0CFC6E
:10042000FD40FC404CEA0505C6E90054002747E7BB
:10043000C2F1200320FA03F7954001FA02F021FAF5
:1004400003F34FEA154E3843010CB3FBFEF71FFAD6
:1004500085F80EFB173341EA034107FB08F38B4293
:1004600004FA02F407D9691807F1FF3C2FD28B4236
:100470002DD9023F2944CB1A81B2B3FBFEF00EFB0B
:10048000103341EA034100FB08F38B4207D9691896
:1004900000F1FF3C17D28B4215D902382944C91A02
:1004A00040EA07473BE73746304609E70746E7E6B5
:1004B0001846FBE64145ABD2B8EB020A69EB0E02E7
:1004C00001381346A4E76046E9E7184695E7674612
:1004D000D1E781467CE702382C4447E7ACF1020CB7
:1004E0002B442FE7384608E73746E9E6704700BF58
:1004F00001F0FF01102A2BDB10F0070F08D010F8D5
:10050000013B013A8B422DD010F0070F42B3F6D1D8
:10051000F0B441EA012141EA014122F007047FF0F1
:1005200000070023F0E80256083C85EA010586EA48
:10053000010685FA47F5A3FA87F586FA47F6A5FA84
:1005400087F68EB9EED1F0BC01F0FF0102F0070290
:1005500032B110F8013B013A83EA010313B1F8D13B
:100560000020704701387047002D06BF354603381C
:10057000073815F0010F07D1013015F4807F02BF55
:10058000013015F4C03F0130F0BC0138704700BFA6
:100590007047704770477047704700F0A5B810B5B6
:1005A0004FF4357104461AF053FE204610BD00008A
:1005B00010B5044600F0BCF9014B2360204610BD85
:1005C000C4C20108704704387047704710B5102145
:1005D00004461AF03DFE204610BDA0F10400F5E7E8
:1005E00010B500228260044AC16002F10804203282
:1005F0000460426010BD00BFF0C20108002202602A
:1006000070477047704700F596730868496803C3E0
:100610007047704700F06ABB10B54FF4AC710446E8
:100620001AF016FE204610BD10B50446D0F854014D
:10063000FFF7E7FF2046BDE810400BF08BBE10B57A
:100640000446D0F83C0158B10368DB68984738B1DC
:10065000D4F83C0103689B6898470023C4F83C31F8
:1006600010BD000010B5044600F008FB014B2360EC
:10067000204610BD20C3010890F8252012B1036860
:100680005B69184770470020704781807047C180C0
:1006900070470181704741817047704770477047CC
:1006A00070477047C38810B4D21A83885DF8044B32
:1006B000C91A036812B25B6D09B218474FF6FF738F
:1006C00083814FF0FF3303621368C361106070478A
:1006D0007047704790F825201AB190F8242002B195
:1006E000186070477047704770477047704770B424
:1006F000C668456874100346F60705EB04009B685E
:1007000044BF2C59E35870BC184743682BB1836829
:100710002BB9C06800F001007047184670470120EF
:10072000704730B4C56844686A100346ED0704EBAF
:1007300002009B6848BFA25830BC48BFD358184736
:1007400043682BB183682BB9C06800F00100704783
:10075000184670470120704710B5082104461AF06A
:1007600077FD204610BD10B5102104461AF070FD2B
:10077000204610BD10B5102104461AF069FD204630
:1007800010BD10B54FF4357104461AF061FD2046D6
:1007900010BD00F1FC038B4203D1B0F82C0101F035
:1007A000C7BB704708B500F16C0399421AD100220B
:1007B0000421134803F0EAFD4FF47A7004F0F4FBCF
:1007C000012204210E4803F0E1FD0E4B186805F0EC
:1007D00095FC642004F0E8FB4FF4FA60BDE80840A3
:1007E00001F0A6BBB430814208D1064B186805F071
:1007F0008BFE642004F0D8FB0020EFE708BD00BFAB
:1008000000080240082D012070B5036804461B6BE8
:10081000154698472368294620465B6BBDE8704023
:10082000184770B504461E46BDF91050FFF7ECFF9F
:100830002368314620469A6B904723682946204614
:10084000DB6BBDE870401847F8B51A4B018F1B8869
:100850008B4206462AD9184B1B682BB9174B184AEE
:100860001848AE211AF000FD13F81120164B1B6832
:1008700053F82250154B186800F012FD2B680746FC
:1008800001469B6A284698472B6804461B6C3946EC
:10089000284698472B6814FB00F45B6A39462846C3
:1008A0009847E4B2204486F84500F8BD002380F85C
:1008B0004530FAE7242B0120202B0120A4C3010896
:1008C0005CC40108E6C30108282B01202C2B012061
:1008D00010B5012180F82510134901601349816288
:1008E00000224FF6FF714FF47F048280C2800281A4
:1008F00042818281C28102824282C0E90522C261B4
:100900000284428480F8242081850263446380F855
:10091000382080F839208287C287A0F84010A0F8DC
:100920004210426410BD00BF68E101086CC30108B9
:100930002DE9F04F04468FB00DF0DCF8224600257B
:10094000A54BE56342F8403B4FF0010384F8653066
:10095000A24B2364FF2384F8663004F16C03A4F8EF
:100960004450A4F84650A4F84850A4F84A50A4F8BB
:100970004C50A4F84E50A4F85050A4F85250C4E97A
:100980001555E565A4F86050A4F8625084F86450E9
:10099000A5661846049202930AF012F904F1B40312
:1009A00004F1FC071846039304F5FC790AF008F9F2
:1009B000384607F045FF04F5107848460EAEFFF7BD
:1009C00087FF4046FFF784FF4FF6FF7326F8083D88
:1009D00004F5227B3146584609F004F8804BC4F8F0
:1009E000B432804BC4F8BC327F4BC4F8C4327F4B66
:1009F000C4F8CC324FF4A073C4F8C052C4F8D0523B
:100A000000932A4629460498C4F8B842C4F8C8425C
:100A1000F023FFF706FF4FF07F43A36602985022B2
:100A20003921FFF7F1FE4FF0030A4FF00103324680
:100A30000BA90298ADF83030ADF82C5009F0A5FEA6
:100A4000A4F8A4A00298FFF7FFFE04F52D734FF061
:100A5000FF32C4E92A22C4F8943003980593B122E6
:100A60003921FFF7D1FE4FF0010332460BA903985D
:100A7000ADF83030ADF82C5009F087FE4FF0020190
:100A8000A4F8EC100398FFF7DFFE059BC4F8DC30F8
:100A90004FF0FF30C4E93C00472238460B21FFF7F6
:100AA000B3FE04234FF00201ADF82C30ADF8301046
:100AB00033460BAA0AA93846ADF828A007F01CFF58
:100AC0007D23CDE9005352462B463846072107F0D7
:100AD000CDFD4FF4FA622946384607F0AEFC2946B0
:100AE000384607F036FC04F53173C4F8F4310822B7
:100AF00048462321FFF788FE0DF1180A4FF0FF3119
:100B0000C4F82812A4F82C524946504609F09AFA23
:100B10009AE8070004F50D7383E80700344B0C9343
:100B20004FF0010231464846ADF8342009F0D0FDBF
:100B300040462F223D21FFF767FE4FF0FF32C4F8F9
:100B40007022A4F874524146504609F07BFA9AE8A4
:100B5000070004F51F7383E80700254B0C9331460B
:100B60004046ADF8345009F0B3FD052331465846F0
:100B7000ADF8303009F0E5FED7235B22009329461B
:100B8000EA235846FFF74DFE29465846251D08F032
:100B9000F0FE7B2384F8B0320499284607F086F9EA
:100BA0000299284607F082F90399284607F07EF952
:100BB0003946284607F07AF94946284607F076F97B
:100BC0004146284607F072F92846594607F06EF963
:100BD00020460FB0BDE8F08F30C4010828E20108BC
:100BE0007CC30108A507000894C301089307000807
:100BF0006CC3010870477047704741607047704789
:100C00000123037270477047704710B4C46841688D
:100C100062100346E40701EB02009B6848BF8A5854
:100C20005DF8044B48BFD358184743682BB183681D
:100C30002BB9C06800F001007047184670470120CA
:100C4000704710B50C2104461AF002FB204610BD77
:100C500010B54FF4AC7104461AF0FAFA204610BDF4
:100C600010B5102104461AF0F3FA204610BD08B55D
:100C70000BF0F0FCBDE808400CF0B4B8F8B5044641
:100C800017460E460BF006FD144BC4F854611C6069
:100C9000134E144B236000253068134BC4F83851B1
:100CA000C4F83C51C4F84031C4F84451C4F8485128
:100CB000C4F84C51C4F85071036801219B689847EF
:100CC000284600F0B3FA336893F876200AB1D86C5E
:100CD00000B9986813F047F92046F8BD1C2B012095
:100CE000D02A0120ACC4010894C40108064BC0F806
:100CF00048310023C0F84C3100F5A073C0F844011E
:100D0000C0F83C31704700BF4D0E00082DE9F04798
:100D100007469068DDF820A0994603681B6A88465C
:100D200015469847B0F5357F05D2424B424AA3217C
:100D300042481AF099FA686803681B6A98470F28B6
:100D400003D83F4B3C4AA421F2E7E86803681B6ADA
:100D500098470B2803D83B4B374AA521E8E70BF00F
:100D600079FC0BF07DFCD9F8000010B10368DB685A
:100D70009847D9F8000010B103681B689847386895
:100D800010B103685B699847D8F8000010B1036898
:100D90005B689847386810B103681B689847D8F8B3
:100DA000000010B103689B689847E8680368002159
:100DB0005B6A9847044620B1002343600372224BCC
:100DC0000360A868036800215B6A9847064608B17B
:100DD000FFF7EEFB6868036800215B6A98470546E9
:100DE00010B13146FFF7FCFBC9F80040C8F80050CD
:100DF0003E60E5B12B1DCAF80030C5F808A0336885
:100E0000F5633046DB6898472B6828461B6898478F
:100E1000214630460DF01AF8236820461B69984792
:100E2000236820465B6998472846BDE8F0872B4633
:100E3000E1E700BF14C5010829C70108A2C50108E0
:100E4000E3C5010886C60108F8C4010807B5D0F853
:100E500054310093D0F85021044B00F59C710448A4
:100E6000FFF754FF03B05DF804FB00BF102B012017
:100E70000C2B012013B5002249B102AB019203F8FB
:100E8000052D0268946801AAA04702B010BD08466B
:100E9000FBE7408970478089704780887047837975
:100EA0008088184480B27047C07900F07F00704796
:100EB000C079C0097047006A7047406A7047704740
:100EC0008B8880690A68DB0A50F823001044704759
:100ED00010B5C2B1137BB3B1547BD27A240204F4AF
:100EE000E0641443C26998B202EB840213888B4217
:100EF00002D192F9020010BD05D8013880B2043247
:100F00000028F3D1F7E70020F5E710B528210446C3
:100F10001AF09EF9204610BD30B589B00446BDF8E0
:100F200050500695BDF84C5005959DF840500495DD
:100F30009DF83C5003959DF8385002959DF834502B
:100F400001959DF8305000950CF0BEFB064B2360D8
:100F5000119BA361129BE361159B2362169B636245
:100F6000204609B030BD00BF3CC8010830B5164D61
:100F70002C78BFF35B8F14F001048DB020D128468C
:100F80001AF03DF9E0B13F230793104B0693104B45
:100F9000104908940122CDE904430423CDE901322C
:100FA000CDE909440A23039400940B48FFF7B4FFEA
:100FB00028461AF030F9094A094907481AF043F956
:100FC00005480DB030BD00BF7C0100205C05020863
:100FD00058050208CC030208800100200000002010
:100FE000BF0E000830B5164D2C78BFF35B8F14F0A0
:100FF00001048DB020D128461AF001F9E0B13F2359
:101000000793104B0693104B104908940122CDE929
:1010100004430423CDE90132CDE909442823039494
:1010200000940B48FFF778FF28461AF0F4F8094AB5
:10103000094907481AF007F905480DB030BD00BF4F
:10104000A80100205405020870050208F4030208F4
:10105000AC01002000000020BF0E000830B5164D86
:101060002C78BFF35B8F14F001048DB021D128469A
:101070001AF0C5F8E8B13F230793104B0693104BC5
:1010800010490894CDE9044301220423CDE901323B
:10109000CDE9094418221423039400940A48FFF769
:1010A0003BFF28461AF0B7F8084A094906481AF0E3
:1010B000CAF805480DB030BDD40100206005020813
:1010C0007405020804040208D80100200000002072
:1010D000BF0E0008704710B5042104461AF0B8F896
:1010E000204610BD012908B508D003D3022909D034
:1010F000002002E000F012F8006808BD00F00EF8D1
:101100004068FAE700F00AF88068F6E700487047A0
:10111000A0C80108062070470420704700487047A7
:101120000002002010B5FFF799FF044C2060FFF784
:1011300059FF6060FFF71AFFA06010BD0002002099
:1011400000207047002070470EB403B503AB0021A8
:1011500053F8042B01930CF0E9F802B05DF804EBAE
:1011600003B070470CB407B504AB53F8042B0193DC
:101170000CF0DCF803B05DF804EB02B0704700003F
:1011800010B5436C044673B3038F2BB9184B194A3F
:10119000C02119481AF068F8C38E00EB43035B8C3A
:1011A0000BB30DF0EBFB238F012B03D8134B144A29
:1011B000C521EEE7E28E531C9BB2092B194688BF6E
:1011C000A3F10A0104EB410140F63F10498C814232
:1011D00009D10A2B04EB420228BF002304EB43038E
:1011E000508C588451842046BDE810400DF0AABAB6
:1011F00018C9010845CA010821C9010865C90108C3
:1012000073C901080DF056BA10B586B002AC84E877
:1012100006001A460AAB05930193099B00932146E9
:10122000089B0AF01DFD06B010BD000038B5D8B906
:10123000114B12481B681249BBB11A689C681A44CA
:1012400002605A681A440A601C446CB10D4B0022BB
:101250001A80FFF763FF0546FFF75EFF0A4B1C602D
:101260000A4B1D600A4B188038BD0A4B03600A4BBD
:101270000B600A4B1C68E8E70C02002010020020FB
:101280001402002018020020202B0120282B01200E
:10129000242B0120B05A0808945A0808AC5A0808B0
:1012A000044B1B6853F82100034B1B6803EB400001
:1012B000704700BF1402002010020020012380F8B4
:1012C000741080F875307047002070474164034BFC
:1012D000003118BF01211970704700BFCD2A0120CD
:1012E00000207047836B0BB10846184770474FF6D4
:1012F000FF707047406803689B69184770477047E4
:10130000034B902283F85A2383F85823704700BF79
:1013100000E100E0094A0A49D3680A48C3F30A0316
:10132000013B9BB20B801169C1F30A0101390180B5
:101330001364536B43F0010353637047006801402B
:101340001E0200201C020020014B986A704700BF5B
:1013500084680140024B0122996243F8602C704777
:101360008468014070B5044607F065FB23685D6E34
:101370000BF070F901462046A8472368054AD3F8C8
:1013800088502046AC460023A2F51631BDE87040D7
:10139000604700BF005802D010B531B90A4B0B4A64
:1013A0000B4840F2BB2119F05FFFC0E90F12003279
:1013B000084918BF01220A7002681946D2F88C2029
:1013C000BDE81040104700BF53CB01080DCC010809
:1013D0008BCB0108CC2A012008B5094B1B888B4216
:1013E00003D8084B1B88934205D9074B074A084886
:1013F0009E2119F039FF074B1980074B1A8008BD51
:10140000C22A0120C42A0120F0CA0108CACB01085F
:101410008BCB0108C82A0120CA2A012007F0F2BAA2
:1014200090F84B3013B1024B01221A7007F0F6BA54
:101430001A02002007F0AFBA07F009BC10B5044645
:1014400008F018F923682046D3F8AC30BDE8104006
:10145000184790F877301BB1406803681B6818473D
:101460001846704710B590F8744090F834100C4B43
:101470008C421A7809D03AB90A4A0B49148808886C
:1014800010800C8001221A7010BD002AFCD0054A81
:1014900005491488088810800C800022F3E700BFFB
:1014A000C62A0120C22A0120C42A0120034B4FF082
:1014B00080629A604FF080729A60704700E100E0AD
:1014C000084B4FF08062C3F88820BFF34F8FBFF303
:1014D0006F8F4FF08072C3F88820BFF34F8FBFF338
:1014E0006F8F704700E100E010B5144C236823B300
:1014F000134B144A1B6C11888B4213D1124B198861
:1015000003F006FD226892F86630013382F86630F7
:1015100000F004FA206808F0ADF80020BDE81040A3
:1015200000F006BC03F0F4FC206803681B6A9847CF
:101530000020BDE8104000F0FCBB10BDD02A012007
:10154000006801401E0200201C02002003685B6C42
:1015500018470120704703689B6A184782B0002330
:1015600001930D4B1A6B42F400021A631A6B02F4DA
:1015700000020192019A1A6942F400021A611A6982
:1015800022F400021A61054B054A1A61054B4FF01F
:1015900080629A6002B0704700380240B82D012086
:1015A000B115000800E100E040F2EF3070470000A4
:1015B000024B1B68586803685B691847D02A0120F2
:1015C00008B50B280BD8DFE800F01206100A0A0A4B
:1015D0000A0808080808012008BD0520FCE7054B9B
:1015E000054A0648672119F03FFE0020F4E7022073
:1015F000F2E700BF75CC010846CD010890CC010888
:1016000008B50A2809D8DFE800F010060E08080817
:10161000080606060600012008BD054B054A0648D7
:10162000882119F021FE0020F6E70220F4E700BF30
:1016300075CC010890CD010890CC0108F8B50C4696
:10164000487FFFF7BDFFA77F05463846FFF7B8FF85
:1016500006463846FFF7D4FFA38A628BD21A494B5D
:101660001A64A18A628B521A9A61A18A228B521A39
:101670001A615863A18AE28A42EA01425A642269E5
:10168000DA636268DA602268402A70D010D8042ACF
:101690003BD0202A6BD0237F45EA0365394B45F4C4
:1016A0000035DD61617FA27F914267D0364A4BE011
:1016B000B2F5807F1BD0B2F5007F23D0802AEAD11B
:1016C000A068021DDA62227F45EA026545F4003512
:1016D000DD615E6222695A610278EAB1012A35D081
:1016E0002A4B2B4A2B484FF4897119F0BDFD217FFD
:1016F000294A42EA0162DA61E2681A625E6222699C
:101700005A6120E0217F254AF3E7227F45EA0265FE
:1017100045F40035DD61F1E7D9694288501E21F4B6
:101720007F4222F0100242EA0022DA610121154BC9
:10173000DA6942F02002DA61DA699206FCD41022FA
:101740009A600029B2D0164A1A60F8BDDA6940885A
:10175000217F22F47F4222F01002013842F0100271
:10176000FF3942EA002218BF0121DA61DFE7237F57
:1017700045EA036545F40035024BCBE740F2012210
:10178000E2E700BF00B00240010201005BCC0108AB
:1017900008CD010890CC01080A00020009000200EF
:1017A0000102020010B5887F0C46FFF729FF1C4B91
:1017B0005863A18AE28A42EA01425A642269DA63E2
:1017C000628BA18A521A1A642268082A16D1A18A49
:1017D000628B521A9A61A18A628B521A1A615862FC
:1017E000217F104A42EA0162DA61E2681A622269E4
:1017F0005A612269DA600C4A1A6010BD0022D86171
:101800001A61E1680A0A480902F4784200F4FC60AF
:101810000243C1F3C4010A439A63044AECE700BFE0
:1018200000B00240090001000102020001020300B1
:10183000054B0360054B4FF08062C3F88820BFF36F
:101840004F8FBFF36F8F7047C0CC010800E100E0FD
:1018500010B50446FFF7ECFF20464FF45A6119F02B
:10186000F7FC204610BD000070B505462C460A4B1B
:101870000C30002668602E726E7244F8203B6022A5
:10188000214608F05FF805F55A63E6602434A34268
:10189000FBD1284670BD00BFC0CC0108012108B5AE
:1018A0000022084605F0E6FA0A4B186028B90A4BF0
:1018B0000A4A29210A4819F0D7FC002204210120F4
:1018C00005F0A2FB074B186018B9074B034A2D21FE
:1018D000F0E708BD24020020DBCD01088FCE01080F
:1018E00024CE0108200200204DCE0108024B4FF00B
:1018F000FF31186805F014BB24020020014B186862
:1019000005F04ABB24020020024B0021186805F0B4
:1019100007BB00BF24020020FFF7F0BF03480449C3
:10192000006800231A4605F0B5BB00BF2002002066
:101930000400002013B5084C00231A4601A92068B2
:1019400005F0EAFB4FF0FF33002201A9206805F003
:10195000E3FB02B010BD00BF2002002070477047BB
:101960007047012070470C2070470C2303FB0100D7
:10197000083070470C2303FB01000830704701203A
:1019800070474FF4357070474FF4357303FB010017
:10199000083070474FF4357303FB0100083070477F
:1019A000012070471020704700EB0110083070478D
:1019B00000EB0110083070470846FFF797B90000A8
:1019C00010B5034B0360044606F0EAF9204610BD4B
:1019D00030CF010810B50446FFF7F2FF204614216E
:1019E00019F036FC204610BD10B5034B03600446C9
:1019F00006F0D6F9204610BDFCCE010810B504460D
:101A0000FFF7F2FF20464FF4377119F021FC204612
:101A100010BD000010B5034B0360044606F0C0F98A
:101A2000204610BDC8CE010810B50446FFF7F2FFEE
:101A30002046182119F00CFC204610BD10B5084BAB
:101A40000360044600F54270FFF7BAFF04F12C0072
:101A5000FFF7CAFF04F11400FFF7DCFF204610BDBA
:101A600064CF010810B50446FFF7E8FF20464FF4A5
:101A70008F6119F0EDFB204610BD00002DE9F34108
:101A8000FFF744FB0546FFF745FB002401462346CC
:101A90002846224600940DF079FA274B274A284D14
:101AA0001A602046FFF7C2FB26480DF0BBF92B78E1
:101AB000BFF35B8FDB0738D4284619F0A0FB002862
:101AC00033D0214C214B236004F5487604F11400F7
:101AD00004F12C0804F542776060C4F80880E760E0
:101AE000266106F05FF91A4B6361404606F05AF929
:101AF000184BE362384606F055F9174BC4F8083323
:101B000004F54770FEF77AFD224604F5477130462A
:101B1000FEF7A8FD3046FFF7E9F8284619F07BFBF1
:101B20000E4A0F49204619F08EFB0E4802B0BDE860
:101B3000F04100F0D1B800BF2C2B0120C4140020CC
:101B400028020020080000202C02002064CF010899
:101B5000C8CE0108FCCE010830CF010800000020EB
:101B60003D1A000848140020014800F0B7B800BF33
:101B70004814002010B50421044619F069FB2046E2
:101B800010BD10B57821044619F062FB204610BD47
:101B900010B57C21044619F05BFB204610BD000007
:101BA000F8B5394C394D3A4F3A4B3B492B602246F8
:101BB000284619F048FB394E3846FFF755FE2246B5
:101BC0003749384619F03FFB304610F081FB22467A
:101BD0003449304619F037FB22463349334819F06F
:101BE00032FB3348334941663349C5600023012243
:101BF000324D0385C0E90176C0E90433C0E90633FC
:101C0000C0E9083380F82A30C3620386C0E90E3386
:101C1000C0E9103380F8483080F8492080F84A3015
:101C200080F84B30C0E91333C0E91533C0E91733EE
:101C300080F8683080F8693080F86A3080F86B305E
:101C400080F86C300860F02129801D4D03672980E1
:101C50001C4D80F874304FF4A07129801A4D80F823
:101C600075302980194980F876300B70184B80F850
:101C7000772080F8782080F83420036022461549C8
:101C8000BDE8F84019F0DFBA00000020A4060020EB
:101C9000A806002050D001085D190008C8140020D3
:101CA000311800085F190008D5100008080000204E
:101CB0004814002001000001D02A0120C22A01207E
:101CC000C82A0120C42A0120CA2A0120C62A0120CC
:101CD00078CF010861190008FFF744BB08B5036815
:101CE0000446D3F880309847236820469B6F984776
:101CF000FFF720FE236820461B6F9847292000F03D
:101D000033FCFFF717FE236820461B6F9847F8E760
:101D1000FFF71ABBFFF71EBBFFF78CBBFFF7F0BA4C
:101D2000FFF7C4BBFFF7CCBBFFF7F4BA06F02DBE3C
:101D3000704770477047000038B50C4B0C4C18804A
:101D40000C4B822019806368984740F61103984233
:101D50000AD1094D23682C60822098472B68822085
:101D6000DB689847002038BD0120FCE740150020C3
:101D70002400002042150020441500204FF4A071DB
:101D8000F020FFF7D9BF0000F7B52C4D2B680446B3
:101D90001B698220984780B2208000284BD02B6896
:101DA0000DF106025B6901A982209847BDF8063053
:101DB000A3F5B4739BB20B22B3FBF2F333B1204A09
:101DC00012889A423CBF02F1FF339BB2BDF8042057
:101DD00040F6B8318A4295BFC2F57162C2F56D62B4
:101DE0000E320832ADF80420BDF804100F22B1FB0A
:101DF000F2F131B1134A12888A423CBF02F1FF313D
:101E000089B2114E114D30682F6882B2814288BF6D
:101E10008A1AB8B298BF521ABB428CBF181AC01A9D
:101E200092B280B20244052AC4BF31602B6033688D
:101E300063802B68A38003B0F0BD00BF4415002071
:101E40004215002040150020481500204C150020A8
:101E500037B568460D461446FFF796FFBDF80000FB
:101E600030B1BDF802302B60BDF804302360012092
:101E700003B030BD054BD3F8882042F47002C3F89C
:101E800088204FF000629A60704700BF00ED00E0CC
:101E900030B5014689B00022362002F0ABF836207A
:101EA00002F0DCF80025154B02951A6C144C42F038
:101EB00010021A641B6C03F01003029301A903A81B
:101EC000029B01F045F901F033F90E4B236040F21B
:101ED000E733E36040000C4BB0FBF3F00138606087
:101EE00020462561A56001F001FB20B9204601F0E4
:101EF000DBF909B030BD0120FBE700BF003802402C
:101F0000D42B01200010004040420F0007B5064BC3
:101F100002A91B6821F8020D0122044802F012FBFD
:101F200003B05DF804FB00BF14000020682C012002
:101F300030B5094D89B000246023CDE90130224637
:101F400001A928460394059401F03AFB214628464E
:101F500001F0CEFB09B030BDC02C012010B5082126
:101F6000174802F00DFA024698B94FF4804115481F
:101F700002F00CFA01224FF40051124802F006FA66
:101F8000642003F011F84FF4FA60BDE81040FFF749
:101F9000CFBF08210A4802F0F3F9012804460DD109
:101FA00000224FF40051074802F0F0F9054822469C
:101FB0004FF4804102F0EAF90020E6E710BD00BFCF
:101FC000000802400018024008B5FFF7C7FF0120D3
:101FD00004F036FFF9E70000F0B53024A1B0224646
:101FE000002108A819F0BBF91422002103A819F058
:101FF000B6F92246002114A819F0B1F90024224BA9
:1020000001941A6C42F080521A641B6C03F08053E6
:102010000193019B1D4B02941A6842F440421A60DE
:102020001B6803F4404302930122029B4FF4803368
:10203000CDE9082302254FF48003CDE90E5308278C
:102040004FF4A873042608A8CDE9107312951396CF
:1020500000F0FCFD0F23CDE903354FF4A0514FF400
:102060008053CDE9061303A80521059400F0C2FFB3
:10207000C023189314A84FF4003314971A961D9395
:1020800002F0A6FF21B0F0BD003802400070004011
:1020900080B59AB002F05CFFFFF79EFF142200218A
:1020A0000DA8002419F05BF9C54B00941A6BC548C4
:1020B000C54D42F020021A631A6B02F02002009212
:1020C000009A01941A6B42F080021A631A6B02F0B4
:1020D00080020192019A02941A6B42F004021A6380
:1020E0001A6B02F004020292029A03941A6B42F0F5
:1020F00001021A631A6B02F001020392039A04941C
:102100001A6B42F002021A631A6B02F00202049286
:10211000049A05941A6B42F040021A631A6B02F09B
:1021200040020592059A06941A6B42F010021A6357
:102130001A6B02F010020692069A07941A6B42F08C
:1021400008021A631B6B03F008030793224604215D
:10215000079B02F01BF922464FF440519B4802F0C6
:1021600015F922464FF4C041994802F00FF90126B3
:1021700002274FF004080DA992480F94CDE90D866F
:10218000109702F017F84FF484730DA98D480F943F
:10219000CDE90D3402F00EF84FF440530DA98B48F1
:1021A000CDE90D36CDE90F4702F004F80DA94FF443
:1021B000C0438748CDE90D36CDE90F4401F0FAFF61
:1021C0008448854B036003F031F8844A844B2C62C9
:1021D000C5E9002328464FF48043C5E90434C5E926
:1021E0000244C5E9064401F05BFC1021284601F0D9
:1021F000A9FE2146284601F0C7FE7A487A49846242
:102200004FF48273C0E900134FF400751823C0E93E
:1022100006530A23754DC362C0E90244C0E9044471
:10222000C0E9084402F04EF9714B0D974FF0100CC5
:10223000C5E900364023C5E904C34FF4C073C5E9BE
:1022400006344FF40063C5E908344FF400534FF0EF
:10225000030AAB620DA907232846CDE90E38109377
:102260004FF00809C5E90248CDE911A7139700F01E
:10227000A3FC4FF6FF7209A92846CDE90A960894F7
:1022800009960C9400F0B8FC304602F08DFE4FF633
:10229000FF7209A92846CDE90979CDE90B6400F060
:1022A000ABFC4FF6FF7209A92846CDE909A9CDE993
:1022B0000B8400F0A1FC4FF40C730893089B0C9363
:1022C0004FF6FF7209A92846CDE909890B9600F05F
:1022D00093FC40F26A51284600F0A5FC34222146C6
:1022E0000DEB020019F03BF8424D434B2C61C5E960
:1022F00000340923C5E905361D2340F20D1EC5E94A
:10230000073A40F24313C5E909E340F2171840F2D7
:102310004713C5E90B83C5E90244AC8685F836400E
:10232000284602F0EFFCFF21F022CDE912144FF411
:10233000806905214FF4A073CDE90E24CDE91491F5
:10234000CDE916420DA922462846CDE910372B4D7E
:1023500018930D94ADF864408DF8664002F0AFFD1F
:10236000274B2B601B68DFF8A8A098472B68254DEA
:10237000DB689847244BC5E90A47C5E90C44284661
:10238000C5E90034C5E9027402F00EFB3146284667
:1023900002F0CAFB1D4D1C2221460DA818F0DFFFDC
:1023A00040F2A313C5E900A3284640F2CF73C5E964
:1023B0000334AC60AC6101F099F828462AE000BF14
:1023C0000038024000080240142C0120000C02409A
:1023D00000180240002D012000300240005C004047
:1023E000A0860100682C012000500140F82D01203A
:1023F000400100A00C2D0120006801405015002074
:102400004C000020B82D012000B00240C02C01205B
:102410000044014001F084F8602322460DA92846BB
:10242000CDE90D340F94119401F0CAF8284600F05C
:10243000F1FA02F00BFF2046FFF77AFD04F070FC82
:10244000084A0948214604F0A5FC084B084A1860D0
:102450002146084804F09EFC074B186004F07AFC03
:10246000FEE700BF78D0010851520008B42D0120CA
:102470009CD00108C91F0008082D01207047704733
:1024800010B586B006AC074B04F8012D1B6802930B
:1024900001230A46CDE900430146034801F0B0FBA1
:1024A00006B010BD10000020142C01207FB506AA34
:1024B000002302F8013D084B1B6802930123CDE97C
:1024C00000230A460146054801F02EFC9DF817003E
:1024D00007B05DF804FB00BF10000020142C0120A1
:1024E0001FB5084C24680092CDE901340A46012347
:1024F0000146054801F018FC003018BF012004B067
:1025000010BD00BF10000020142C012002F04CBDB3
:1025100010B5064C00222046042101F037FF20466A
:1025200001220421BDE8104001F030BF0008024044
:1025300038B50B4C054601224FF40051094801F013
:1025400025FF00220421204601F020FF2846FFF746
:10255000DDFC204601220421BDE8384001F016BF11
:1025600000080240000C024038B50B4C0546002222
:102570004FF40051094801F009FF002204212046D0
:1025800001F004FF2846FFF7C1FC20460122042188
:10259000BDE8384001F0FABE00080240000C0240DD
:1025A000F7B5144C144D07460E4620460022042170
:1025B00001F0ECFE00224FF40051284601F0E6FE47
:1025C0003846FFF7A3FC0D4B0D481B68324601A9A6
:1025D00002F050F9284601224FF40051019E01F00B
:1025E000D5FE20460122042101F0D0FE304603B082
:1025F000F0BD00BF00080240000C024014000020A3
:10260000682C012002F0D0BC0268034B9A4201D131
:1026100002F0B8BC704700BF001000407047FEE7F2
:10262000FEE7FEE7FEE77047014800F053BE00BF3B
:10263000D42B0120014802F0E1BB00BF0C2D01208A
:10264000014802F0E1B900BFB82D012008B50A4BDE
:102650001968024609B909491960186869460244AF
:102660008A4206D918F02CFE0C2303604FF0FF308D
:1026700008BD1A60FCE700BF54150020782E012029
:1026800082B00E4B00220092596C41F48041596493
:10269000596C01F48041009100990192196C41F04C
:1026A000805119641B6C03F080530193019B0F212F
:1026B0006FF0010002B001F09DBC00BF0038024085
:1026C0000268094B9A4282B00BD100230193074B59
:1026D0001A6B42F480521A631B6B03F4805301930C
:1026E000019B02B0704700BF00300240003802403A
:1026F00007B50F4B02689A4216D10022A3F5F043AA
:102700000192196B41F4000119631B6B03F4000380
:10271000019305215A20019B01F06CFC5A2003B063
:102720005DF804EB01F09ABC03B05DF804FB00BF58
:1027300000B002402DE9F043044689B01422002184
:1027400003A818F00CFE2268244B9A4243D1244C73
:10275000244800250095236B43F004032363236B77
:1027600003F004030093009B0195236B43F00103E6
:102770002363236B03F001030193019B4FF01209C4
:102780004FF400734FF001080327042603A9CDE995
:102790000339CDE90587079601F00CFD4FF48073EE
:1027A00003A911480796CDE90339CDE9058701F062
:1027B00001FD0295236C43F400032364236C03F4AE
:1027C00000030293029B236A43F400032362236AFB
:1027D00023F40003236209B0BDE8F083005C0040ED
:1027E000003802400008024000000240F0B50446F4
:1027F0008DB01422002107A818F0B1FD2268574BB4
:102800009A4240F0A88003F55043002500955A6C89
:10281000534842F080625A645A6C02F0806200921F
:10282000009A01951A6B42F020021A631A6B02F0AB
:1028300020020192019A02951A6B42F001021A637A
:102840001A6B02F001020292029A03951A6B42F08F
:1028500002021A631A6B02F002020392039A0495B1
:102860001A6B42F040021A631A6B02F040020492A3
:10287000049A05951A6B42F004021A631A6B02F06F
:1028800004020592059A06951A6B42F008021A6333
:102890001B6B03F00803069302240E26069B0A9482
:1028A0004FF4806307A9CDE907340B9601F082FC51
:1028B00041F6580307A92B480B96CDE907340927A1
:1028C000CDE9095401F076FC032307A926480B97AC
:1028D000CDE90734CDE9095401F06CFC4FF4706385
:1028E00007A921480B96CDE90734CDE9095401F039
:1028F00061FC4FF40C6307A91C480B96CDE9073423
:10290000CDE9095401F056FCC02307A918480B96DD
:10291000CDE90734CDE9095401F04CFC082307A99F
:1029200014480B96CDE90734CDE9095401F042FC77
:102930004FF4A05307A90D480B97CDE90734CDE913
:10294000095401F037FC58202A46052101F052FBBA
:10295000582001F083FB0DB0F0BD00BF00680140BE
:10296000001402400000024000040240001802402F
:1029700000080240000C024010B5044688B0142242
:10298000002103A818F0EBFC2268144B9A4223D1D3
:1029900003F56843002101915A6C114842F48012FA
:1029A0005A645A6C02F480120192019A02911A6BD5
:1029B00042F020021A631B6B03F020030293029B78
:1029C0004FF4607202230321CDE903230523CDE9EF
:1029D000061303A901F0EEFB08B010BD0050014042
:1029E000001402400268094B9A4282B00BD10023C6
:1029F0000193074B5A6C42F400325A645B6C03F447
:102A000000330193019B02B0704700BF00440140B6
:102A10000038024010B5044686B01422002101A8F7
:102A200018F09DFC22680D4B9A4215D100230093AB
:102A30000B4B0C481A6B42F020021A631B6B03F01D
:102A400020030093009B40220223CDE9012301A92A
:102A50000323059301F0AEFB06B010BD0044014016
:102A600000380240001402402DE9F04186B01422E3
:102A7000002101A818F073FC2B4B1C68002C4FD1CF
:102A80004FF00108C3F80080284B00949A6B284847
:102A900042EA08029A639B6B03EA08030093022749
:102AA00003260C25009B01A94FF63F03CDE9013712
:102AB000CDE9046501F07EFB01A91E480595CDE92D
:102AC0000187CDE9034601F075FB48F2331301A9F4
:102AD00019480595CDE90137CDE9034601F06AFBB8
:102AE0004FF6837301A915480595CDE90137CDE966
:102AF000034601F05FFB4CF2037301A910480595F2
:102B0000CDE90137CDE9034601F054FB602301A96B
:102B10000C480595CDE90137CDE9034601F04AFBA4
:102B200006B0BDE8F08100BF581500200038024013
:102B30000014024000080240001802400010024049
:102B4000000C0240000402400120704708B518F054
:102B5000B7FB162303604FF0FF3008BD08B518F02F
:102B6000AFFB16230360FEE770B50E4615460C4614
:102B7000A31B9D4201DC284670BDAFF3008004F822
:102B8000010BF5E770B50E4615460C46A31B9D429A
:102B900001DC284670BD14F8010BAFF30080F5E7A7
:102BA0004FF0FF3070474FF400534B6000207047E8
:102BB000012070470020704738B50D460446C8B163
:102BC00090F82C3003F0FF021BB980F82D20FFF79E
:102BD0004BFF022384F82C30211D206801F04CFAB1
:102BE00062682068294601F07DFA012384F82C30C0
:102BF000002038BD0120FCE738B5044690F82C00D1
:102C0000C0B202280D460DD0022384F82C30206873
:102C100001F0A5FA2B68022B0CBF0523012384F8D1
:102C20002C30002038BD10B5044690F82C00C0B2FE
:102C3000022809D0022384F82C30206801F0B4FA6D
:102C4000012384F82C30002010BD00002DE9F34151
:102C5000044608B9012041E00368DD0710D4236869
:102C600098075AD423681A0700F19C8023685B07F1
:102C700000F1BA80A069002840F01C8100202DE0FE
:102C8000A44B9A6802F00C02042A07D09A6802F05A
:102C90000C02082A0AD15B68590207D59D4B1B68B4
:102CA0009A03DCD56368002BD9D1D3E76268994BCE
:102CB000B2F5803F15D11A6842F480321A60636819
:102CC000F3B102F06BF9934D06462B689B03C6D413
:102CD00002F064F9801B6428F7D9032002B0BDE834
:102CE000F081B2F5A02F1A6803D142F480221A6055
:102CF000E1E722F480321A601A6822F48022DDE7CC
:102D000002F04CF9834D06462B689F03A7D502F0CD
:102D100045F9801B6428F7D9DFE77E4B9A6812F0EB
:102D20000C0F07D09A6802F00C02082A11D15B68D8
:102D30005E020ED4774B1A68950702D5E268012A25
:102D400088D11A68216922F0F80242EAC1021A60A9
:102D500088E7E268704BB2B101221A6002F01EF9F6
:102D60006C4D06462B68980707D52B68226923F01F
:102D7000F80343EAC2032B6074E702F00FF9801BEB
:102D80000228EFD9A9E71A6002F008F9614D06465A
:102D90002B6899077FF566AF02F000F9801B0228C7
:102DA000F6D99AE762695D4B7AB101221A6002F0A6
:102DB000F5F8584D06466B6F9F073FF557AF02F089
:102DC000EDF8801B0228F6D987E71A6002F0E6F8D2
:102DD000504D06466B6F98077FF548AF02F0DEF85E
:102DE000801B0228F6D978E74A4B1A6C12F0805201
:102DF0002BD101921A6C42F080521A641B6C03F0C2
:102E000080530193019B0126454D2B68D9051ED5A2
:102E1000A268404B012A2AD11A6F42F001021A67B8
:102E2000A368002B37D002F0B9F83A4D074641F2BB
:102E300088382B6F9B0728D5002E3FF41BAF354AEF
:102E4000136C23F08053136414E70026DCE72B682F
:102E500043F480732B6002F0A1F807462B68DA0573
:102E6000D6D402F09BF8C01B0228F7D935E7052A13
:102E70001A6F03D142F004021A67CDE722F0010273
:102E80001A671A6F22F00402C9E702F087F8C01B24
:102E90004045CED921E702F081F81E4D074641F2A8
:102EA00088382B6F9807C7D502F078F8C01B4045CB
:102EB000F7D912E7174DAB6803F00C03082B46D087
:102EC000184E00230228336034D102F067F8074619
:102ED0002B68990128D4D4E907321343626A43EA84
:102EE0008213E26A43EA0263A26A0A4C5208013A78
:102EF00043EA02436B600123336002F04FF805465A
:102F000023689A013FF5BAAE02F048F8401B022848
:102F1000F6D9E2E60038024000004742800E474200
:102F2000007000406000474202F038F8C01B0228E1
:102F3000CED9D2E602F032F804462B689B017FF529
:102F40009DAE02F02BF8001B0228F6D9C5E6012839
:102F50003FF4C4AE6868E36900F480029A427FF4EB
:102F600079AE226A00F03F0393427FF473AE626A47
:102F700047F6C073034093427FF46CAEA26A00F43C
:102F8000403393427FF466AEE36A00F07060C01A8B
:102F900018BF0120A2E600BF08B513498B6803F0F3
:102FA0000C03042B03D0082B03D0104800E010487A
:102FB00008BD4A684B68496813F4800314BF0C4885
:102FC0000A48C1F3881118BF002302F03F02A1FB99
:102FD0000001FDF70DF9044B5B68C3F301430133B6
:102FE0005B00B0FBF3F0E3E7003802400024F4009C
:102FF00000127A002DE9F0410D46044610B9012077
:10300000BDE8F081454B1A6802F00F028A422AD3CC
:1030100023689E072FD42368D90743D43F4B1A68EF
:1030200002F00F02AA4268D823685A076ED42368B8
:103030001B0707D53A4A2169936823F4604343EAA2
:10304000C1039360FFF7A8FF354B364A9B68C3F373
:103050000313D35CD840344B1860344B1868FEF728
:1030600017FF0020CCE7CAB21A701B6803F00F03E9
:103070008B42C4D1CCE7580741BF294A936843F437
:10308000E05393602368264A13F0080F1EBF93682D
:1030900043F4604393609368A16823F0F0030B430B
:1030A0009360B8E762681E4B012A1CD11B6813F4B9
:1030B000003FA4D01A4EB36823F003031343B36058
:1030C00001F06CFF41F288380746B368626803F08C
:1030D0000C03B3EB820FA1D001F060FFC01B404591
:1030E000F3D903208CE7911E01291B6802D813F045
:1030F000007FDEE713F0020FDBE7EAB21A701B680D
:1031000003F00F03AB427FF47AAF8DE7044AE16826
:10311000936823F4E0530B43936088E7003C02403C
:103120000038024060D001080C0000201C00002084
:10313000044B054A9B68C3F38223D35C034A10689F
:10314000D84070470038024070D001080C000020C1
:103150000F2303600B4B9A6802F0030242609A68E7
:1031600002F0F00282609A6802F4E052C2609B684A
:10317000DB0803F4E0530361034B1B6803F00F0308
:103180000B60704700380240003C0240036A23F0A5
:1031900001030362036A70B5446882690D6822F016
:1031A00073022A438D6823F002032B430E4DA8427D
:1031B00002D00E4EB04210D1CE6823F00803334344
:1031C000A84223F0040302D0084DA84205D1D1E95A
:1031D000055624F4407435432C43446082614A68A8
:1031E0004263036270BD00BF000001400004014063
:1031F000036A23F480730362036A70B54468C2698A
:103200000D6822F073022A438D6823F4007343EAA9
:103210000523114DA84203D005F58065A84214D1BD
:10322000CD6823F4006343EA05230B4DA84223F441
:10323000806303D005F58065A84206D1D1E9055623
:1032400024F44054354344EA05144460C2614A689A
:10325000C263036270BD00BF00000140036A23F433
:1032600080530362036A30B54468C2690D6822F472
:10327000E64242EA05228D6823F4005343EA05330F
:10328000084DA84203D005F58065A84204D14D69D8
:1032900024F4804444EA85144460C2614A680264AC
:1032A000036230BD000001400268D36843F00103AF
:1032B000D36003689A6802F00702062A1EBF1A68E4
:1032C00042F001021A600020704770477047704753
:1032D0007047704710B503681A69910704460FD507
:1032E000DA6892070CD56FF002021A6101230377A6
:1032F00003689B699B077AD0FFF7E9FF00232377D8
:1033000023681A69500711D5DA6851070ED56FF096
:1033100004021A610223237723689B6913F4407F18
:1033200020466AD0FFF7D3FF0023237723681A696A
:10333000120710D5DA6810070DD56FF008021A6170
:10334000042323772368DB69990720465BD0FFF7C6
:10335000BEFF0023237723681A69D20611D5DA68E5
:10336000D0060ED56FF010021A6108232377236868
:10337000DB6913F4407F20464BD0FFF7A8FF002302
:10338000237723681A69D10708D5DA68D20705D5EB
:103390006FF001021A612046FFF736F923681A69B7
:1033A000100608D5DA68110605D56FF080021A619B
:1033B000204600F00BFE23681A69520608D5DA6829
:1033C000500605D56FF040021A612046FFF781FFD5
:1033D00023681A69910622D5DA6892061FD56FF024
:1033E00020021A612046BDE8104000F0EEBDFFF754
:1033F0006DFF2046FFF76CFF80E7FFF767FF204671
:10340000FFF766FF90E7FFF761FF2046FFF760FFD9
:103410009FE7FFF75BFF2046FFF75AFFAFE710BDBE
:10342000304A0368904212D0B0F1804F0FD0A2F51D
:103430007C4290420BD002F58062904207D002F5A8
:103440008062904203D002F57842904219D14A68D6
:1034500023F070031343234A904229D0B0F1804FE8
:1034600026D0A2F57C42904222D002F580629042A2
:103470001ED002F5806290421AD002F57842904246
:1034800016D0194A904213D002F5806290420FD0B4
:1034900002F5806290420BD0A2F59832904207D09C
:1034A00002F58062904203D002F58062904203D11F
:1034B000CA6823F4407313434A6923F0800313431B
:1034C00003608B68C3620B688362064B984203D02B
:1034D00003F58063984201D10B69036301234361C3
:1034E000704700BF000001400040014010B5044695
:1034F000A0B190F83D3003F0FF021BB980F83C20EA
:10350000FFF770FA022384F83D302068211DFFF791
:1035100087FF012384F83D30002010BD0120FCE727
:1035200010B50446A0B190F83D3003F0FF021BB97E
:1035300080F83C20FFF7C9FE022384F83D30206864
:10354000211DFFF76DFF012384F83D30002010BDE1
:103550000120FCE7036A23F010030362036A70B5DD
:10356000446882690D6822F4E64242EA05228D68C9
:1035700023F0200343EA0513104DA84203D005F5BC
:103580008065A84214D1CD6823F0800343EA051377
:103590000A4DA84223F0400303D005F58065A842F8
:1035A00006D1D1E9055624F44064354344EA850444
:1035B000446082614A688263036270BD000001401A
:1035C00038B590F83C30012B04464FF0020027D06C
:1035D000012384F83C3084F83D000C2A1AD8DFE837
:1035E00002F0071919192019191933191919460068
:1035F0002068FFF7CBFD2268936943F008039361CD
:103600002268936923F0040393612268096993692E
:103610000B4393610123002084F83D3084F83C0083
:1036200038BD2068FFF796FF2268936943F4006372
:1036300093612268936923F4806393612268096926
:10364000936943EA0123E4E72068FFF7D1FD22688C
:10365000D36943F00803D3612268D36923F00403DC
:10366000D36122680969D3690B43D361D2E720682B
:10367000FFF7F4FD2268D36943F40063D361226845
:10368000D36923F48063D36122680969D36943EA6B
:103690000123EAE7036A01F01F0110B501248C4001
:1036A00023EA04030362036A8A401A43026210BDDC
:1036B00010B5044601220068FFF7ECFF23680B4AAF
:1036C000934203D002F58062934203D15A6C42F4D4
:1036D00000425A6423689A6802F00702062A1EBF55
:1036E0001A6842F001021A60002010BD000001407B
:1036F000FFF7DEBF01684B6913F480634FF00002EF
:1037000010D06FF480634B612023026380F83D305A
:1037100080F83E20036C80F83C2043F004030364EF
:1037200001207047184670472DE9F04104461646BF
:1037300098468FB22568686937EA000018D06B692F
:103740005A0517D52B6843F400732B6023686FF478
:1037500080625A6100232022236384F83D2084F88C
:103760003E30226C42F00402226484F83C30012096
:10377000BDE8F081731CDED001F010FCA0EB080066
:10378000B04201D8002ED5D100232022236384F833
:103790003D2084F83E30226C42F02002E4E770B510
:1037A00004460D46164623685B695B0701D5002079
:1037B00070BD2046FFF79EFFA8B96A1CF3D001F048
:1037C000EDFB801BA84201D8002DECD10023202264
:1037D000236384F83D2084F83E30226C84F83C302A
:1037E00042F0200222640120E2E770B504460D4653
:1037F00016462068436913F0400301D0002010E012
:103800004269D2060ED56FF0100242612022236376
:1038100084F83D2084F83E30226C226484F83C30E9
:10382000012070BD01F0BAFB801BA84201D8002D19
:10383000DFD100232022236384F83D2084F83E302A
:10384000226C42F02002E8E72DE9F843089E044686
:1038500090461F464FEA11498DB22168B9F1010F18
:103860000CBF4B698B6935EA03030CBF01230023AE
:10387000984501D0002016E07B1CEFD001F08EFBB4
:10388000801BB84201D8002FE7D1002320222363F8
:1038900084F83D2084F83E30226C84F83C3042F0BD
:1038A000200222640120BDE8F88370B504460D466D
:1038B000164623685B691B0601D5002070BD2046B3
:1038C000FFF718FFA8B96A1CF3D001F067FB801B53
:1038D000A84201D8002DECD100232022236384F8D4
:1038E0003D2084F83E30226C84F83C3042F02002C7
:1038F00022640120E2E700002DE9FF41154602683D
:103900000B9E9846136843F4807313600F460A9B1E
:10391000009600224FF001110446FFF795FF23683F
:1039200038B11B68DB0502D54FF400732364032014
:103930000AE007F0FE071F610A9A1949334620463C
:10394000FFF7F2FE18B1012004B0BDE8F081236852
:1039500003905A6903929B69039332460A99039B29
:103960002046FFF7A2FF40B1236C042B01BF226861
:10397000136843F400731360E5E7B8F1010F23689F
:1039800002D1EDB21D61DFE72A0A1A610A993246B7
:103990002046FFF78AFF0028E6D12368F1E700BF41
:1039A000020001002DE9FF41164602680B9D984672
:1039B000136843F4806313600268136843F48073F0
:1039C00013600F460A9B009500224FF00111044638
:1039D000FFF73AFF236848B11B68DB0502D54FF4B7
:1039E00000732364032004B0BDE8F081FFB207F048
:1039F000FE021A6129490A9A2B462046FFF794FED7
:103A000008B10120EFE7236803905A6903929B698C
:103A100003932A460A99039B2046FFF746FF40B1CD
:103A2000236C042B01BF2268136843F400731360F6
:103A3000E7E7B8F1010F236825D1F6B21E612A46E7
:103A40000A992046FFF731FF02460028E8D1216895
:103A50000B6843F480730B6020460A9B00954FF07F
:103A60000111FFF7F1FE23680028B5D147F00107E7
:103A70001F610A9A09492B462046FFF755FE003080
:103A800018BF0120AFE7320A1A610A992A46204678
:103A9000FFF70BFF0028C3D12368CEE70200010027
:103AA00070B5044608B9012070BD90F83D3003F0B0
:103AB000FF021BB980F83C20FEF73CFE226824235D
:103AC00084F83D30136823F0010313602268136803
:103AD00043F4004313602268136823F40043136027
:103AE000FFF726FB424B62689A4294BF414B424B20
:103AF00098428CBF00230123002BD4D122683F4978
:103B00005368B0FBF1F123F03F030B435360666849
:103B1000374B25689E4288BF4FF496732A6A8ABF46
:103B20004B434B1C4FF47A7122F03F0284BFB3FB2E
:103B3000F1F3013313432B6221686368CA692C4D8A
:103B400022F44F42AB4222F0FF0200F1FF3035D8A1
:103B50005B00B0FBF3F0431CC3F30B03042B38BF33
:103B600004231343CB612168D4E907300A68034377
:103B700022F0C00213430B602168D4E903038A6872
:103B800022F40342034322F0FF0213438B602168B7
:103B9000D4E90530CA68034322F0FF021343CB6027
:103BA0002268136843F0010313600020202320647F
:103BB00084F83D30206384F83E0075E7A56855B968
:103BC00003EB4303B0FBF3F0431CC3F30B036BB1F4
:103BD00043F40043C5E719256B43B0FBF3F0431CE6
:103BE000C3F30B0313B143F44043BAE70123B8E72F
:103BF000A08601007F841E00FF083D0040420F00A8
:103C00002DE9F743044699460F4690460C9E01F075
:103C1000C5F994F83D30202B054603D0022003B0AF
:103C2000BDE8F0830090192301223D492046FFF7AB
:103C30000BFE0028F2D194F83C30012BEED001238A
:103C400084F83C3023681A68D2075EBF1A6842F0D5
:103C500001021A602268136823F4006313602123B1
:103C600084F83D30402384F83E30002323640A9BCF
:103C70006362BDF82C306385638D2385294BE36235
:103C8000CDE900654B46424639462046FFF734FEF3
:103C900000282DD00120C2E7FFF707FE40B1236CBA
:103CA000042B01BF2268136843F400731360F1E72B
:103CB000626A236812781A61616A628D4B1C6362C2
:103CC000238D013A92B2013B62859BB22268238523
:103CD000506940070CD55BB14B781361636A0133BF
:103CE0006362238D013B2385638D013B9BB263851A
:103CF000238D2A4631462046002BCDD1FFF74FFDBC
:103D00000028CCD12268136843F400731360202389
:103D100084F83D3084F83C0084F83E007FE700BF23
:103D2000020010000000FFFF2DE9F043044687B0B9
:103D300099460D469046109F01F030F994F83D30B9
:103D4000202B064604D00225284607B0BDE8F083A4
:103D500000901923012278492046FFF775FD0028BD
:103D6000F1D194F83C30012BEDD0012384F83C30A4
:103D700023681A68D0075EBF1A6842F001021A6011
:103D80002268136823F400631360222384F83D3013
:103D9000402384F83E30002323640E9B6362BDF809
:103DA0003C306385638D2385644BE3622946CDE90E
:103DB00000764B4642462046FFF7F4FD054608B123
:103DC0000125C1E7228D2368B2B902905A69029297
:103DD0009A690292029A1A6842F400721A60DFF835
:103DE0006081238D002B2FD1202284F83D2084F880
:103DF0003C3084F83E30A7E7012A0BD11A6822F440
:103E000080621A60236803905A6903929A69039248
:103E1000039AE0E7022A10D11A6822F480621A603D
:103E20002268136843F400631360236804905A699E
:103E300004929B690493049BD1E705905A6905920B
:103E40009B690593059BCAE7032B58D8012B15D115
:103E5000324639462046FFF7C8FC0028B0D1236817
:103E60001A69636A1A70636A01336362238D013BC6
:103E70002385638D013B9BB26385B2E7022B0096DD
:103E80003B464FF00002414620461AD1FFF7DCFCCA
:103E9000002895D12268136843F4007313602368E7
:103EA0001A69636A1A70626A531C6362238D013B4C
:103EB0002385638D013B9BB2638523681B69537027
:103EC000D1E7FFF7C1FC024600287FF479AF2168F3
:103ED0000B6823F480630B6023681969636A1970A7
:103EE000636A009601336362238D013B2385638DF2
:103EF000013B9BB2638541463B462046C6E73246BE
:103F000039462046FFF771FC00287FF459AF23683B
:103F10001A69636A1A70626A531C6362238D013BDB
:103F20002385638D013B9BB26385236859694907EB
:103F30007FF557AFC2E700BF020010000000FFFF8F
:103F40000400010010B590F83D30DBB2202B19D1F0
:103F50000468242280F83D20226822F001022260B9
:103F60000468626A22F0100262620468626A1143A5
:103F7000616201680A6842F001020A6080F83D301F
:103F8000002010BD0220FCE730B590F83D20D2B2F1
:103F9000202A18D10568242380F83D302C6824F0AD
:103FA00001042C600468656A4FF6F0732B400B43E4
:103FB0009BB2636201680B6843F001030B6080F8F9
:103FC0003D20002030BD0220FCE770477047000014
:103FD000074AD36823F4E0631B041B0C43F0BF6360
:103FE000000243F4003300F4E0600343D360704701
:103FF00000ED00E070B5174BDC68C4F30224C4F197
:104000000705042D04F1040328BF04254FF0FF36F3
:10401000062B06FA05F38CBF033C002421EA0303B8
:10402000A34006FA04F422EA0404002843EA040345
:10403000A8BF00F160404FEA0313BCBF00F00F00BF
:10404000054ADBB2AABF00F56140135480F8003383
:1040500070BD00BF00ED00E014ED00E0002808DBBB
:104060004209012300F01F0003FA00F0014B43F85E
:104070002200704700E100E02DE9F041D1E907435B
:104080004A6AD1E90158D1E903ECD1E9057609681A
:10409000012943EA0403124904680FD01A432A4352
:1040A00042EA080343EA0E0343EA0C033B43214080
:1040B00033430B4303600020BDE8F08113434268A3
:1040C000114045EA080242EA0E0242EA0C023A4373
:1040D00024F4F844324323430A4303604260EAE78E
:1040E0000080FFFFF0B5CB680C688E680D695F1E1D
:1040F0004B6904F1FF3C4C688969013B1B05013C9D
:10410000013E013D0139012A4FEA04144FEA062617
:104110004FEA05454FEA016143EA07330CD043EA11
:104120000C032343826833432B4302F070420B435A
:10413000134383600020F0BD876827F4700727F4DD
:10414000704744EA06023B4342EA0C02C7688360B8
:104150002A4307F070470A433A43C260EAE773B55F
:10416000002301931546D1E900321343CA6843EA9C
:1041700042238A68013A43EA42130193019B036197
:10418000044600F00BFF0646A06910F0200003D0A3
:104190006B1CF9D015B9032002B070BD00F0FEFE13
:1041A000801BA842F0D9F6E7436943EA4101416127
:1041B000002070472DE9F74FDFF8B8C16B4CDFF8EE
:1041C000B891DFF8B881002301250A689D402A4094
:1041D000954240F0B2804E6826F010065F004FF026
:1041E000030E013E0EFA07FE012E6FEA0E0E0FD8E7
:1041F0008568CE6805EA0E05BE402E4386604E688F
:104200004568C6F3001625EA02059E402E43466027
:10421000C5688E6805EA0E05BE402E43C6604D682F
:1042200025F01005022D14D14FEAD30A00EB8A0ABB
:1042300003F0070BDAF820604FEA8B0B0F2505FA25
:104240000BF526EA05050E6906FA0BF62E43CAF8A9
:104250002060056805EA0E0E4D6805F00305BD40B7
:1042600045EA0E0505604D68EE0066D54FF0000B7F
:10427000CDF804B0DCF844603D4D46F48046CCF8FF
:104280004460DCF8446006F480460196019E23F009
:10429000030606F1804606F59C3603F0030ED6F8B9
:1042A00008A04FEA8E0E0F2707FA0EF7A8422AEA57
:1042B000070749D005F58065A84247D005F5806518
:1042C000A84245D005F58065A84243D0484543D073
:1042D000404543D005F54065A84241D005F58065CD
:1042E000A8423FD005F58065A8423DD005F5806520
:1042F000A84214BF0A25092505FA0EF53D43B5600D
:104300004D682768D643ED0354BF374017432760F5
:104310004D686768AD0354BF3740174367604D6809
:10432000A768ED0254BF37401743A7604D68E768A0
:10433000AD0254BF37401743E7600133102B7FF4C1
:1043400043AF03B0BDE8F08F5D46D5E70125D3E765
:104350000225D1E70325CFE70425CDE70525CBE7E7
:104360000625C9E70725C7E70825C5E7003C014042
:1043700000000240003802400010024000140240D9
:104380000369194214BF0120002070470AB18161FE
:1043900070470904FBE7F8B504460E4615461F466C
:1043A00021688A6836EA020301D0002030E06B1CE5
:1043B000F7D000F0F3FDC01B8542F1D822685368A6
:1043C00023F0E00353606368B3F5827F0BD1A368E9
:1043D000B3F5004F02D0B3F5806F04D122681368A3
:1043E00023F040031360A36AB3F5005F09D122688C
:1043F000136823F4005313602268136843F40053D6
:104400001360012384F85130002384F850300320D6
:10441000F8BD10B513464268B2F5827F04460BD151
:104420008268B2F5004F02D0B2F5806F04D12068E7
:10443000026822F0400202606268B2F5827F0BD10E
:10444000A268B2F5806F0A4607D080212046FFF7A8
:10445000A2FF20B9002010BD0A460121F6E7636DD6
:1044600043F0200363650320F5E7000073B51346AE
:10447000124A134E15684268B5FBF6F64FF47A758A
:104480007543B2F5827F044601950BD10A4680211F
:10449000FFF781FF78B1636D43F02003636503206C
:1044A00002B070BD019B33B1019B013B01932368B6
:1044B0009B681B06F6D40020F2E700BF0C0000202A
:1044C00000366E0110B50446002839D000238362FF
:1044D00090F8513003F0FF021BB980F85020FEF72E
:1044E0004BFA2268022384F85130136823F040030A
:1044F0001360D4E90023A1680B43E1680B432169F1
:104500000B4361690B43E1690B43216A0B43A16AC9
:104510000B43A16901F400710B431360638B616A63
:10452000226803F004030B4353602268D36923F429
:104530000063D36100200123606584F8513010BD11
:104540000120FCE72DE9F3411D4690F85030012B86
:1045500004468846174600F09480012380F85030C6
:1045600000F01CFD064694F85100C0B2012840F04E
:104570008680B8F1000F58D0002F56D0032384F85E
:104580005130A368C4F830800020B3F5004FC4E96F
:10459000100008BF22686065A786E786A063A08731
:1045A000E08702BF136843F48043136023681A68EE
:1045B00052065EBF1A6842F040021A60E268636801
:1045C000B2F5006F3AD10BB1012F0AD12368226BEB
:1045D0001288DA60236B02332363E38E013B9BB2C4
:1045E000E386E38E9BB2A3B9324629462046FFF705
:1045F0003DFF002840D1A36833B901932368DA68EE
:1046000001929B680193019B606D003018BF0120EF
:104610000BE023689A689007D9D400F0BFFC801B98
:10462000A842DED3691CDCD00320012384F851307A
:10463000002384F8503002B0BDE8F0810BB1012FA7
:104640000AD12368226B12781A73236B0133236318
:10465000E38E013B9BB2E386E38E9BB2002BC3D07B
:1046600023689A689207EDD400F098FC801BA8425A
:10467000F2D36B1CF0D0D7E720236365BBE70220A1
:10468000D3E70220D7E72DE9F7431D4690F85030D5
:104690000A9E012B04468846914600F0E9800123DA
:1046A00080F8503000F07AFC94F85130DBB2012BE6
:1046B00007460BD06268B2F5827F40F0D780A268CF
:1046C000002A40F0D380042B40F0D080B8F1000FD6
:1046D00000F0CA80B9F1000F00F0C680002D00F094
:1046E000C38094F85130C4F83890042B1CBF0523C4
:1046F00084F851300023C4E9103363652368E587EB
:10470000A587C4F83080E586A5861A6852065EBF84
:104710001A6842F040021A60E2686368B2F5006FFE
:104720005DD10BB1012D0AD1226B23681288DA60AA
:10473000236B02332363E38E013B9BB2E3860125A7
:10474000E38E9BB2ABB9E38F9BB293B93A46314645
:104750002046FFF78BFE002840F08480A368002BE2
:1047600034D123680190DA6801929B680193019B20
:104770002CE02268936898070ED5E38E9BB25BB15C
:1047800055B1236B1B88D360236B02332363E38E05
:10479000013B9BB2E386002522689368D9070DD5BB
:1047A000E38F9BB253B1A36BD2681A80A36B023321
:1047B000A363E38F013B9BB2E387012500F0EEFB8F
:1047C000C01B8642BCD8731CBAD00320012384F8D6
:1047D0005130002384F8503003B0BDE8F0830BB1B2
:1047E000012D0AD1226B236812781A73236B0133CF
:1047F0002363E38E013B9BB2E3860125E38E9BB2EC
:104800001BB9E38F9BB2002BA0D022689368980756
:104810000ED5E38E9BB25BB155B1236B1B7813733E
:10482000236B01332363E38E013B9BB2E3860025B8
:1048300022689368D9070DD5E38F9BB253B1A36B60
:10484000D2681A70A36B0133A363E38F013B9BB261
:10485000E387012500F0A2FBC01B8642CED8731C63
:10486000CCD0B2E7202363650120AFE70220ADE79B
:104870000220B1E72DE9F3411D464368B3F5827F7D
:104880000446884617460CD1836853B9042380F840
:104890005130134600950A46FFF7F5FE02B0BDE819
:1048A000F08194F85030012B7CD0012384F85030F3
:1048B00000F074FB064694F85100C0B201286FD195
:1048C000B8F1000F5AD0002F58D0042384F851308B
:1048D000002363652363E787A386E386C4E9103377
:1048E000A368A787B3F5004F08BF2268C4F83880D3
:1048F00002BF136823F48043136023681A685706C5
:104900005EBF1A6842F040021A60E368FBB1E38FB1
:104910009BB203B323689A68D20736D5DA68A36BD3
:104920001A80A36B0233A363E38F013B9BB2E3873F
:10493000EDE723689A68D00718D5A26B1B7B13702C
:10494000A36B0133A363E38F013B9BB2E387E38F48
:104950009BB2002BEDD1324629462046FFF759FD88
:10496000D8B9606D003018BF012007E000F016FBD9
:10497000801BA842EBD3691CE9D00320012384F8F3
:104980005130002384F8503088E700F007FB801B8B
:10499000A842BCD36B1CBAD0EFE720236365E0E7E5
:1049A0000220EBE7022079E710B5044640B390F807
:1049B000393003F0FF021BB980F83820FDF798FE6C
:1049C00022686168022384F83930136823F4403385
:1049D0000B4313602268A168536B23F007030B435A
:1049E00053632268E168136C23F47F5323F03F0381
:1049F0000B43136400200123E06384F8393010BDB9
:104A00000120FCE77047704770B503685E681D6859
:104A1000F207044615D5E90513D51A6822F4807209
:104A20001A60C36B43F00103C363036801229A60F9
:104A3000042380F83930002380F83830436903B10B
:104A40009847B20617D5AB0415D52268136823F42E
:104A500000531360236820229A60E36B43F0020343
:104A6000E363042384F83930002384F83830636921
:104A70000BB120469847300717D5290515D5226870
:104A8000136823F400631360236808229A60E36BC1
:104A900043F00403E363042384F83930002384F8EB
:104AA000383063690BB12046984772070CD56B0507
:104AB0000AD52268136823F48063136023680422F4
:104AC0009A602046FFF79EFFB00715D5A90513D5BC
:104AD0002268136823F400731360236802229A602B
:104AE000E36BE363012384F83930002384F8383022
:104AF00023690BB120469847F20614D5EB0412D572
:104B00002268136823F480531360236810229A608C
:104B1000E36BE363012384F83930002384F83830F1
:104B20002046FFF770FF70BD70B590F83830012B4C
:104B30004FF002032CD0012280F838200A0180F8BF
:104B400039308418D4E9075345EA0343093D012D60
:104B5000656A194E9ABF05F07F452B4343EA05630A
:104B60000568B9B9696A31400B436B6203688269B1
:104B70009A61C369093B012B04D8436A026823F098
:104B80007F439362012380F83930002380F8383066
:104B9000184670BDE96931400B43EB618318016829
:104BA0009A690A61DB69093B012B9FBF636A02684E
:104BB00023F07F431362E5E7F0FFFC00F0B50568E2
:104BC0004C68EB68D20184321544C3F30B431C4498
:104BD0006B6803F470436B6005680E68EB68013620
:104BE000C3F30B431544334443EA04436B60056845
:104BF000CC68EB68C3F30A031C44AB189D6805F44A
:104C000070459D6005688B68EE680133C6F30A063F
:104C10001544334443EA0443AB600368134400255E
:104C20001C6924F007041C6103680C6913441C61AF
:104C3000046891F8326091F83170D1F818C01444CA
:104C4000A369A561046891F8303043EA0C63144409
:104C500043EA072343EA0643A361036813445C69FC
:104C600024F0FF045C6103684C6913445C610468D0
:104C70001444E36923F4E06323F00703E36103686A
:104C8000D1E9074613443443DC61036813449C6A4A
:104C90009D6203684C6A13449C620B6963B3012BE9
:104CA0002CD09C1E022C2BD9072B14BF01240224CC
:104CB00003681344DD6A05F0E025DD6203689D1892
:104CC000D1E900639B1B8E6A63430333744343EA59
:104CD0000443EB6204681444236B23F4FF6323F062
:104CE000070323630368C96A1344196301688B5877
:104CF00043F001038B50F0BD0424D9E70324D7E728
:104D00000224D5E738B50446002870D090F8A130C9
:104D100003F0FF021BB980F8A020FDF767FD2268B1
:104D2000022384F8A130936923F070439361D4E99E
:104D300001300343E068226803432069916903431B
:104D40000B43936121682B4A8B6813408B60216869
:104D500060698B6843EA0043A06903438B60216864
:104D6000CB681340CB602168E069CB6843EA00431D
:104D7000206A0343CB6021680B6913400B612168F3
:104D80000B69606A43EA0043A06A03430B61216830
:104D90004B691A404A612268E16A536943EA014358
:104DA000216B0B435361216894F83600CA6A94F86A
:104DB000355002F07F42CA62226894F83430D16ADA
:104DC0000B4343EA052343EA0043D3622268536B53
:104DD00043F0060353632268936943F00103936130
:104DE00000200123C4F8A40084F8A13038BD0120BC
:104DF000FCE700BF00F800F07047704770B503682B
:104E00009E6B5D6B7207044615D5690713D55A6B07
:104E100022F004025A6303680422DA63D0F8A43053
:104E200043F00103C0F8A430002380F8A12080F8EB
:104E3000A030FFF7E1FFB20717D5AB0715D5226801
:104E4000536B23F00203536323680222DA63D4F81E
:104E5000A4301343C4F8A430042384F8A130002301
:104E600084F8A0302046FFF7C7FFF00711D5E90707
:104E70000FD52268536B23F001035363226801238B
:104E8000D36384F8A130002384F8A0302046FCF7D7
:104E90002BFB320712D52B0710D52268536B23F05A
:104EA0000803536323680822DA63012384F8A130DE
:104EB000002384F8A0302046FFF79FFF70BDF8B5AF
:104EC00090F8A030012B06468C4696464FF0020023
:104ED0001DD0012786F8A07086F8A10034240D4665
:104EE00004FB02640FCD38340FC40FCD0FC40FCDB7
:104EF0000FC42B682360304672466146FFF75EFEA2
:104F0000336800205F6286F8A17086F8A000F8BDC3
:104F100010B590F8A030012B4FF0020314D00468B4
:104F200080F8A130012280F8A020636B23F00103F8
:104F30006363064B196401684B6B13434B63002397
:104F400080F8A12080F8A030184610BD006801400C
:104F500008B50B4B1A6842F400721A601A6842F4E2
:104F600080621A601A6842F480721A600320FFF7A8
:104F70002FF80020FCF78CFFFDF782FB002008BD16
:104F8000003C0240034A044B11681B780B44136039
:104F9000704700BF2C2E012018000020014B18681C
:104FA000704700BF2C2E012038B50446FFF7F6FFEE
:104FB000631C1CBF054B1B78054618BFE418FFF7A0
:104FC000EDFF401BA042FAD338BD00BF18000020FF
:104FD000F7B5036813F0430F044640F08C80236854
:104FE00013F00C0F45D08B4D8B4E00232B60FFF739
:104FF000D5FF074633689B0000F1D08023685F0728
:1050000015D5D4E90413D6F888201B0602F0E04237
:1050100043EA81131343C6F88830D6F88C30226AED
:1050200023F4F853013A43EA0223C6F88C3023688C
:105030001E0714D5784AA369D2F8881020691B0787
:1050400001F0706143EA80130B43C2F88830D2F854
:105050008C30616A23F440330B43C2F88C30012357
:105060002B60FFF79BFF6C4D06462B68980040F1C4
:105070009C8023689A0634D500230193664B674DC4
:105080001A6C42F080521A641B6C03F08053019337
:10509000019B2B6843F480732B60FFF77FFF06466C
:1050A0002B68D90540F188805B4D2B6F13F440735A
:1050B00040F08980A26A02F44073B3F5407F564BFA
:1050C00040F0A380996822F0704221F4F81122F494
:1050D00040720A439A60A26A196FC2F30B020A4334
:1050E0001A67206810F010001FBF4D4B94F82C2059
:1050F0001A60002050E04B4D474E00232B60FFF715
:105100004DFF074633681B0140D42368DF0741BFCA
:10511000D4E901231B0743EA8213C6F884302368CD
:105120009E0715D53C4AE368D2F8841060681B06D8
:1051300001F0E04143EA80130B43C2F88430D2F817
:105140008C10E36921F01F01013B0B43C2F88C3046
:10515000236858060AD5E36862681B0643EA82138F
:10516000A26843EA02732C4AC2F8843001232B6000
:10517000FFF714FF284D06462B6819013FF52FAFA6
:10518000FFF70CFF801B0228F6D904E0FFF706FFAB
:10519000C01B0228B6D9032003B0F0BDFFF7FEFE06
:1051A000C01B02287FF626AFF5E7FFF7F7FE801B4E
:1051B00002287FF65AAFEEE7FFF7F0FE801B0228C9
:1051C0007FF66EAFE7E7A26A02F4407293423FF4C3
:1051D00071AF2B6F144A0121116023F44073002139
:1051E00011602B672B6FDA077FF564AFFFF7D6FEF0
:1051F00041F2883706462B6F9B073FF55BAFFFF701
:10520000CDFE801BB842F6D9C5E79A6822F4F812A1
:1052100060E700BF70004742003802400070004065
:10522000E011474268004742400E474210B504462D
:1052300050B1437903F0FF0213B90271FDF740FA50
:1052400001236371002010BD0120FCE7FCF716BCB0
:10525000FCF78ABC00F108034FF0FF324360C0E95D
:10526000022303610023036070470023036170473A
:1052700043684B609A688A609A68516099600861D7
:1052800003680133036070470A68531C30B50AD1C4
:1052900003695A684A6091608B60596008610368CD
:1052A0000133036030BD00F108035C682568954256
:1052B000EFD82346F9E7D0E9012103699160D0E9ED
:1052C000011251605A68824204BF82685A6000220B
:1052D00002611A68013A1A601868704710B50446EE
:1052E00002F0C8F8A46B02F0E7F8B4FA84F04009C1
:1052F00010BD70B51546026C866B044642B9056850
:105300009DB9806801F070FAA5600136A66370BD92
:105310006DB9406816F018F86368226C1344A268EF
:105320006360934201D3236863600020EDE7C068A7
:1053300016F00AF8236CE26821685B421A448A423C
:10534000E2603EBFA2689B18E360022DEDD10EB172
:10535000013EEAE73046D8E7034610B41A6C084627
:1053600062B1D9689C681144A142D96024BF196810
:10537000D960D9685DF8044B15F0E6BF5DF8044BC1
:10538000704770B5044602F075F894F8455004F182
:1053900024066DB2002D14DCFF2384F8453002F0A2
:1053A0008BF802F067F894F8445004F110066DB2DF
:1053B000002D12DCFF2384F84430BDE8704002F079
:1053C0007BB8636A002BE7D0304601F02FF908B1B3
:1053D00001F0B4F9013D6DB2DCE72369002BE9D09F
:1053E000304601F023F908B101F0A8F9013D6DB292
:1053F000DEE7000038B50D46044640B94FF05003D3
:1054000083F31188BFF36F8FBFF34F8FFEE702F076
:1054100031F8D4E90F30226862604343D1181B1A77
:105420001344A160E3600021FF23A16384F84430AA
:1054300084F8453095B9236963B104F1100001F097
:10544000F5F838B10A4B4FF080521A60BFF34F8F16
:10545000BFF36F8F02F030F8012038BD04F1100067
:10546000FFF7F8FE04F12400FFF7F4FEF2E700BFB7
:1054700004ED00E013B51C4640B94FF0500383F330
:105480001188BFF36F8FBFF34F8FFEE743B94FF023
:10549000500383F31188BFF36F8FBFF34F8FFEE785
:1054A0004AB191B94FF0500383F31188BFF36F8F66
:1054B000BFF34F8FFEE741B14FF0500383F31188E4
:1054C000BFF36F8FBFF34F8FFEE750230193019B14
:1054D000502B08D04FF0500383F31188BFF36F8F28
:1054E000BFF34F8FFEE7002908BF2246019B2260D1
:1054F0000123C4E90F0184F8463019462046FFF71E
:1055000079FF9DF8103084F84C30204602B010BD71
:10551000F8B50D461746064640B94FF0500383F3E1
:105520001188BFF36F8FBFF34F8FFEE748435030B2
:1055300001F070FE044660B1002380F8463055B992
:105540002060C4E90F6501212046FFF753FF84F86E
:105550004C702046F8BD00F150030360F1E713B52D
:1055600013460C4640B94FF0500383F31188BFF344
:105570006F8FBFF34F8FFEE7884208D24FF0500382
:1055800083F31188BFF36F8FBFF34F8FFEE70222C3
:10559000009200221146FFF76DFF00B1846302B054
:1055A00010BD10B50C4640B94FF0500383F311887D
:1055B000BFF36F8FBFF34F8FFEE7884208D24FF0E3
:1055C000500383F31188BFF36F8FBFF34F8FFEE754
:1055D00002220021FFF79CFF00B1846310BD000090
:1055E0002DE9FF47884601921F46044640B94FF017
:1055F000500383F31188BFF36F8FBFF34F8FFEE724
:1056000051B9036C43B14FF0500383F31188BFF3DA
:105610006F8FBFF34F8FFEE7022F0BD1E36B012B90
:1056200008D04FF0500383F31188BFF36F8FBFF39F
:105630004F8FFEE701F088F850B9019E4EB14FF050
:10564000500383F31188BFF36F8FBFF34F8FFEE7D3
:1056500000264FF00009DFF8E8A037E0019D1DB9F2
:1056600001F02AFF002050E016B902A801F01EF850
:1056700001F022FF00F0D0FD01F0FCFE94F8443070
:10568000FF2B08BF84F8449094F84530FF2B08BFE7
:1056900084F8459001F010FF01A902A801F012F86A
:1056A000002846D101F0E6FEA26BE36B9A422FD1AF
:1056B00001F002FF019904F1100000F07FFF204685
:1056C000FFF75FFE00F046FE50B3012601F0D2FE68
:1056D000A26BE36B9A4201D3022FBFD13A464146F7
:1056E0002046FFF706FE636A1BB104F1240000F0B8
:1056F0009DFF38B1124B4FF080521A60BFF34F8FAD
:10570000BFF36F8F01F0D8FE012004B0BDE8F08731
:1057100001F0D2FE2046FFF734FE00F01BFED4E776
:105720004FF08053CAF80030BFF34F8FBFF36F8F35
:10573000CBE72046FFF725FE00F00CFE92E700BF06
:1057400004ED00E02DE9F843894690461F460446E3
:1057500040B94FF0500383F31188BFF36F8FBFF34D
:105760004F8FFEE751B9036C43B14FF0500383F301
:105770001188BFF36F8FBFF34F8FFEE7022F0BD15E
:10578000E36B012B08D04FF0500383F31188BFF374
:105790006F8FBFF34F8FFEE701F08AFFEFF31186A3
:1057A0004FF0500383F31188BFF36F8FBFF34F8F18
:1057B000A26BE36B9A4201D3022F22D194F8455099
:1057C0003A466DB249462046FFF793FD6B1C13D154
:1057D000636A0BB901200BE004F1240000F026FFFE
:1057E0000028F7D0B8F1000FF4D00120C8F800006D
:1057F00086F31188BDE8F88301356DB284F8455011
:10580000E8E70020F4E770B50D46044640B94FF0D4
:10581000500383F31188BFF36F8FBFF34F8FFEE701
:10582000036C43B14FF0500383F31188BFF36F8FC4
:10583000BFF34F8FFEE7036853B9836843B14FF05E
:10584000500383F31188BFF36F8FBFF34F8FFEE7D1
:1058500001F02EFFEFF311864FF0500383F3118810
:10586000BFF36F8FBFF34F8FA26BE36B93421CD9D3
:1058700094F8453001325BB2A2635A1C10D1636ABE
:105880000BB9012009E004F1240000F0CFFE00284C
:10589000F7D0002DF5D00120286086F3118870BD67
:1058A00001335BB284F84530EBE70020F5E70000F8
:1058B0002DE9F04385B00F460192044640B94FF000
:1058C000500383F31188BFF36F8FBFF34F8FFEE751
:1058D00051B9036C43B14FF0500383F31188BFF308
:1058E0006F8FBFF34F8FFEE700F02EFF50B9019E80
:1058F0004EB14FF0500383F31188BFF36F8FBFF3A6
:105900004F8FFEE700264FF00008DFF8E0903BE005
:10591000019D1DB901F0D0FD002052E016B902A88A
:1059200000F0C4FE01F0C8FD00F076FC01F0A2FD1D
:1059300094F84430FF2B08BF84F8448094F8453035
:10594000FF2B08BF84F8458001F0B6FD01A902A82D
:1059500000F0B8FE00283DD12046FFF7BFFC98B309
:10596000019904F1240000F029FE2046FFF709FD0B
:1059700000F0F0FC38B94FF08053C9F80030BFF3A5
:105980004F8FBFF36F8F012601F074FDA56B002DC3
:10599000BED039462046013DFFF7DEFCA5632369F2
:1059A00063B104F1100000F041FE38B10F4B4FF02D
:1059B00080521A60BFF34F8FBFF36F8F01F07CFDF1
:1059C000012005B0BDE8F0832046FFF7DAFC00F0C7
:1059D000C1FCD8E72046FFF7D4FC00F0BBFC204612
:1059E000FFF77CFC0028CED096E700BF04ED00E076
:1059F0002DE9FF410446019140B94FF0500383F374
:105A00001188BFF36F8FBFF34F8FFEE7056C45B171
:105A10004FF0500383F31188BFF36F8FBFF34F8FA5
:105A2000FEE700F091FE50B9019D45B14FF05003E3
:105A300083F31188BFF36F8FBFF34F8FFEE72E46BE
:105A40000027DFF82C814FE0019B63B945B14FF08F
:105A5000500383F31188BFF36F8FBFF34F8FFEE7BF
:105A600001F02AFD5EE016B902A800F01FFE01F069
:105A700023FD00F0D1FB01F0FDFC94F84430FF2B36
:105A800008BF84F8447094F84530FF2B08BF84F8B1
:105A9000457001F011FD01A902A800F013FE0028D5
:105AA0004AD12046FFF71AFC00283FD023683BB9B3
:105AB00001F0E0FCA06800F057FE054601F0FCFC98
:105AC000019904F1240000F079FD2046FFF759FC0C
:105AD00000F040FC38B94FF08053C8F80030BFF3F5
